:020000040800F2
:10000000F80C0020C10100088B41000843360008AD
:1000100089410008310B0008E15100080000000090
:100020000000000000000000000000000D45000876
:10003000C50F000800000000914200080F450008AD
:10004000DB010008DB010008DB010008DB01000820
:10005000DB010008DB010008DB010008DB01000810
:10006000DB010008DB010008DB010008DB01000800
:10007000DB010008DB010008DB010008DB010008F0
:10008000DB010008DB01000841080008A10B0008A3
:10009000710B0008DB010008DB010008DB01000830
:1000A000DB010008DB010008DB010008DB010008C0
:1000B000DB010008DB010008DB010008DB010008B0
:1000C000DB010008DB010008DB010008DB010008A0
:1000D000DB010008DB010008994F0008DB01000884
:1000E000DB010008DB010008DB010008DB01000880
:1000F000DB010008DB010008DB010008DB01000870
:10010000DB010008DB010008DB010008DB0100085F
:10011000814A0008DB01000819460008DB010008DD
:10012000DB010008DB0100080D0F0008DB010008FF
:10013000DB010008DB010008DB0100081D0C0008E2
:10014000ED0B0008DB010008DB010008DB01000803
:10015000DB010008DB010008DB010008E14F0008BB
:10016000DB010008DB010008DB010008DB010008FF
:10017000DB010008DB010008DB01000800000000D3
:10018000DB010008DB010008DB010008DB010008DF
:10019000DB010008DB010008DB010008DB010008CF
:1001A0000000000000000000DB010008DFF80CD0B8
:1001B00000F034FB00480047AD560008F80C002062
:1001C0000648804706480047FEE7FEE7FEE7FEE7F1
:1001D000FEE7FEE7FEE7FEE7FEE7FEE7C5450008AF
:1001E000AD0100082DE9F05F0546002092469B46D0
:1001F00088460646814640241BE02846414647463D
:10020000224600F054FA53465A46C01A914110D380
:1002100011461846224600F03BFA2D1A67EB0108FA
:100220004F4622460120002100F032FA17EB000968
:100230004E41201EA4F10104DFDC484631462A4627
:100240004346BDE8F09F2DE9FE4F804681EA03005A
:10025000C00F0C46009021F0004123F00045B8EBA0
:100260000200A94105D24046214690461C460B4655
:10027000024623F00040104347D0270DC7F30A0081
:10028000C3F30A510290401A019040286BDAC3F37D
:10029000130040F4801B0098924620B10023D2EB5B
:1002A000030A63EB0B0B01985946C0F1400250461C
:1002B00000F0EEF906460D4650465946019A00F008
:1002C00006FA10EB08006141002487EA115284EA23
:1002D000E7731A4340D0009A62B3019A012A4FEAA9
:1002E000075215DC001B61EB02014FF0004202EAED
:1002F0000752CDE90042001C41F5801132462B46E1
:1003000000F03DFA03B0BDE8F08F40462146F9E722
:10031000001B61EB0201001C41F5801300185B41DA
:100320002018A2F5001747EB030140EAD570B61973
:100330006D4111E06D084FEA360645EAC0754FEA97
:100340000752001B61EB0201001C41F580114908B6
:100350004FEA30000019514132462B4603B0BDE848
:10036000F04F00F0FDB90098012240000023D0EBCF
:10037000020263EBE073009821464FEAE074B8EBA9
:10038000000061EB0401E9E783F000435BE781F0E3
:10039000004158E72DE9FE4F81EA030404F00044D0
:1003A00021F0004100944FF0000B23F0004350EA8D
:1003B00001045ED052EA03045BD0C3F30A54C1F3D4
:1003C0000A552C44A4F2F3340194A0FB0254C1F367
:1003D000130141F48011C3F3130343F4801301FBB1
:1003E000024400FB034E840A970A44EA815447EA18
:1003F0008357A4FB076802958D0A05FB07854FEA22
:10040000932C04FB0C542705029D4FEA065847EA3B
:100410001637B5EB08056EEB070C870E920E47EA10
:10042000811742EA8312A7FB0201B6EB0B0164EBD2
:1004300000042B0D43EA0C335E1844EB1C50DA46E3
:100440005146E7FB0201C5F313044FEA0B3343EABD
:1004500014534FEA0432019C43EA0603A4F10C044E
:100460000294009CCDE900B400F089F903B0BDE826
:10047000F08F00200146F9E72DE9F04D81EA0304F1
:1004800004F0004B21F0004514464FF0000A23F021
:10049000004150EA050220D054EA01021DD0C5F304
:1004A0000A570246C5F31303C1F31300C1F30A56FA
:1004B00040F4801543F48013A7EB0608101BD646C2
:1004C00008F2FD3873EB050002D308F1010801E0E2
:1004D00092185B41B8F1000F03DA00200146BDE835
:1004E000F08D00204FF48011064684460EE0171B65
:1004F00073EB050705D3121B63EB050306434CEAB8
:10050000010C49084FEA300092185B4150EA01079C
:10051000EDD152EA030012D082EA040083EA050119
:10052000084305D0101BAB4106D20122002306E090
:1005300000224FF0004302E06FF0010253101AEB6B
:1005400006004CEB085110EB0A0041EB0B01BDE833
:10055000F04D00F005B90EB5C10F80EAE070084417
:10056000CA07002140F233438DE80E000A460B46CD
:1005700000F005F903B000BD0EB540F23341029121
:100580000021CDE900110A460B4600F0F8F803B04F
:1005900000BD70B5C1F30A5201F000450024C1F35B
:1005A000130140F2FF3341F480119A4201DA002036
:1005B00070BD40F233439A42A2F2334203DC52420E
:1005C00000F075F800E090402C43F1D0404270BD3F
:1005D00000F0004230F000400AD0C10D01F560711A
:1005E000C0F3160042EA0151C208400711437047A8
:1005F000002001467047000030B5041E71F1000470
:1006000004DB4FF00044404264EB0101141E73F11F
:10061000000405DB1C464FF00043524263EB040329
:100620008B4208BF824230BD30B5041E71F1000418
:1006300004DB4FF00044404264EB0101141E73F1EF
:10064000000405DB1C464FF00043524263EB0403F9
:10065000994208BF904230BD01F0004330B421F010
:10066000004150EA010206D00A0DA2F56072C1F302
:100670001301002A02DC30BC00207047440F44EA1A
:10068000C104C100E01830BC00EBC25000F031B82A
:10069000202A04DB203A00FA02F100207047914042
:1006A000C2F1200320FA03F3194390407047202A37
:1006B00004DB203A21FA02F00021704721FA02F30C
:1006C000D040C2F120029140084319467047202AC9
:1006D00006DBCB17203A41FA02F043EAE07306E06A
:1006E00041FA02F3D040C2F120029140084319467A
:1006F00070470029A8BF7047401C490008BF20F080
:100700000100704710B4B0FA80FC00FA0CF050EA17
:10071000010404BF10BC704749B1CCF1200421FA98
:1007200004F411FA0CF118BF012121430843A3EB93
:100730000C01CB1D4FEA00614FEA102042BF0020A0
:1007400010BC704700EBC35010440029A4BF10BC7C
:100750007047401C490008BF20F0010010BC7047E2
:1007600010B5141E73F1000408DA401C41F10001B9
:1007700092185B411A4301D120F0010010BD2DE910
:10078000F04D92469B4611B1B1FA81F202E0B0FA07
:1007900080F220329046FFF77BFF04460F4640EA86
:1007A0000A0041EA0B0153465A46084313D011464A
:1007B00053EA010019D0C8F140025046FFF777FF15
:1007C00005460E46504659464246FFF761FF08432C
:1007D00005D0012004E020463946BDE8F08D002018
:1007E000054346EAE0762C4337430A986305E40A5A
:1007F000A0EB08000022FD0A44EA47540A3002D563
:1008000000200146E9E7010510196941DDE90845C5
:1008100000196941BDE8F04DA2E70000064C074D04
:1008200006E0E06840F0010394E8070098471034C0
:10083000AC42F6D3FFF7BEFC605A0008805A0008AD
:10084000014800F0B3BC0000B4000020454910B5D9
:100850004A6822F440324A604A6843681A434A6050
:1008600001684A6822F480724A6001684A68036934
:1008700042EA03224A6001684A6822F040724A60F4
:1008800001684A6883681A434A6001688A6822F4EA
:1008900000628A6001688A68C3681A438A60816A54
:1008A0006FF07062D14201688A6822F070628A60DB
:1008B00001688A680CD0836A1A438A6001688A6872
:1008C00022F040528A6001688A68C36A1A4301E0D4
:1008D00022F040528A6001688A6822F002028A602F
:1008E00001688A68836942EA43028A60016A0029D2
:1008F00001684A680FD042F400624A6001684A68A1
:1009000022F460424A6001684A68174C436A04EB6B
:1009100043331A4301E022F400624A600168CA6A64
:1009200022F47002CA620168CA6A838B0F4C04EB1E
:1009300003531A43CA6201688A6822F400728A600B
:1009400001688A68036B42EA43228A6001688A6808
:1009500022F480628A6001688A68406942EA8020E5
:10096000886010BD0023014000E0FFFF0000F0FFA1
:1009700000B500219FED5C2A9FED5C3AF0EE431A32
:10098000DFED5B2AB0EE621ADFED5A0AB0EE000A24
:10099000594803F06BFC0021B0EE432ADFED571AF3
:1009A0009FED571ADFED570A5348B8EE040A403856
:1009B00003F05CFC0021DFED543AF0EE431AB0EE98
:1009C000621AB0EE632ADFED510A4B48B8EE000A16
:1009D000803003F04BFC0021B0EE432ADFED4C1ACF
:1009E0009FED4C1ADFED4C0A4348B7EE080A403041
:1009F00003F03CFC0021B0EE432AF0EE631AB0EEA7
:100A0000621A9FED464AB0EE000A4548F0EE440AED
:100A100003F02CFC00219FED432A4148F0EE631ABD
:100A2000B0EE621AF0EE440AB0EE000A403003F075
:100A30001DFC3B480021B0EE432AF0EE631AB0EEF5
:100A4000621AF7EE000AB0EE000A403803F00EFC1E
:100A500033480021B0EE432AF0EE631AB0EE621A7A
:100A6000F0EE440AB0EE000A803003F0FFFB2C48A1
:100A70000021B0EE432AF0EE631AB0EE621AF0EEF7
:100A8000440AB0EE000AC03003F0F0FB0021B0EEE3
:100A9000432AF0EE631AB0EE621AF0EE440AB0EEAA
:100AA000000A214803F0E2FB1F480021B0EE432A70
:100AB000F0EE631AB0EE621AF0EE440AB0EE000AED
:100AC000403003F0D3FB184801219FED182AF0EEC7
:100AD000631AB0EE621AF0EE620AB2EE040A8030D7
:100AE0005DF804EB03F0C2BB0000484400803B45C6
:100AF000000000000AD7233CCC0400200060EA4636
:100B0000CDCC4C3F0AD723BC00007A44CDCC4CBDA1
:100B100000401C469A99993F0AD7A33CCDCCCC3DC6
:100B2000CC0500200080BB45CC0600200000E1443D
:100B3000FEE7000000B58BB000200121CDE90601E1
:100B400003900891049000900E2101900290099169
:100B500005906946054800F0F9FC0221034800F0C1
:100B60007DFC024800F0F8FF0BB000BDFC00002047
:100B700010B5084B084A0021084800F06EFD054AF0
:100B80000549064800F050F8BDE81040034800F061
:100B9000E1BD00000C000020B4030020FC00002098
:100BA000014800F0D7BD0000FC00002000B58BB06C
:100BB00000200121CDE906010090019002900390F0
:100BC00004900E20CDE9081005906946054800F014
:100BD000BDFC0221044800F041FC034800F0BCFFCA
:100BE0000BB000BDFC0000202401002010B5084B14
:100BF000084A0021084800F030FD054A054906482A
:100C000000F012F8BDE81040034800F0A3BD00005A
:100C10000C000020B403002024010020014800F053
:100C200099BD00002401002010B509683248A1F2E6
:100C300001214FF480530A2911D2DFE801F0051198
:100C40001D2935393D10454E118849BA018051881A
:100C500049BA4180918849BA81809179C18010BD9B
:100C6000118849BA0181518849BA4181918849BAAC
:100C700081819179C18110BD118849BA0182518861
:100C800049BA4182918849BA81829179C18210BD65
:100C9000118849BA0183518849BA4183918849BA78
:100CA00081839179C18310BD108841BA134806E051
:100CB000108841BA124802E0108841BA11480180F8
:100CC000518849BA418010BD108841BA0E4807E0EA
:100CD0009942F8D9A1F50051F4E7108841BA0B48C0
:100CE00099420180548864BA8480928852BAC28042
:100CF000EED289B2E6E700008C0700203C04002019
:100D00004A0400205804002024040020300400205D
:100D10002DE9F04104462DED048B042004EBC001C5
:100D2000401E91ED0A0B002881ED0C0B91ED000B9C
:100D300081ED020BF2DC94ED001B2E4F84ED021BC3
:100D400053EC112B97ED000B51EC100BFFF722FB2E
:100D5000012507F12808C4E90C0100BF04EBC50612
:100D600008EBC50096ED0C0B90ED001B53EC102B1F
:100D700051EC110BFFF70EFB41EC180B07EBC50014
:100D800096ED021B90ED000B53EC112B51EC100B68
:100D9000FFF700FB94ED0C1B53EC112BFFF753FAFC
:100DA00053EC182BFFF7F0FA9FED138B9FED149B7C
:100DB0006D1C052DC4E90C01D0DB94ED0C0B53EC3C
:100DC000182B84ED160B51EC100BFFF72DFC01D204
:100DD00084ED168B94ED160B53EC192B51EC100B84
:100DE000FFF70AFC01D284ED169BBDEC048BBDE835
:100DF000F081000058000020000000000000794051
:100E000000000000000079C0164800B5B0F90200EB
:100E1000164900EE100A1448B8EEC00A80ED010A27
:100E2000B1F9001000EE101AB8EEC00A80ED000A09
:100E300003F0ACF90E480F49B0F9020000EE100AB9
:100E40000948B8EEC00A803080ED010AB1F90010FF
:100E500000EE101AB8EEC00A80ED000A5DF804EB4F
:100E600003F094B924040020CC04002028000020C2
:100E7000300400202A000020134810B590ED160B16
:100E800051EC100BFFF7E8FB1049486001F14000FE
:100E900090ED0D0A403881ED000A03F077F90C4817
:100EA00090ED160B51EC100BFFF7D6FB0749803184
:100EB000486001F1400090ED0D0A403881ED000AD4
:100EC000BDE8104003F062B9380800208C0400200F
:100ED000980800200A4A40F2FF2313600023936021
:100EE000D36008231361074A030A13705070080A7D
:100EF0009070D170131F0249034800F0C3BA00007C
:100F00009C0300201C000020FC00002010B50348BA
:100F100000F068FEBDE8104004F0CABC3C030020AD
:100F200001681823CAB2103AB2FBF3F2054B6FF313
:100F30000901032A9B5CC36500D9091D8165084628
:100F400070470000C059000810B5014600208B69A9
:100F50008A6A4FF0C07453B1B3F5005F15D072B117
:100F6000012A0CD0022A0AD0032A09D104E01AB1BE
:100F7000012A06D0022A03D1C96AC90100D501207D
:100F800010BDC96AA142FAD010BD002AF7D0012ACB
:100F9000F2D0022AF3D0032AF3D010BD30B5046892
:100FA000256825F480252560046863608368402BEC
:100FB000036803D099600068C26030BD9A60006821
:100FC000C16030BD7047704778B50024009490F838
:100FD0003C20012A19D0012280F83C200A6807230E
:100FE0000568092A13D9EE680A3A02EB42029340D7
:100FF0009E43EE600A788B680A3A02EB4202934005
:101000000268D5682B43D36010E0022078BD2E69BA
:1010100002EB420293409E432E610A788B6802EBFA
:1010200042029340026815692B4313614A681F23EB
:10103000072A13D205686E6B521E02EB82029340A0
:101040009E436E630B790A885B1E92B203EB8303A7
:101050009A4003685D6B2A435A6327E005680D2AAE
:1010600012D22E6BD21F02EB820293409E432E635C
:101070000B790A88DB1F92B203EB83039A40036863
:101080001D6B2A431A6311E0EE6A0D3A02EB8202ED
:1010900093409E43EE620B790A880D3B92B203EBBC
:1010A00083039A400368DD6A2A43DA62174B0568B6
:1010B000154A9D4206D10D68122D03D1556845F49D
:1010C0008005556005689D4219D1114D0B68AB42F2
:1010D00001D0112B13D1536843F400035360096806
:1010E000A9420CD10B490C4A0968B1FBF2F101EBA2
:1010F0008101490000E0491E00910029FBD180F8E0
:101100003C40002078BD0000002301400020014049
:10111000120000101400002040420F0070B500685B
:101120001649884228D1164C2078401C207015485A
:1011300000F039F86188084480B260802178052980
:101140001AD100252570FFF717FA9FED0F1B53ECFE
:10115000112BFFF71FF99FED0E1B53EC112BFFF71F
:1011600019F99FED0D1B53EC112BFFF785F9FFF7D4
:1011700073FA0B490860658070BD000000220140D1
:1011800000000020B40000206666666666660A40BD
:10119000000000000000303F00000000000014408C
:1011A0002C00002070470068C06C704770B5044682
:1011B000006801684268C1F34001C2F3401251B3B4
:1011C0004AB3216CC90603D4216C41F40071216437
:1011D000816811F0405F17D1A169A9B9C16A11F402
:1011E000700F02D0816849050ED4416821F02001BA
:1011F0004160206C20F480702064206CC00403D413
:10120000206C40F0010020642046FFF787FF216832
:101210006FF012000860206801684268C1F3800125
:10122000C2F3C01289B382B3216CC90603D4216C06
:1012300041F400512164816811F4401F1ED1816B7B
:1012400011F4401F02D08168490517D4416849054F
:1012500014D4816811F0405F10D1A16971B941685F
:1012600021F080014160206C20F480502064206CCB
:10127000C00503D4206C40F0010020642046FFF735
:10128000A2FE21686FF00C000860206801684268C7
:1012900011F0010FC2F380120ED06AB10068C007CE
:1012A0000AD0206C40F480302064204600F046F8DC
:1012B00021686FF001000860206801684268C1F38E
:1012C0004011C2F3806200290DD0002A0BD0616C5E
:1012D00041F0020161646FF0200505602046FFF7D0
:1012E00061FF2068056070BD70B504004FF0000517
:1012F00003D0206C002610B107E0012070BD6664A9
:1013000084F83C60204600F01BF8206CC00610D426
:10131000206C20F4885040F0020020642046FFF743
:1013200095FA6664206C20F0020040F00100206411
:1013300000E0012584F83C60284670BD704700003D
:1013400000B50068104987B088421BD10F480021C2
:10135000026842F480620260006800F480600590D8
:101360004FF4806000900320CDE9010169460848F0
:1013700000F0C0FD00221146122000F085FF12206F
:1013800000F075FF07B000BD002201404438024064
:101390000014024018B50021009190F83C20012A69
:1013A00007D0012280F83C2002689368DB0702D056
:1013B00011E0022018BD936843F001039360224AB4
:1013C000224B1268B2FBF3F202EB420200E0521E23
:1013D0000092002AFBD102689368DB0732D0036CCD
:1013E00040F20164A34343F48073036453685B05D4
:1013F00005D5036C23F4005343F480530364036C5A
:10140000DB0404D5436C23F00603436400E041642D
:1014100080F83C100E4B6FF02201116001684A68A1
:101420000C4C22434A6059680068C90602D00A4938
:10143000884207D1816811F0405F03D1816841F093
:1014400080418160002018BD1400002040420F0040
:1014500000230140200000040020014090F82020DB
:10146000012A09D090F82020022A05D0416A41F4CF
:101470008021416201207047006842690A4342614D
:1014800000207047F0B590F82040012C07D090F86C
:101490002040022C03D0416A41F4802153E00468CB
:1014A000A5686D0105D4A5682D0102D4A568ED00DD
:1014B00046D5A4680125C4F30164A5401D608D686C
:1014C0004FF4C0739DB1CE6835434E6845EAC605FA
:1014D000066803EB0417F5514FF4C275076805EB76
:1014E00004150E697E51097D012905D009E00E8899
:1014F000CD6845EA4655EBE701684E5946F48076DB
:101500004E511179D2F805504FF4C67641EA0521C3
:10151000056806EB0416A9511178D2F801204FF4A2
:10152000C47541EA0221026805EB041551510068B7
:1015300003EB0411425842F0010242500020F0BD7A
:10154000416A41F4001141620120F0BD10B590F8EC
:101550002020012A09D090F82020022A05D0416AD3
:1015600041F480214162012010BD3A48D0F80022A8
:1015700042F00102C0F80022D0F8002222F47C528E
:10158000C0F80022D0F800224B6A42EA0322C0F8D9
:1015900000220B7D01229A40D0F81C329343C0F800
:1015A0001C32CB69B3B9D0F80C329343C0F80C327B
:1015B0008C894B6864F31F434C6900EBC404C4F886
:1015C00040320C890B6864F31F434C6900EBC40480
:1015D000C4F84432CB69012B16D1D0F80C32134336
:1015E000C0F80C320C884B6864F31F434C6900EB65
:1015F000C404C4F840320C89CB6864F31F434C69BF
:1016000000EBC404C4F844328B69002BD0F80432D8
:101610000ED01343C0F804320B69002BD0F81432FB
:1016200008D01343C0F81432096A012904D008E035
:101630009343EFE79343F5E7D0F81C121143C0F84A
:101640001C12D0F8001221F00101C0F80012002095
:1016500010BD000000640040704730B590F8204095
:10166000012C07D090F82040022C03D0416A41F4AD
:10167000802109E011B1012909D00CE00468E46877
:1016800007E0416A41F400114162012030BD046865
:101690002469A407F5D04FF4D874056804EB01144D
:1016A0002D5915F00405956005682D5942D0ED08B7
:1016B000556005682C59C4F34004D4604FF4DA74C3
:1016C000056804EB01142D5905F00F051561056837
:1016D0002D59C5F30725956105682C59240C5461D3
:1016E0004FF4DC72046802EB0112A4581C70046809
:1016F000A458240A5C700468A458240C9C700468E4
:10170000A258120EDA704FF4DE72046802EB011276
:10171000A4581C710468A458240A5C710468A45875
:10172000240C9C710468A258120EDA7129B10129A7
:1017300009D00DE06D0D1560BBE70068C16841F090
:101740002001C16004E00068016941F020010161ED
:10175000002030BD2DE9F05F054600680024466991
:10176000D0F804908768D0F80CB0D0F810A0D0F86A
:101770001880F10748D0F90714D001218160B8071B
:1017800003D5284600F015FA0CE0780702D54FF48F
:10179000006407E0380702D54FF4805402E0284681
:1017A00000F006FAF80516D529684FF480708860B5
:1017B000B80503D5284600F0FEF90CE0780502D5FF
:1017C00044F4005407E0380502D544F4804402E0B4
:1017D000284600F0EFF9F80316D529684FF4803059
:1017E0008860B80303D5284600F0E7F90CE07803D9
:1017F00002D544F4004407E0380302D544F48034B1
:1018000002E0284600F0D8F9300707D55FEACB6040
:1018100004D52968102044F40074C86070074FF0A4
:10182000080707D55FEA0B7004D52868C76028460B
:1018300000F08CF9B00706D52868C068800702D090
:10184000284600F084F9700607D55FEACA6004D51F
:101850002968102044F480640861B00607D55FEA67
:101860000A7004D528680761284600F071F9F0066F
:1018700006D528680069800702D0284600F069F97B
:10188000B00308D55FEAC96005D529681020486013
:10189000284600F05FF9F00307D55FEA097004D528
:1018A00028684760284600F089F9300446D55FEA89
:1018B000497040D5F00504D55FEAC87001D044F006
:1018C0000104B00504D55FEA887001D544F0020434
:1018D000700504D55FEA487001D544F00404300572
:1018E00029D518F0700F26D008F07000402815D0C8
:1018F00006DC102809D020280AD0302816D10AE0AA
:1019000050280ED0602811D10EE044F008040DE0FC
:1019100044F010040AE044F0200407E044F04004DE
:1019200004E044F0800401E044F480742868816994
:1019300021F070018161296804204860002C05D0E5
:10194000686A204368622846FFF786FEBDE8F09F7C
:1019500070B5040003D094F8200010B104E0012019
:1019600070BD204600F082F82068016821F0020175
:10197000016000F0ABFB0546052604E000F0A6FB85
:10198000401B0A2811D8206840688007F6D42068D8
:10199000016841F00101016000F098FB05460BE091
:1019A00000F094FB401B0A2806D9606A40F400301E
:1019B000606284F82060D2E720684068C007EFD0FA
:1019C000207E0128206801683DD021F0800101605F
:1019D000607E01282068016838D021F04001016054
:1019E000A07E01282068016833D021F02001016029
:1019F000E07E0128206801682ED041F010010160CE
:101A0000207F01282068016829D021F008010160A9
:101A1000607F01282068016824D021F00401016062
:101A2000D4E902010843D4E9041211430843616870
:101A3000491E08432168C86100206062012084F8C3
:101A40002000002070BD41F08001C0E741F040015E
:101A5000C5E741F02001CAE721F01001CFE741F0CE
:101A60000801D4E741F00401D9E70000F0B5324B9A
:101A70000768DFF8C0C018680322022409252F492F
:101A80000026401C87B0674521D11860012807D186
:101A9000086840F000700860086800F00070059069
:101AA0008DE85400CDE903256946254800F022FA67
:101AB00000221146132000F0E7FB132000F0D7FBB3
:101AC00000220121142000F0DFFB14202EE0DFF8BB
:101AD00074C067452CD10F6847F080670F600F68AE
:101AE000012807F080670597186007D1086840F063
:101AF00000700860086800F0007005904FF44050D6
:101B00008DE85100CDE9032569460F4800F0F2F950
:101B1000002211463F2000F0B7FB3F2000F0A7FB5A
:101B200000220121402000F0AFFB402000F09FFB8D
:101B300007B0F0BD006400400400002040380240BF
:101B4000000C0240006800400004024070477047EB
:101B5000704770477047000070B5044690F8200049
:101B6000012804D0606A40F40020606218E002207E
:101B700084F820002068016821F00101016000F074
:101B8000A5FA05460EE000BF00F0A0FA401B0A28A7
:101B900008D9606A40F400306062052084F82000B3
:101BA000012070BD20684068C007EDD1606270BD43
:101BB000704770477047704770477047704790F89C
:101BC0003510022903D0802141650120704705218D
:101BD00080F835100068016821F0010101600020E3
:101BE000704700002DE9F84304464FF00009CDF896
:101BF000009063484FF41651A56D0068B0FBF1F7F3
:101C00002E6894F85C10082000FA01F131420FD0E0
:101C100021680A6852070BD50A6822F004020A609C
:101C200094F85C108840A860606D40F00100606529
:101C300094F85C104FF0010808FA01F0304208D027
:101C400021684969090604D5A860606D40F002006A
:101C5000606594F85C1004208840304208D0216808
:101C60000968890704D5A860606D40F004006065CC
:101C700094F85C1010208840304218D02168096820
:101C8000090714D5A86020680168490304D50068D5
:101C9000000308D5A16C07E00168C90503D40168F9
:101CA00021F008010160216C09B12046884794F8B1
:101CB0005C1020208840304231D021680968C90674
:101CC0002DD5A86094F8350005282068016806D055
:101CD000490347D5006800031DD4616C1CE021F066
:101CE000160101602068416921F080014161206C8A
:101CF00008B9A06C20B12068016821F008010160DA
:101D000094F85C103F208840A86084F8349084F8F0
:101D10003580216D1FE0E16B09B120468847606D79
:101D200000282BD0606DC00714D0052084F8350042
:101D30002068016821F0010101600098401C0090BA
:101D4000B84203D820680068C007F6D184F8349000
:101D500084F83580E16C002910D001B02046BDE840
:101D6000F04308470168C905D5D4016821F0100186
:101D7000016084F8349084F83580CCE7BDE8F883BE
:101D8000140000202DE9F041044600F09FF90646BA
:101D90005CB1002584F83450022084F835002068B6
:101DA000016821F0010101600DE00120BDE8F08132
:101DB00000F08CF9801B052805D9202060650320E0
:101DC00084F83500F2E720680068C007F0D1226887
:101DD000116820480140D4E901031843D4E90336CF
:101DE0003343184363691843A3691843E3691843ED
:101DF000236A18430843616A042903D1D4E90B1309
:101E000019430843106020684069666A20F00701A2
:101E100030460E43012704280CD1A06A0643E06A2D
:101E200040B12046FFF790F820B14020606584F86B
:101E30003570BAE7206846612046FFF771F894F8DC
:101E40005C203F2191408160656584F835700020F9
:101E5000ACE700003F8010F02DE9F0410446866DAC
:101E600090F83400002501280DD0012084F83400BA
:101E700094F835700020012F07D084F83400022533
:101E80002846BDE8F0810220FBE7022784F8357080
:101E900060652046FFF782F894F85C103F20884088
:101EA000B0602068016841F0160101602068416956
:101EB00041F080014161206C20B12068016841F04F
:101EC000080101602068016841F001010160D7E765
:101ED00070B5044600F0FAF80546601C02D00448CC
:101EE0000078044400F0F2F8401BA042FAD370BD21
:101EF000A80000202DE9F84FDFF890B100224FF044
:101F000001084FF0030A4FF00F090BF1040E00BF58
:101F10000B6808FA02F42340A3426ED14D68022DEB
:101F200001D0122D0ED1D50800EB850CDCF8205025
:101F30005607F70E09FA07F6B5430E69BE402E4361
:101F4000CCF82060066855000F790AFA05FC07F006
:101F5000030726EA0C06AF40374307604E68012EA0
:101F600005D0022E03D0112E01D0122E0ED187687B
:101F7000CE6827EA0C07AE403E4386604668A6431B
:101F80000C79C4F30014944034434460C4688E68F0
:101F900024EA0C04AE402643C6604C68E4006FD5CA
:101FA0003B4C256845F480452560246822F00305F4
:101FB00004F480440094374C2E19D6F8084895074D
:101FC0002F0F09FA07F5AC43334DA84201D1002584
:101FD0002EE0324DA84201D1012529E0304DA84222
:101FE00001D1022524E02F4DA84201D103251FE095
:101FF0002D4DA84202D104251AE041E02B4DA84204
:1020000001D1052514E02A4DA84201D106250FE093
:10201000284DA84201D107250AE0274DA84201D149
:10202000082505E0254DA84201D1092500E00A2533
:10203000BD402543C6F80858DBF800405D464E68B1
:102040009C43F60300D51C432C60DEF80040754627
:102050004E689C43B60300D51C432C600B4D0835DD
:102060002C684E689C43F60200D51C432C60074D3B
:102070000C352C684E689C43B60200D51C432C607E
:10208000521C102AFFF444AFBDE8F88F003C014019
:102090004438024000300140000002400004024089
:1020A00000080240000C02400010024000140240F0
:1020B00000180240001C02400020024000240240A0
:1020C0000AB1816170470904FBE70000014880689C
:1020D00070470000A800002002488168027811447F
:1020E00081607047A80000200B4810B5016841F4DA
:1020F00000710160016841F480610160016841F490
:1021000080710160032000F0DFF8002000F006F885
:1021100000F024F8002010BD003C024070B50D4DC9
:1021200004464FF47A712878B1FBF0F00A49096847
:10213000B1FBF0F000F09DFB48B9102C07D2002253
:102140002146501E00F0A0F800206C6070BD0120F8
:1021500070BD0000A8000020140000201F4808B532
:10216000016841F480410160006800F48040009003
:102170001A48001F016841F080510160006800F0BA
:1021800080500090032000F09FF8002211466FF06D
:102190000B0000F079F8002211466FF00A0000F001
:1021A00073F8002211466FF0090000F06DF800226C
:1021B0001146501F00F068F800221146101F00F071
:1021C00063F800221146901E00F05EF80022BDE880
:1021D00008401146501E00F057B800004438024035
:1021E0002DE9F04116460F46040004D094F839005A
:1021F000002518B107E00120BDE8F08184F83850CF
:10220000204600F0EFFE242084F839002068C168E1
:1022100021F40051C160204602F004FD20680169EC
:1022200021F4904101612068416921F02A01416156
:102230002068016921F00F010161206801693943BB
:1022400001612068C16821F40061C1602068C16833
:102250003143C1602068C16841F40051C160E56349
:10226000202084F8390084F83A000020C4E70028D0
:1022700009DB00F01F02012191404009800000F1BC
:10228000E020C0F800117047F0B40E4B1B680C46FC
:10229000C3F30223C3F10705042D00D90425191D3A
:1022A000072901D2002300E0DB1E012606FA05F112
:1022B000491E214099409E40761E16403143F0BC95
:1022C00002F0A8BF0CED00E0064900F00702086824
:1022D0004FF6FF03184040EA0220034A104308600B
:1022E000704700000CED00E00000FA052DE9F8430E
:1022F0001748016841F0805101600068154F00F0F7
:102300008050012600903E64FFF7E0FE05464FF442
:102310007A78114C05E000BFFFF7D8FE401B40451E
:102320000DD86068C003F7D57E64FFF7CFFE054681
:10233000464607E0FFF7CAFE401BB04202D9032021
:10234000BDE8F88360688003F4D50020F8E700005A
:102350004038024000000E42007000402DE9F04776
:102360000E46050065D0DFF81481D8F80000F7B2FA
:1023700000F00F00B04207D288F80070D8F80000D3
:1023800000F00F00B04254D128683D4C810712D5AF
:10239000400703D5206840F4E0502060287800070B
:1023A00003D5206840F4604020602068A96820F0D0
:1023B000F000084320602878C0072DD030496868B5
:1023C0000839012812D0022813D0032811D0096837
:1023D000890700292DDA216821F0030101432160DA
:1023E000FFF774FE814641F2883A0EE009688903DE
:1023F000EFE709688901ECE7FFF768FEA0EB090148
:10240000514502D90320BDE8F0872068696800F0D3
:102410000C00B0EB810FEFD1D8F80010404601F06E
:102420000F01B14207D90770006800F00F00B042F9
:1024300001D00120E7E72878400705D52068E96842
:1024400020F4E050084320602878000706D5206873
:10245000296920F4604040EAC100206000F03CF8A7
:102460002168084AC1F30311515CC840064908605D
:102470000020FFF753FE0020C5E70000003C0240AB
:1024800008380240A85900081400002001480068DC
:1024900070470000140000200448054900680968DE
:1024A000044AC1F38221515CC840704714000020E7
:1024B00008380240B859000804480549006809680E
:1024C000044AC1F34231515CC840704714000020F7
:1024D00008380240B8590008154810B5006810F0D7
:1024E0000C02144813D01449042A0FD0082A0ED124
:1024F0000F4C241F2268236802F03F025B0207D5BD
:102500002068C0F38810A0FB010106E0084610BD5A
:102510002168C1F38811A1FB00010023FDF762FED1
:102520002168C1F30141491C4900B0FBF1F010BD25
:10253000083802400024F400001BB7002DE9F84FD2
:10254000050076D02878DFF8F8B2BE4CC00749D035
:10255000DBF800105846C1F38101012908D000685A
:10256000C0F3810002280AD1201D0068400206D570
:102570002068800336D568680028E2D032E06868B9
:10258000B0F5803F10D0B0F5A02F206810D020F417
:1025900080302060206820F4802020606868A0B12E
:1025A000FFF794FD06460CE0206840F48030F4E725
:1025B00040F480202060F7E7FFF788FD801B642847
:1025C00073D820688003F7D50CE0FFF77FFD06463F
:1025D00005E000BFFFF77AFD801B6428F0D8206873
:1025E0008003F7D42878DFF8608280074FF0000975
:1025F0003ED5DBF80010584611F00C0F09D00068EA
:10260000C0F3810002280BD18D48001F00684002F2
:1026100006D42068800715D5E868012809D111E0A3
:10262000E868B8B10120C8F80000FFF74FFD064682
:1026300005E002E1FFF74AFD801B0228C0D82068B0
:102640008007F7D52068296920F0F80040EAC1002A
:1026500020600DE0C8F80090FFF738FD064604E062
:10266000FFF734FD801B02281FD820688007F7D4AD
:102670002878000722D5724E744869696C3671B1AA
:1026800001210160FFF722FD074604E0FFF71EFD70
:10269000C01B022809D830688007F7D50EE0C0F8C3
:1026A0000090FFF713FD074605E083E0FFF70EFDFE
:1026B000C01B02287ED830688007F7D428784007EE
:1026C00068D5DFF87CA100270AF1380ADAF80000A3
:1026D000C0000BD4DAF8001041F08051CAF80010A5
:1026E000DAF80000012700F080500090584E306862
:1026F000C00510D4306840F480703060FFF7E6FC0D
:10270000009005E0FFF7E2FC0099401A022851D83A
:102710003068C005F6D54A4EA868683601280FD043
:102720000528306810D020F001003060306820F0BB
:1027300004003060A868B8B1FFF7C8FC00900FE053
:10274000306840F00100F4E740F004003060F7E743
:10275000FFF7BCFC0099411A41F28830814264D8ED
:1027600030688007F4D50EE0FFF7B0FC009007E07A
:10277000FFF7ACFC0099411A41F28830814254D8ED
:1027800030688007F4D42FB1DAF8001021F08051BE
:10279000CAF80010A869C0B3DBF80010C1F38101CA
:1027A00002294AD00228484607D0C8F86000FFF73F
:1027B0008DFC00E039E005463AE04746C8F8600085
:1027C000FFF784FC064604E0FFF780FC801B02282C
:1027D0002BD820688001F7D4D5E907010843A96AFE
:1027E0001C4A490802EB01416A6A41EA8211084326
:1027F00095F82C1040EA01611148001F016001208A
:102800003866FFF763FC054605E014E0FFF75EFC61
:10281000401B022809D820688001F7D50BE000BFD3
:10282000FFF754FC401B022802D90320BDE8F88FB3
:1028300020688001F4D40020F8E70120F6E70000CA
:10284000083802400038024000004742800E4742EC
:10285000007000400000FFFF4FF0E02104280869ED
:1028600003D020F004000861704740F00400FAE74C
:10287000704710B5401EB0F1807F01D3012010BD1C
:102880004FF0E02460610F21601702F0C3FC0020CC
:10289000A06107202061002010BD10B5FFF7E8FF00
:1028A00010BD7047704710B590F83820012A25D028
:1028B000012280F83820CA688C6822F440722243D2
:1028C0004C6822F4806222430C6822F400622243A6
:1028D0000C6922F4805222434C6922F400522243B4
:1028E0008C6922F48042224322F4004102680023D2
:1028F0002143516480F83830002010BD022010BD03
:1029000030B590F83820012A20D0012280F83820F4
:10291000022380F8393003685C6824F070045C603E
:1029200003685C680D682C435C6003689C6824F055
:1029300080049C6003689C6849680C439C6080F834
:102940003920002180F83810084630BD022030BD03
:1029500010B5040003D094F8390010B107E001204D
:1029600010BD002084F83800204600F00DF8022049
:1029700084F83900211D206801F058FE012084F8F8
:102980003900002010BD000008B5016817488142D9
:1029900008D11748016841F001010160006800F0AA
:1029A00001000BE01248134A001F914208D1016850
:1029B00041F004010160006800F00400009008BDCF
:1029C0000D4A914207D1016841F010010160006891
:1029D00000F01000F2E7094A9142F0D1016841F09D
:1029E00040010160006800F04000E7E7000001409E
:1029F0004438024000080040001000400018004029
:102A0000022180F8391001680A6842F001020A6068
:102A1000012180F83910002070470168CA6842F02F
:102A20000102CA600068016841F0010101600020F4
:102A3000704770B5044690F83800012817D001257A
:102A400084F83850022084F839002068826822F027
:102A5000770222F47F4282600868502837D00DDC6C
:102A6000202859D005DC88B3102841D151E002203C
:102A700070BD302853D040283AD13FE060282ED096
:102A800070280BD0B0F5805F03D0B0F5005F2FD178
:102A900010E02068816821F0070115E0CB68D1E9DA
:102AA0000121206801F02DFE2168886840F0770040
:102AB00088601DE0CB68D1E90121206801F021FE8A
:102AC0002068816841F48041816011E01EE0CA689D
:102AD0004968206801F0DEFE5021206806E0CA68DF
:102AE0004968206801F0E7FE6021206801F013FECC
:102AF00084F83950002084F8380070BDCA684968ED
:102B0000206801F0C7FE40212068EFE7002120681F
:102B1000ECE710212068E9E720212068E6E7302172
:102B20002068E3E7704770B50446006801694FF01C
:102B30000005C943890715D4C168C943890711D461
:102B4000E91E016101202076206880698007204607
:102B500002D0FFF7E7FF04E000F0D0F8204600F0D5
:102B600052F9257620680169C943490717D4C1681D
:102B7000C943490713D46FF0040101610220207694
:102B80002068806910F4407F204602D0FFF7CAFF1A
:102B900004E000F0B3F8204600F035F9257620680F
:102BA0000169C943090716D4C168C943090712D48A
:102BB0006FF008010161042020762068C069800759
:102BC000204602D0FFF7AEFF04E000F097F8204661
:102BD00000F019F9257620680169C943C90617D4A0
:102BE000C168C943C90613D46FF010010161082000
:102BF00020762068C06910F4407F204602D0FFF79D
:102C000091FF04E000F07AF8204600F0FCF8257609
:102C100020680169C943C90708D1C168C943C90708
:102C200004D1891E0161204600F00AF9206801697B
:102C3000C943090609D4C168C943090605D46FF020
:102C4000800101612046FFF72CFE20680169C9431D
:102C5000490609D4C168C943490605D46FF040014B
:102C60000161204600F0EDF820680169C94389063A
:102C70000BD4C168C943890607D46FF020010161F4
:102C80002046BDE87040FFF70DBE70BD70B500680E
:102C900015490024022586B0884215D14FF44070B2
:102CA0000090CDE901540126CDE9034669460F485D
:102CB000FFF720F94FF4C0400090CDE90154CDE971
:102CC000034669460A480AE00A49884209D1801445
:102CD0000090CDE9015469460748CDE90345FFF767
:102CE00009F906B070BD000000000140000002407C
:102CF0000010024000080040000C0240704770B510
:102D0000044690F838000D4601280DD0012684F8BD
:102D10003860022084F8390042B1042A18D0082A09
:102D20002AD00C2A4DD139E0022070BD206801F074
:102D3000FBFC2068816941F008018161206881699C
:102D400021F004018161206881692A69114311E041
:102D5000206801F015FD2068816941F400618161FE
:102D60002068816921F480618161206881692A6914
:102D700041EA0221816124E0206801F033FD2068EE
:102D8000C16941F00801C1612068C16921F00401F5
:102D9000C1612068C1692A69114311E0206801F00E
:102DA00051FD2068C16941F40061C1612068C169B9
:102DB00021F48061C1612068C1692A6941EA022168
:102DC000C16184F83960002084F8380070BD10B506
:102DD000040003D094F8390010B107E0012010BDC1
:102DE000002084F83800204600F00CF8022084F817
:102DF0003900211D206801F019FC012084F83900F8
:102E0000002010BD7047704710B5044600680122CD
:102E100001F06CFC08492068884202D007498842CA
:102E200003D1416C41F4004141642068016841F0E4
:102E300001010160002010BD0000014000040140BC
:102E40007047704708B500680168C943090705D491
:102E500001684168009140680149487008BD000060
:102E60004000002010F8391F4078084370470000E8
:102E700070B5026804461068D168536910F00F0FEE
:102E800050D003F0010501F4907635435DD0C207C0
:102E900005D0CA0503D5E26B42F00102E2634207A6
:102EA00005D5DA0703D0E26B42F00202E263820743
:102EB00005D5DA0703D0E26B42F00402E2630207B1
:102EC00005D5DA0703D0E26B42F00802E263E26B59
:102ED000002A33D0800604D5880602D5204601F0AA
:102EE0005AFE20684069E16BC0F38010090700D4E6
:102EF00028B3204601F038FE2068416949061AD5FA
:102F0000416921F040014161606BA0B11B4901653D
:102F1000606BFEF754FE002810D0606B016DBDE8B9
:102F200070400847830610D58B060ED52046BDE8B5
:102F3000704001F030BE2046FFF784FF70BD204690
:102F4000FFF780FF0020E06370BD030606D50B0687
:102F500004D52046BDE8704001F0BABF4006F3D565
:102F60004806F1D5D168204621F04001D1602021EA
:102F700084F8391000F064FB70BD0000C94A0008F5
:102F800070B5040004D094F83900002510B106E0B3
:102F9000012070BD84F83850204600F023F824202A
:102FA00084F839002068C16821F40051C1602046CE
:102FB00001F038FE2068016921F490410161206828
:102FC000416921F02A0141612068C16841F4005142
:102FD000C160E563202084F8390084F83A000020BD
:102FE00070BD00002DE9F043074602684F480024F9
:102FF0004F4903250226DFF83CC187B04FF008088F
:10300000824218D1086840F400200860086802AACB
:1030100000F400200590CDE90056012082E821014E
:1030200069466046FEF766FF002203213420FFF761
:103030002BF934205FE03E483F4B001D4FF007095D
:103040009A4230D1016841F010010160006802AA83
:1030500000F010000590C020CDE9000682E83002A3
:1030600069463648FEF746FF364D354828604FF032
:103070000060C5E901044014C5E9034080106C619B
:10308000C5E906404FF44030C5E908042846FEF77C
:1030900079FE18B1C3212CA002F0A3F87D63AF63C1
:1030A00007B0BDE8F0832C4B9A4227D10868274629
:1030B00040F4003008600868CDE9026500F4003093
:1030C00005900420CDE90006694664466046CDF8C7
:1030D0001090FEF70FFFCDE90275CDE90086694635
:1030E0002046CDF81090FEF705FF00220121262092
:1030F000FFF7CAF82620FFF7BAF8D1E717498A4246
:10310000CED1016841F020010160006802AA00F000
:10311000200005904FF48440CDE9000682E830019C
:1031200069460F48FEF7E6FEBAE70000004C004093
:1031300040380240000002400010014000040240FC
:10314000406402403C0300202E2E2F5372632F75E3
:10315000736172742E63000000440040001401404B
:1031600000180240F8B5044690F83A0020283CD1F7
:10317000C1B3BAB394F83800012836D0012084F8DE
:103180003800A162A2850025E563222084F83A0078
:10319000636B1748D863636B16481864636B1648F3
:1031A000D864606B134605650846666B2168024665
:1031B0003046091DFEF750FE206801684168009105
:1031C00084F83850C16841F48071C1602068416959
:1031D00041F0010141612068416941F040014161D4
:1031E0000020F8BDFFE70120FBE70220F9E700001F
:1031F000234B00085F4B0008D94A000890F83A308A
:10320000202B1DD1D1B1CAB190F83830012B17D085
:1032100081628285C2850021C163222280F83A2022
:1032200080F8381001684A6942F001024A6100687A
:10323000C16841F49071C16000207047012070475F
:10324000022070472DE9F05FBA49DFF8ECA20025B3
:103250002DED048B4FF0070E4FF0040B00688842F1
:103260007ED1B64CB64A234694F801C0187893F83C
:10327000089001020FB2B3F9046009EB0001B3F941
:103280000630C9B2BCF1090F0CD2DFE80CF0050F13
:10329000161E252E343B4400262801D101210AE0C8
:1032A00061785054BDEC048BBDE8F09F252801D017
:1032B0006570F5E702216170F2E7A78000F14B012C
:1032C000217203216170D070ECE73318A380217262
:1032D00084F801B01071E5E72D2801D17342A38075
:1032E0002172052161705071DCE7E78021720621AF
:1032F00061709071D6E70344E380217284F801E0A5
:10330000D071CFE72D2801D15B42E38021720821E3
:1033100061701072C6E74FF47A73814576D15072AE
:103320005220A0700122A11C864800F02CF986488A
:10333000007A012873D156469AF80000834FDFF8CF
:103340001082DFF81092DFF810A201284AD1B4F9F8
:103350000600FDF700F99FED819B53EC192B00E06F
:103360005FE0FDF717F841EC100B01F065FF9FEDF2
:103370007D1B51EC100B53EC112BFDF70BF841ECBE
:10338000180BB7F90200FDF7E6F853EC182BFCF721
:103390005AFFFDF7FEF8A8F80000B4F90400FDF7A5
:1033A000DAF853EC192BFCF7F5FF41EC100B01F0A8
:1033B00043FF9FED6E1B51EC100B53EC112BFCF7F0
:1033C000E9FF41EC180B86ED028BB9F90200FDF71D
:1033D000C2F853EC182BFCF7D7FFFDF7DAF8AAF880
:1033E00000003570B9F90210BAF90000081A1D3052
:1033F0003B2814D2B7F90210B8F90000081A63305C
:10340000C7280CD20120307009E0FFE7A580E580D5
:103410005720A0700122A11C4A4800F0B4F8657042
:1034200040E7544988422AD15348014642780978F6
:10343000082AF5D2DFE802F004080A0C0F111A1D61
:10344000A529EDD101210CE002210AE0032108E0C9
:1034500080F801B026E7052103E0042903D0C570F8
:10346000062141701EE780F803B0F9E780F801E01B
:1034700018E7BDEC048BBDE8F05F00F0FDB93F49F3
:103480008842CDD13E480278817D02F07F0202441D
:10349000517001784A0602D14278242AC0D1491CD1
:1034A000017001F07F010829417D827D02D0114425
:1034B0004175F7E6914239D11F4A0021921C431809
:1034C0001B795354491C0429F9DB8178642920D0E5
:1034D000692910D0702929D18269DAF80210916126
:1034E000C1782D2922D1816991ED060AB1EE400AF9
:1034F00081ED060A1AE08169DAF80220CA61C27811
:103500002D2A13D191ED070AB1EE400A81ED070A89
:103510000CE08169DAF802200A62C2782D2A05D10E
:1035200091ED080AB1EE400A81ED080A4575057073
:10353000B8E600000044004040000020660400207F
:10354000AC070020BC020020E2030020240400207D
:1035500028000020300400202A0000200135B56C2E
:10356000AD2F623F6666666666608F4033333333E5
:10357000336094400014014030000020004C0040B3
:103580007004002070472DE9F843044690F8390094
:103590001F4616460D46202850D1A5B19EB194F87D
:1035A000380001284AD0012084F838004FF0000884
:1035B000C4F83C80212084F83900FEF787FDA684FA
:1035C0008146E68426E00120BDE8F883E08C401EB9
:1035D000E084A0684B46B0F5805F4FF000024FF0EA
:1035E00080012046009703D001F0A3FCE8B90DE06C
:1035F00001F09FFCC8B928882168C0F30800486022
:10360000206908B16D1C05E0AD1C03E0216815F8C8
:10361000010B4860E08C0028D8D14B4600224021A5
:103620002046009701F085FC08B10320CCE720205C
:1036300084F8390084F838800020C5E70220C3E709
:103640007047FEE770B50D4C0025C4F894520C4845
:10365000016821F440710160016841F480710160EA
:10366000C4F89052022004F5247401F0F9FF0120FF
:103670006060022001F0F4FF656070BD000042420E
:103680000010024003480121C0F89412C0F89012C3
:10369000704700000000424270B50D4C0025C4F890
:1036A00094520C48016821F440710160016841F4B2
:1036B000807101600126C4F89062022004F5247430
:1036C00001F0CEFF6660022001F0CAFF656070BDA8
:1036D00000004242001002402DE9F04781461648A2
:1036E0000024016821F44071016001680160134EFB
:1036F000254627464FF00108C6F89472022001F0D3
:10370000AFFFC6F894826006040ED6F8100208B126
:10371000641CE4B2012001F0A3FF6D1CEDB2082D82
:10372000EAD3B9F1000F04D0FFF78CFF2046BDE8C3
:10373000F087FFF7B1FFF9E70010024000004242B6
:103740002DE9F04106461448016821F440710160FA
:10375000016841F480710160104C0027C4F8947234
:103760003D464FF00108F009C4F890027006060EBD
:10377000022001F075FFC4F89482022001F070FF6E
:10378000C4F89472022001F06BFF6D1CEDB2082D9D
:10379000E9D3BDE8F0810000001002400000424281
:1037A00070B50D48016821F440710160016841F471
:1037B00080710160094C0120C4F89002C4F89402A1
:1037C000042004F5247401F04BFF0025256004203B
:1037D00001F046FF656070BD0010024000004242EB
:1037E0000E4810B5016821F440710160016841F490
:1037F000807101600A4C0020C4F89402C4F8900261
:10380000042004F5247401F02BFF01206060206087
:10381000BDE81040042001F023BF0000001002406A
:103820000000424270B512480024016821F4407142
:103830000160016801600F4D0126C5F890623046B5
:1038400001F00EFFC5F89462012001F009FF07E0C6
:10385000641CE4B2FA2C03D9FFF7C2FF012070BD4B
:10386000D5F810020028F3D1C5F8940270BD00000D
:103870000010024000004242124910B5C8780022F0
:10388000042803D0002800D14A7010BD0E480B78E0
:10389000047D0355037D5B1CDBB20375142BF4D14F
:1038A000027528384A7050F8281F81614168C1614B
:1038B00081680162C1684162018A0185418A41854E
:1038C00010BD000030000020F80300201C4A10B595
:1038D000911E881E00F08EF8194A243A911E881E07
:1038E00000F06FF81648343830F8301F428A891AD1
:1038F0000AB200EE102A02804188F8EEC00A9FED5D
:10390000110A838A80EE801AC91A09B2418000EE3A
:10391000901A8388C48AF8EEE00A1B1B1BB28380CE
:1039200000ED031A80EE801A00EE903AF8EEE00AFD
:1039300000ED021A80EE801A00ED011A10BD0000A1
:10394000EC0700203333834110B5FFF79BFE802145
:103950006B2000F0F7F86420FEF7BAFA00216B2024
:1039600000F0F0F8032000F0B6F8002000F0AEF808
:103970004FF47A74204600F0CEF80021382000F091
:10398000E1F800216A2000F0DDF87021232000F02A
:10399000D9F88021372000F0D5F8752000F043F8E1
:1039A000682801D0012010BD01216B2000F0CAF869
:1039B00000216C2000F0C6F8204600F0ACF8002092
:1039C00010BD7CB514460D4606466B4606223B21CB
:1039D000682000F045F800280BD1BDF8001049BA66
:1039E0003180BDF8021049BA2980BDF8041049BAE7
:1039F00021807CBD7CB514460D4606466B460622EA
:103A00004321682000F02CF800280BD1BDF80010ED
:103A100049BA3180BDF8021049BA2980BDF80410B6
:103A200049BA21807CBD10B50446FFF7B9FED0200D
:103A3000FFF786FEFFF7F6FE2046FFF781FEFFF751
:103A4000F1FEFFF7ADFED120FFF77AFEFFF7EAFEA9
:103A50000020FFF741FE0446FFF7C2FE204610BDDE
:103A60002DE9F0411D4614460F460646FFF798FE25
:103A70007006000EFFF764FEFFF7D4FE20B1FFF7DB
:103A8000AFFE0120BDE8F0813846FFF759FEFFF791
:103A9000C9FEFFF785FE012000EB4600C0B2FFF72C
:103AA0004FFEFFF7BFFE09E0012C0DD05FF00100D3
:103AB000FFF712FE641E05F8010BE4B2002CF3D1EF
:103AC000FFF78EFE0020DDE70020F1E7C006010EC3
:103AD0001C2000F037B8C006010E1B2000F032B8E1
:103AE0000021FF2814D2BC2801D3012110E0622854
:103AF00001D302210CE02A2801D3032108E0142875
:103B000001D3042104E00A2801D3052100E00621A5
:103B10001A2000F017B810B504464FF47A708442AA
:103B200001D9044602E0042C00D20424B0FBF4F0D6
:103B3000401EC1B2192000F005F86008BDE8104031
:103B4000FFF7CEBF70B50C460546FFF729FED02023
:103B5000FFF7F6FDFFF766FE50B92846FFF7F0FDC8
:103B6000FFF760FE2046FFF7EBFDFFF75BFE18B1A5
:103B7000FFF736FE012070BDFFF732FE002070BD5A
:103B80007FB515481349002401604FF48031C0E926
:103B900001140461846111490462C0E90A14012519
:103BA000C460C56145610463FDF79EFB18B14821FF
:103BB0000BA001F016FB0820CDE900056946029430
:103BC0000548FDF701FA002803D0522104A001F0B6
:103BD00008FB7FBD00220140B40000200100000F5F
:103BE0002E2E2F5372632F6164632E63000000003A
:103BF000104810B50E4901600521416000214FF4C5
:103C000000328160C0E90312520142610122027652
:103C100041768176C17601774277FDF799FE0028DB
:103C200005D0BDE81040462103A001F0DABA10BD6E
:103C300000640040FC0000202E2E2F5372632F637F
:103C4000616E2E6300000000104810B50E4901603F
:103C50000521416000214FF400328160C0E9031268
:103C6000520142610122027641768176C176017766
:103C70004277FDF76DFE002805D0BDE810405C21BD
:103C800003A001F0AEBA10BD00680040240100207E
:103C90002E2E2F5372632F63616E2E63000000007F
:103CA000094808B5016841F48001016000680022FC
:103CB00000F48000009011463A20FEF7E5FABDE8D6
:103CC00008403A20FEF7D3BA303802402DE9F041DF
:103CD0003C4886B00024016841F040010160016861
:103CE00001F040010591016841F010010160016897
:103CF00001F010010591016841F0020101600168C5
:103D000001F002010591016841F0080101600168BC
:103D100001F008010591016841F0010101600168AD
:103D200001F001010591016841F080010160016825
:103D300001F080010591016841F0200101600068F7
:103D4000214E00F020004FF4005505900022294636
:103D50003046FEF7B5F91D4F002230213846FEF7F8
:103D6000AFF9DFF86C80002240F63C414046FEF798
:103D7000A7F900950125CDE9015469463046039421
:103D8000FEF7B8F830200090CDE901546946384676
:103D90000394FEF7AFF83C200090CDE9015469464A
:103DA00040460394FEF7A6F84FF44060CDE90005C5
:103DB0000220CDE9024069464046FEF79BF806B076
:103DC000BDE8F08130380240001802400010024087
:103DD000001C02401FB511480F494FF6FF720160E9
:103DE000592141600021C0E902120161FEF7B0FDD6
:103DF00018B1D6210AA001F0F4F94FF480500090D8
:103E000069460648FEF715FE002803D0DC2104A011
:103E100001F0E7F91FBD000000180040000200207B
:103E20002E2E2F5372632F74696D2E6300000000D5
:103E300030B5404895B03E490160B3210024C0E947
:103E4000011440F6C311C0E903144461FEF780FD7C
:103E500018B1442138A001F0C4F94FF480500E90FD
:103E60000EA93448FEF7E5FD18B14A2132A001F051
:103E7000B8F93048FEF7ABFF18B14F212EA001F082
:103E8000B0F9129412A92B481394FEF739FD18B11A
:103E9000562129A001F0A5F9602000904FF47A7511
:103EA000CDE9015403940494059400226946214805
:103EB0000694FEF724FF18B162211FA001F091F9CA
:103EC000042269461B480194FEF719FF18B16821C6
:103ED00019A001F086F9082269461648FEF70FFF7F
:103EE00018B16D2114A001F07CF90C22694611482B
:103EF0000195FEF704FF18B173210FA001F071F9CD
:103F00000794089409944FF400500A94CDE90B40AB
:103F100007A908480D94FEF7C6FC18B17F2106A03A
:103F200001F05FF90348FEF7B1FE15B030BD0000A7
:103F3000000001404C0100202E2E2F5372632F747D
:103F4000696D2E630000000010B525488EB023492E
:103F5000016059210024C0E9011440F2CF71C0E989
:103F60000314FEF7F5FC18B193211EA001F039F9F6
:103F70004FF48050079007A91948FEF75AFD18B171
:103F8000992118A001F02DF91548FEF720FF18B16E
:103F90009E2114A001F025F90B940BA910480C9454
:103FA000FEF7AEFC18B1A5210EA001F01AF96020B1
:103FB00000904FF4FA70CDE90104002269460848E8
:103FC0000494FEF79CFE18B1AE2106A001F009F999
:103FD0000348FEF75BFE0EB010BD00000008004075
:103FE000880100202E2E2F5372632F74696D2E636B
:103FF000000000001CB510480E4900240160592142
:10400000C0E9011440F2E731C160FEF7A1FC18B12C
:10401000BF210AA001F0E5F8009469460648019422
:10402000FEF76EFC002803D0C62104A001F0D9F8E9
:104030001CBD000000100040C40100202E2E2F5394
:1040400072632F74696D2E63000000000D4810B577
:104050000B4901604FF416514160002181600C2230
:10406000C160C0E904128161C161FEF789FF0028C7
:1040700005D0BDE81040462103A001F0B2B810BD44
:10408000004C00403C0200202E2E2F5372632F75EF
:10409000736172742E6300000D4810B50B49016006
:1040A0000C494160002181600C22C160C0E904120A
:1040B00081610A46C161FEF793F8002805D0BDE88A
:1040C0001040592104A001F08CB810BD001001402F
:1040D0007C020020A08601002E2E2F5372632F75C4
:1040E000736172742E6300000E4810B50C490160B4
:1040F0004FF4E1314160002181600C22C160C0E9D0
:10410000041281610A46C161FEF76AF8002805D0F1
:10411000BDE810406C2104A001F063B810BD0000A0
:1041200000440040BC0200202E2E2F5372632F75D6
:10413000736172742E6300000E4810B50C49016063
:104140004FF4E1314160002181600C22C160C0E97F
:10415000041281610A46C161FEF742F8002805D0C9
:10416000BDE810407F2104A001F03BB810BD000065
:1041700000140140FC0200202E2E2F5372632F7575
:10418000736172742E630000FEE77047D0ED000A81
:1041900090ED010A90F83C10D0ED062A30EEC00AEE
:1041A00090ED072AD0ED081AD0ED040AD1B1C0ED88
:1041B000050A90ED031A80ED041A30EE413A80EDC5
:1041C000030A63EE222A40EE022AB0EE002A01EE34
:1041D000420A30EE200A40EE212A90ED0D0A32EE1E
:1041E000800A2DE0C0ED030A80ED040A90ED021A6A
:1041F00031EE001A80ED021A90ED0C3AB4EEC31ABB
:10420000F1EE10FA06DCB1EE433AB4EEC31AF1EE69
:1042100010FA01D280ED023A22EE801A30EE600AE6
:1042200080ED091AD0ED022A20EE210A22EE222A80
:1042300080ED0A2A71EE020A80ED0B0A30EE800A48
:1042400080ED0D0AF0EE400A90ED0E0AF4EEC00A81
:10425000F1EE10FA06DCB1EE400AF4EEC00AF1EE1F
:1042600010FA01D280ED0D0A7047000000F118022B
:1042700082EC030A9FED050A80ED020AC0ED0C1ADC
:1042800080ED0E2A80F83C1070470000000000000E
:10429000704700002DE9F05FDFF870A15C482DED5C
:1042A000028B9AED080A80ED010A9FED5A0A80ED13
:1042B000000A5948FDF76EF8AAF11600574C007A2B
:1042C0004FF0000B022815D084F800B062789FED03
:1042D000548A544E544F5548554972B186ED0E8A52
:1042E00087ED0E8A80ED0E8A81ED0E8ABDEC028B81
:1042F000BDE8F09F01202070E8E79FED4E0A804660
:1043000086ED0E0A87ED0E0A80ED0E0A81ED0E0A8B
:104310002078494D8946012822D1A068B0F17F5FFD
:1043200018DD9FED460A002286ED000A87ED000A9F
:1043300088ED000A89ED000A86ED0E0A87ED0E0A67
:1043400088ED0E0A89ED0E0A29152846FDF7B8FEFC
:10435000012200E000224FF400612846FDF7B0FE84
:104360003749DAF82000884217DA20780028BDD1D2
:1043700084F802B03349A0684FF0000288424FF43D
:104380000061284603DAFDF79BFE012202E0FDF7FB
:1043900097FE00224FF480611AE0A078401CC0B262
:1043A000A0700228A2D34FF4806A0022514628460A
:1043B000FDF786FEA078032898D3A068B0F17F5F50
:1043C0000DDD002251462846FDF77AFE0122D1027A
:1043D000BDEC028B2846BDE8F05FFDF771BE86EDAF
:1043E0000E8A87ED0E8A88ED0E8A89ED0E8A0022EC
:1043F00051462846FDF764FE00224FF4006128462E
:10440000FDF75EFE0120607070E70000F8030020F9
:104410004C0700200000A042B4000020240000202F
:104420000000FA444C0600208C060020CC06002038
:104430000C07002000007A45001C02400000FA45ED
:104440000000A042CDCC4C4030B40D4B40F2FF14E4
:104450001C6000249C60DC6008241C61094B040A79
:104460001C705870080A9870D970100A18715A7127
:104470001B1F30BC1A1D02490348FDF703B800009A
:104480009C0300201C000020240100201A4800B5D5
:10449000DFED183A1949C0ED003AB1F9021000EE0B
:1044A000101AB8EEC00A80ED010AFFF76FFE12483D
:1044B00013494038C0ED003AB1F9021000EE101A6D
:1044C000B8EEC00A80ED010AFFF760FE0A489FEDD2
:1044D0000D0A40300C4980ED000AB1F9021000EEDF
:1044E000101AB8EEC00A80ED010A5DF804EBFFF780
:1044F0004DBE000000007A44CC0500203C040020A2
:104500005804002000803B454A040020704710B545
:10451000FDF7E2FDBDE81040FEF7BFB930B5274812
:1045200093B00025016841F080510160006800F0FF
:10453000805011902248016841F4404101600068B8
:10454000022400F4404011900120009000040190EA
:104550008001CDE9064006200890B420CDE9090489
:1045600004200B906846FDF7E9FF00B1FEE7FDF778
:10457000BDFE00B1FEE70CA90F2081E831004FF429
:10458000A0500F904FF48050109005210CA8FDF71B
:10459000E5FE00B1FEE7FDF779FF4FF47A71B0FB5D
:1045A000F1F0FEF766F90420FEF756F900221146F5
:1045B000501EFDF769FE13B030BD000040380240C8
:1045C000007000401048016841F4700101600F481C
:1045D000016841F0010101600C4A002108321160BC
:1045E00002680B4B1A400260031D0A4A1A600268F7
:1045F00022F48022026005480C300160024958060E
:10460000803908607047000088ED00E00038024003
:10461000FFFFF6FE1030002410B500F05FF9BDE892
:1046200010400148FEF77FBAC4010020F0B50268CF
:10463000234B244D244E254F254C4FF0804C98425F
:1046400009D0604507D0A84205D0B04203D0B84297
:1046500001D0A04204D122F0700E4A6842EA0E0254
:1046600098421BD0604519D0A84217D0B04215D04F
:10467000B84213D0A04211D0164DA8420ED0164D0C
:10468000A8420BD0154DA84208D0154DA84205D020
:10469000144DA84202D0144DA84203D122F4407513
:1046A000CA682A4302608A68C2620A6882629842C3
:1046B00001D0A04201D10969016301214161F0BD2E
:1046C000000001400004004000080040000C0040D1
:1046D0000004014000400140004401400048014006
:1046E00000180040001C00400020004010B50123CD
:1046F000046A8B409C430462036A8A40134303624A
:1047000010BD10B5846842EA032224F47F440A43B2
:104710002243826010BD826822F070020A4342F098
:10472000070181607047000030B5026A22F0010283
:104730000262026A436884690D6824F073042543A9
:1047400022F002048A6822430B4CA04202D00B4C98
:10475000A0420BD122F00804CA6823F4407322431C
:104760004C6922F004021C438B692343436085613A
:1047700049684163026230BD00000140000401400D
:1047800030B5026A22F010020262026A436884694C
:104790000D6824F4E64444EA05248D6822F02002E2
:1047A00042EA05120D4DA84202D00D4DA8420ED18D
:1047B000CD6822F0800242EA05124D6923F440637D
:1047C00043EA85038D6922F0400243EA8503436092
:1047D000846149688163026230BD000000000140CD
:1047E0000004014030B5026A22F480720262036A5A
:1047F0004268C46923F4007324F073050C682C43E9
:104800008D6843EA05230D4DA84202D00C4DA84205
:104810000ED1CD6823F4006343EA05234D6922F4E9
:10482000405242EA05128D6923F4806342EA051280
:104830004260C4614968C163036230BD0000014049
:104840000004014030B5026A22F480520262046A18
:104850004268C3690D6823F4E64343EA05238D6883
:1048600024F4005444EA0534084DA84202D0084D0F
:10487000A84204D14D6922F4804242EA8512426086
:10488000C36149680164046230BD0000000001405A
:104890000004014010B5036A046A24F001040462B4
:1048A000846924F0F00444EA021423F00A020A4363
:1048B0008461026210BD10B5036A23F01003036225
:1048C0008369046A23F4704343EA023224F0A003AC
:1048D00043EA01118261016210BD00002DE9F0413F
:1048E000554F00253D60554C6088401C6080FEF7A8
:1048F000EDFF534EB06AFBF76BFE524AC2E900016E
:104900001046FCF705FA706AFBF762FE4E4AC2E9F0
:1049100000011046FCF7FCF9FCF7AEFA60880521AF
:10492000B0FBF1F201FB120080BBFFF7AFFDFCF71B
:104930006BFA00F09FFB4548017A012902D0022959
:1049400015D023E0407A012820D14148002190ED84
:104950000D0ABDEEC00A10EE100A02B23D4890EDFD
:104960000D0ABDEEC00A10EE100A00B20CE0407A4B
:1049700001280BD13848002290ED0D0ABDEEC00A87
:1049800010EE100A01B21046FFF75EFD6088142198
:10499000B0FBF1F201FB120008B9FFF77BFC2F48D6
:1049A000017839B12178491CC9B22170642901D13B
:1049B000257005702A482B492C4A90ED0D0ABDEE52
:1049C000C00A10EE100A00B24881274991ED0D0A85
:1049D000BDEEC00A10EE101A09B25181FCF77AFA46
:1049E000234890ED0D0ABDEEC00A10EE100A03B286
:1049F000204890ED0D0ABDEEC00A10EE100A02B27A
:104A00001D4890ED0D0ABDEEC00A10EE100A01B26D
:104A10001A4890ED0D0ABDEEC00A10EE100A00B261
:104A200000F004FB6088B0F57A7F00D365803868B9
:104A3000A080BDE8F0810000241800403400002070
:104A4000B80700203808002098080020E203002062
:104A50008C050020CC0500200C060020250000203D
:104A60008C040020240400200C05002030040020C9
:104A70000C070020CC0600208C0600204C060020ED
:104A800070B50E48FEF7F4F90D4C0025256002E0E4
:104A90002068401C20600948FEF7E4F92028F7D17F
:104AA0002560084D02E02068401C20600122294654
:104AB0000248FEF7A3FB0028F5D170BD3C020020A0
:104AC000080000208604002010B5806B0021C185FD
:104AD000C184FEF7B7F910BD70B5846B20684069DA
:104AE00094F83910C0F3C0100025212904D118B161
:104AF000E584204600F046F82068406994F83A10B2
:104B0000C0F38010222904D118B1E585204600F0B9
:104B10002BF8E06B40F01000E0632046FEF792F9BE
:104B200070BD10B50146806B09680968C90513D4CA
:104B30000021C1850168CA6822F48072CA600168D8
:104B40004A6922F001024A6101684A6922F0400282
:104B50004A61202180F83A10FEF774FB10BD10B5B1
:104B6000806BFEF70FFD10BD0168CA6822F49072D9
:104B7000CA6001684A6922F001024A61202180F876
:104B80003A1070470168CA6822F0C002CA6020214A
:104B900080F83910704710B590F83A10222901D0EA
:104BA000022010BD8168B1F5805F11D00169002934
:104BB00001681FD0496801F07F03816A4A1C826244
:104BC0000B70C18D491E0904090CC18518D026E05F
:104BD0000269816A002A0268526805D0D2B20A804E
:104BE000816A491C8162ECE7C2F308020A80816A8B
:104BF000891CF7E74A68816A4B1C83620A70E0E708
:104C00000168CA6822F49072CA6001684A6922F099
:104C100001024A61202180F83A10FEF713FB0020C0
:104C200010BD00002DE9F04104460068016921F43F
:104C30004052E168114301612168C86849F20C6281
:104C400090432369A268E5691A4363692B431A43B9
:104C50000243CA602168486920F44072A069104389
:104C60004861E1696425B1F5004F9748974A21688A
:104C70004FF032083FD0914201D081427CD1FDF704
:104C80001BFC00EBC00101EB001061688900B0FB68
:104C9000F1F6FDF711FC00EBC00101EB00106168BB
:104CA0008900B0FBF1F0B0FBF5F06FF0180148435C
:104CB00006EB800108EB0110B0FBF5F000F0F00608
:104CC000FDF7FAFB00EBC00101EB00106168890001
:104CD000B0FBF1F0B0FBF5F006EB0016FDF7ECFBD6
:104CE00000EBC00101EB001061688900B0FBF1F737
:104CF000FDF7E2FBD2E0914201D081423DD1FDF7C8
:104D0000DBFB00EBC00101EB001061684900B0FB68
:104D1000F1F0B0FBF5F00601FDF7CEFB00EBC001B2
:104D200001EB001061684900B0FBF1F7FDF7C4FB2F
:104D300000EBC00101EB001061684900B0FBF1F02D
:104D4000B0FBF5F06FF01801484307EB800108EB6A
:104D5000C100B0FBF5F000F0F80006EB4006FDF7EF
:104D6000ABFB00EBC00101EB001061684900B0FB38
:104D7000F1F7FDF7A1FB3CE055E0FDF78DFB00EB03
:104D8000C00101EB001061684900B0FBF1F0B0FB1D
:104D9000F5F00601FDF780FB00EBC00101EB001010
:104DA00061684900B0FBF1F7FDF776FB00EBC0014D
:104DB00001EB001061684900B0FBF1F0B0FBF5F0C9
:104DC0006FF01801484307EB800108EBC100B0FB0E
:104DD000F5F000F0F80006EB4006FDF75DFB00EB98
:104DE000C00101EB001061684900B0FBF1F7FDF76D
:104DF00053FB00EBC00101EB001061684900B0FB00
:104E0000F1F0B0FBF5F06FF01801484307EB8001BB
:104E100008EBC100B0FBF5F000F00700216830445A
:104E20008860BDE8F081FDF737FB00EBC00101EBC6
:104E3000001061688900B0FBF1F6FDF72DFB00EB77
:104E4000C00101EB001061688900B0FBF1F0B0FB1C
:104E5000F5F06FF01801484306EB800108EB0110F4
:104E6000B0FBF5F000F0F006FDF716FB00EBC0011B
:104E700001EB001061688900B0FBF1F0B0FBF5F0C8
:104E800006EB0016FDF708FB00EBC00101EB00107C
:104E900061688900B0FBF1F7FDF7FEFA00EBC00195
:104EA00001EB001061688900B0FBF1F0B0FBF5F098
:104EB0006FF01801484307EB800108EB0110B0FBCD
:104EC000F5F000F00F00A9E70014014000100140C8
:104ED00090F83910212901D0022070478168B1F57E
:104EE000805F016A0BD04A1C026202680978516037
:104EF000C18C491E0904090CC1840ED017E0098831
:104F00000268C1F30801516001690029016A02D0F9
:104F1000491C0162ECE7891CFBE70168CA6822F0C2
:104F20008002CA600068C16841F04001C160002091
:104F300070472DE9F041984617460E460446069DF7
:104F40001DE0681C1BD02DB1FDF7C0F8A0EB0800D8
:104F5000A84214D92068C16821F4D071C1602068CA
:104F6000416921F001014161202084F8390084F871
:104F70003A00002084F838000320BDE8F081206862
:104F8000006836EA000004D00020B842D9D00020E2
:104F9000F3E70120F9E7000070B50E48FDF768FF60
:104FA0000D4C0025256002E02068401C2060094867
:104FB000FDF758FF2028F7D1256002E02068401C4B
:104FC0002060012205490348FEF718F90028F5D1B1
:104FD00070BD0000BC020020080000206604002014
:104FE00070B50E48FDF744FF0D4C0025256002E02A
:104FF0002068401C20600B48FDF734FF2028F7D1C3
:10500000256002E02068401C206001220649034818
:10501000FEF7F4F80028F5D170BD0000FC02002076
:1050200008000020BC0200203000002030B40E4CEC
:105030004FF4007525600025A560E5600825256111
:105040000A4C050A25706070080AA070E170100A09
:1050500020716271180AA071E371231F30BC1A1D00
:1050600001490348FCF70EBA9C0300201C000020F5
:10507000FC00002070B5544D544CA5F5A0762DEDE4
:10508000048BB5F9020000EE100AB8EEC00A86EDF6
:10509000010AB4F90600B4F904100844B4F9001088
:1050A0000844FBF758FA9FED4A8B53EC182BFBF79B
:1050B000E3F99FED499B53EC192BFBF76BF9FBF7D9
:1050C00068FA00B200EE100A3046B8EEC00A86ED6B
:1050D000000AFFF75BF8B5F90A00403600EE100A47
:1050E000B8EEC00A86ED010AB4F90600B4F904105E
:1050F000401AB4F900100844FBF72DFA53EC182BB2
:10510000FBF7BAF953EC192BFBF744F9FBF741FA1B
:1051100000B200EE100A3046B8EEC00A86ED000A72
:10512000FFF734F8B5F91200403600EE100AB8EE79
:10513000C00A86ED010AB4F90600B4F90410084467
:10514000B4F90010081AFBF706FA53EC182BFBF71A
:1051500093F953EC192BFBF71DF9FBF71AFA00B280
:1051600000EE100A3046B8EEC00A86ED000AFFF7DE
:105170000DF8B5F91A00803D00EE100AB8EEC00A2D
:1051800085ED010AB4F90400B4F90610401AB4F927
:1051900000100844FBF7DFF953EC182BFBF76CF910
:1051A00053EC192BFBF7F6F8FBF7F3F900B200EE1E
:1051B000100A2846B8EEC00A85ED000ABDEC048B43
:1051C000BDE87040FEF7E2BF8C070020E20300203C
:1051D0000000000000A08440000000000088B340F0
:1051E000FEE7FEE703B401984100009850EAC120B1
:1051F00018BF04204A0D18BF40F0010040F2FF72B2
:10520000B2EB515F08BF40F00200012808BF052043
:1052100002B070470907090E002804DB00F1E02006
:1052200080F80014704700F00F0000F1E02080F8D3
:10523000141D70470000000070B59B482DED020B57
:105240002DED068B079D25F00044A04218DC974801
:10525000844202DC0AD1069840B19DED060BBDECFC
:10526000068B02B0BDE8704000F0CEB9002DCCBF77
:105270009FED8F0B9FED900BBDEC068B02B070BDC8
:105280008F48A04215DD8F48A042D8BF4FF0FF34B1
:1052900058DD9DED060B51EC100BFFF7A3FF042822
:1052A00008BF00F0BDF99DED060BBDEC068B02B00A
:1052B00070BD9DED060B51EC100B00F0EBF9CDE944
:1052C000060181489FED828BA0423CDD8248A042CE
:1052D0001FDD00249FED82AB9DED060B53EC1A2BD6
:1052E00051EC100BFAF7AFFF9DED060B41EC190BDB
:1052F00053EC1A2B51EC100BFBF74CF853EC182B1A
:10530000FBF742F853EC192BFBF7B6F8CDE9060191
:1053100049E09DED060B012453EC182B51EC100BCA
:10532000FAF791FF9DED060B41EC190B53EC182B8E
:1053300051EC100BFBF728F853EC192BFBF79CF8FA
:10534000CDE906012FE06848A0421FDD02249FED51
:10535000689B9DED060B53EC192B51EC100BFBF7E2
:1053600019F853EC182BFAF76EFF9DED060B41EC84
:10537000180B53EC192B51EC100BFBF705F853EC01
:10538000182BFBF779F8CDE906010CE09DED060B33
:10539000032453EC102B9FED580B51EC100BFBF733
:1053A0006BF8CDE906019DED060B53EC102B51EC8B
:1053B000100BFAF7EFFF41EC180B53EC182BFAF730
:1053C000E9FF41EC190B4E480621B0EE490AF0EE18
:1053D000690A784400F09CF853EC182B51EC100B40
:1053E000FAF7D8FF41EC180B4648B0EE490AF0EE48
:1053F000690A0521784400F08BF853EC192B51EC25
:10540000100BFAF7C7FF41EC100B51EC180B53ECE3
:10541000102B002C0EDAFAF716FF9DED061B53EC4D
:10542000112BFAF7B7FF9DED061B53EC112BFAF782
:10543000AEFF35E0FAF707FF9DED061B53EC112B8D
:10544000FAF7A8FF41EC100B2F48784400EBC4009A
:1054500090ED001B51EC100B53EC112BFAF794FF5D
:105460009DED061B53EC112BFAF78EFF41EC100B50
:105470002648784400EBC40090ED001B51EC100B63
:1054800053EC112BFAF783FF41EC100B002DA2BF58
:10549000BDEC068B02B070BD51EC100B81F00041E9
:1054A00041EC100B01E70000000010440000F07F09
:1054B000182D4454FB21F93F182D4454FB21F9BF0A
:1054C0000000DC3F0000203E0000F33F0000000031
:1054D000000000000000F03F0000E63F0000000078
:1054E00000000000000000400080034000000000B9
:1054F000000000000000F83F000000000000F0BFC6
:105500005A060000100600009A050000520500002F
:1055100070B504462DED028B4D1E00EBC500B0EEBC
:10552000408AF0EE608A90ED000B35F0060017D04F
:1055300053EC182B51EC100BFAF72CFF41EC100B2D
:105540006D1E04EBC50090ED001B51EC100B53ECED
:10555000112BFAF778FE41EC100B35F00600E7D17D
:10556000022D36D0042D1CD0062D1CBFBDEC028BA5
:1055700070BD53EC182B51EC100BFAF70BFF94EDA8
:105580000A1B53EC112BFAF75EFE53EC182BFAF7BB
:1055900001FF94ED081B53EC112BFAF754FE41EC7C
:1055A000100B53EC182B51EC100BFAF7F3FE94EDA3
:1055B000061B53EC112BFAF746FE53EC182BFAF7A7
:1055C000E9FE94ED040B53EC102BFAF73CFE41EC92
:1055D000100B53EC182B51EC100BFAF7DBFE94ED8B
:1055E000021B53EC112BFAF72EFE53EC182BFAF793
:1055F000D1FE94ED001B53EC112BFAF724FEBDEC09
:10560000028B41EC100B70BD10B553EC102B51EC1C
:10561000100BFAF718FE41EC100B10BD0000000053
:105620009FED050B10B553EC102B51EC100BFAF756
:10563000B1FE41EC100B10BD000000000000001096
:1056400002E008C8121F08C1002AFAD1704770474B
:10565000002001E001C1121F002AFBD170470000A9
:1056600070B54FF0E024002265690949A369097803
:105670004843A1699942FCD002D2A3EB010302E0A6
:10568000A5EB010633441A440B468242F1D370BDA8
:105690005000002082B0CDE9000121F000400190CF
:1056A0009DED000B02B051EC100B70472DED048BFB
:1056B00086B0FCF719FD574900204870FEF72EFF11
:1056C00000F0C4F8FEF702FBFEF7EAFAFEF790FAE4
:1056D000FEF73AFCFEF78EFCFEF7B8FCFEF7DCFCAA
:1056E000FEF72AFDFEF700FDFEF7A2FBFEF772FBB8
:1056F000FEF746FAFEF7A8FA002201213620FCF751
:10570000C3FD3620FCF7B3FD002211464720FCF70D
:10571000BBFD4720FCF7ABFD12223F493F48FDF798
:1057200021FD3F48FDF779F9FBF704FAFBF73EFA54
:105730003C4C012204212046FCF7C2FC012210212E
:105740002046FCF7BDFC012208212046FCF7B8FCEE
:10575000012220212046FCF7B3FC4FF47A70FCF7BD
:10576000B7FBFEF7F1F83048FDF74AF900212F4862
:10577000FDF74AFB0C212D48FDF746FB04212B4881
:10578000FDF742FB08212948FDF73EFB284C4FF46A
:10579000487565632564A563E56301221D492548B5
:1057A000FDF72CFD244FDFED258ADFF894809FED77
:1057B000258A254EB7EE009A40F2AA5940F29E7A09
:1057C00097ED080A18218DED000ACDED018A8DEDC7
:1057D000029A98ED000A68468DED030A8DED048A61
:1057E0008DED058A00F040F8307A012808D00228B3
:1057F0000BD00328E4D165632564A563E563DFE787
:10580000C4F83490C4F84090DAE7C4F838A0C4F87B
:105810003CA0D5E730000020D00300207C0200200F
:10582000C4010020001C0240000200204C010020A6
:1058300000000140FC020020F80300200000484264
:105840002C00002000000000E203002010B5FBF750
:105850008FF804484FF6300181804FF2B821C180A3
:1058600010BD0000240000207CB504460DA00D46AC
:10587000006800900CA041F2883600680190334621
:10588000022269460948FDF77EFEAAB23346214648
:105890000648FDF778FE3346022201A90348FDF7CA
:1058A00072FE7CBD03FC0000FC0300003C020020F3
:1058B00070B5344901F112020888C0F30A05A5F554
:1058C0008065158048788B78C00840EA4310C0F3A3
:1058D0000A00A0F580605080CC789B0943EA8404DC
:1058E0000B7944EA8324C4F30A04A4F58064948009
:1058F0005C084B7944EAC314C4F30A04A4F5806439
:10590000D4809C091472C3F301135372CB88538162
:105910000B8993814B89D3810B7B13744B7B53741D
:10592000CB895382098A9182FAF715FE9FED161BE7
:1059300053EC112BFAF787FCFAF72BFE144C06B246
:105940002846A680FAF707FE9FED121B53EC112B99
:10595000FAF71DFDFAF71DFE01B21048E1808642FC
:1059600000DAA080B4F904300D4A934200DDA28031
:105970000C4A914200DAE280B4F90610814200DD5F
:10598000E08070BDD00300200000000000409FC0F8
:1059900024000020000000000090AAC0D8F5FFFFFE
:1059A00088FAFFFF98EFFFFF0000000000000000F2
:1059B00001020304060708090000000001020304B5
:1059C00000061016000610164FBB610567ACDD3FE0
:1059D000182D4454FB21E93F9BF681D20B73EF3F16
:1059E000182D4454FB21F93FE2652F227F2B7A3C8E
:1059F000075C143326A6813CBDCBF07A8807703C47
:105A0000075C143326A6913CC4EB98999999C9BFB9
:105A1000711623FEC671BCBF6D9A74AFF2B0B3BFEE
:105A20009AFDDE522DDEADBF2F6C6A2C44B4A2BFAE
:105A30000D5555555555D53FFF8300922449C23F1A
:105A40006E204CC5CD45B73F513DD0A0660DB13F4E
:105A5000EB0D76244B7BA93F11DA22E33AAD903F60
:105A6000805A000800000020B400000040560008E2
:105A7000345B0008B4000020440C000050560008BD
:105A80000000000000000000000000000000000016
:105A9000000000000024F4000000000000000000EE
:105AA00000000000000000000000000000000000F6
:105AB00000000000000000000000000000000000E6
:105AC00001000000000000000000000000000000D5
:105AD000000000000000000067D4F0DF0705213F50
