:020000040800F2
:10000000180C0020C1010008C3380008AF2E0008FA
:10001000C1380008B9090008914600080000000036
:10002000000000000000000000000000393B000854
:10003000910D000800000000AD3A00083B3B0008AD
:10004000DB010008DB010008DB010008DB01000820
:10005000DB010008DB010008DB010008DB01000810
:10006000DB010008DB010008DB010008DB01000800
:10007000DB010008DB010008DB010008DB010008F0
:10008000DB010008DB010008DB010008290A000889
:10009000F9090008DB010008DB010008DB010008AA
:1000A000DB010008DB010008DB010008DB010008C0
:1000B000DB010008DB010008DB010008DB010008B0
:1000C000DB010008DB010008DB010008DB010008A0
:1000D000DB010008DB010008D1440008DB01000857
:1000E000DB010008DB010008DB010008DB01000880
:1000F000DB010008DB010008DB010008DB01000870
:10010000DB010008DB010008DB010008DB0100085F
:10011000B93F0008DB010008453C0008DB0100088E
:10012000DB010008DB010008D90C0008DB01000836
:10013000DB010008DB010008DB010008DB0100082F
:10014000DB010008DB010008DB010008DB0100081F
:10015000DB010008DB010008DB010008194500088D
:10016000DB010008DB010008DB010008DB010008FF
:10017000DB010008DB010008DB01000800000000D3
:10018000DB010008DB010008DB010008DB010008DF
:10019000DB010008DB010008DB010008DB010008CF
:1001A0000000000000000000DB010008DFF80CD0B8
:1001B00000F026FB004800473D4B0008180C0020CB
:1001C0000648804706480047FEE7FEE7FEE7FEE7F1
:1001D000FEE7FEE7FEE7FEE7FEE7FEE7F13B00088D
:1001E000AD0100082DE9F05F0546002092469B46D0
:1001F00088460646814640241BE02846414647463D
:10020000224600F046FA53465A46C01A914110D38E
:1002100011461846224600F02DFA2D1A67EB010808
:100220004F4622460120002100F024FA17EB000976
:100230004E41201EA4F10104DFDC484631462A4627
:100240004346BDE8F09F2DE9FE4F804681EA03005A
:10025000C00F0C46009021F0004123F00045B8EBA0
:100260000200A94105D24046214690461C460B4655
:10027000024623F00040104347D0270DC7F30A0081
:10028000C3F30A510290401A019040286BDAC3F37D
:10029000130040F4801B0098924620B10023D2EB5B
:1002A000030A63EB0B0B01985946C0F1400250461C
:1002B00000F0E0F906460D4650465946019A00F016
:1002C000F8F910EB08006141002487EA115284EA32
:1002D000E7731A4340D0009A62B3019A012A4FEAA9
:1002E000075215DC001B61EB02014FF0004202EAED
:1002F0000752CDE90042001C41F5801132462B46E1
:1003000000F02FFA03B0BDE8F08F40462146F9E730
:10031000001B61EB0201001C41F5801300185B41DA
:100320002018A2F5001747EB030140EAD570B61973
:100330006D4111E06D084FEA360645EAC0754FEA97
:100340000752001B61EB0201001C41F580114908B6
:100350004FEA30000019514132462B4603B0BDE848
:10036000F04F00F0EFB90098012240000023D0EBDD
:10037000020263EBE073009821464FEAE074B8EBA9
:10038000000061EB0401E9E783F000435BE781F0E3
:10039000004158E72DE9FE4F81EA030404F00044D0
:1003A00021F0004100944FF0000B23F0004350EA8D
:1003B00001045ED052EA03045BD0C3F30A54C1F3D4
:1003C0000A552C44A4F2F3340194A0FB0254C1F367
:1003D000130141F48011C3F3130343F4801301FBB1
:1003E000024400FB034E840A970A44EA815447EA18
:1003F0008357A4FB076802958D0A05FB07854FEA22
:10040000932C04FB0C542705029D4FEA065847EA3B
:100410001637B5EB08056EEB070C870E920E47EA10
:10042000811742EA8312A7FB0201B6EB0B0164EBD2
:1004300000042B0D43EA0C335E1844EB1C50DA46E3
:100440005146E7FB0201C5F313044FEA0B3343EABD
:1004500014534FEA0432019C43EA0603A4F10C044E
:100460000294009CCDE900B400F07BF903B0BDE834
:10047000F08F00200146F9E72DE9F04D81EA0304F1
:1004800004F0004B21F0004514464FF0000A23F021
:10049000004150EA050220D054EA01021DD0C5F304
:1004A0000A570246C5F31303C1F31300C1F30A56FA
:1004B00040F4801543F48013A7EB0608101BD646C2
:1004C00008F2FD3873EB050002D308F1010801E0E2
:1004D00092185B41B8F1000F03DA00200146BDE835
:1004E000F08D00204FF48011064684460EE0171B65
:1004F00073EB050705D3121B63EB050306434CEAB8
:10050000010C49084FEA300092185B4150EA01079C
:10051000EDD152EA030012D082EA040083EA050119
:10052000084305D0101BAB4106D20122002306E090
:1005300000224FF0004302E06FF0010253101AEB6B
:1005400006004CEB085110EB0A0041EB0B01BDE833
:10055000F04D00F0F7B80EB5C10F80EAE070084426
:10056000CA07002140F233438DE80E000A460B46CD
:1005700000F0F7F803B000BD70B5C1F30A5201F006
:1005800000450024C1F3130140F2FF3341F4801110
:100590009A4201DA002070BD40F233439A42A2F23F
:1005A000334203DC524200F074F800E090402C43E8
:1005B000F1D0404270BD00F0004230F000400AD05F
:1005C000C10D01F56071C0F3160042EA0151C20885
:1005D00040071143704700200146704730B5041EA4
:1005E00071F1000404DB4FF00044404264EB010170
:1005F000141E73F1000405DB1C464FF00043524209
:1006000063EB04038B4208BF824230BD30B5041E49
:1006100071F1000404DB4FF00044404264EB01013F
:10062000141E73F1000405DB1C464FF000435242D8
:1006300063EB0403994208BF904230BD01F00043D0
:1006400030B421F0004150EA010206D00A0DA2F5B3
:100650006072C1F31301002A02DC30BC0020704735
:10066000440F44EAC104C100E01830BC00EBC250A2
:1006700000F031B8202A04DB203A00FA02F1002011
:1006800070479140C2F1200320FA03F319439040D0
:100690007047202A04DB203A21FA02F0002170473B
:1006A00021FA02F3D040C2F12002914008431946DA
:1006B0007047202A06DBCB17203A41FA02F043EAC2
:1006C000E07306E041FA02F3D040C2F1200291400B
:1006D0000843194670470029A8BF7047401C4900CD
:1006E00008BF20F00100704710B4B0FA80FC00FA97
:1006F0000CF050EA010404BF10BC704749B1CCF1C2
:10070000200421FA04F411FA0CF118BF012121434D
:100710000843A3EB0C01CB1D4FEA00614FEA102008
:1007200042BF002010BC704700EBC35010440029AA
:10073000A4BF10BC7047401C490008BF20F0010056
:1007400010BC704710B5141E73F1000408DA401C89
:1007500041F1000192185B411A4301D120F00100E0
:1007600010BD2DE9F04D92469B4611B1B1FA81F2D0
:1007700002E0B0FA80F220329046FFF77BFF044699
:100780000F4640EA0A0041EA0B0153465A46084325
:1007900013D0114653EA010019D0C8F14002504667
:1007A000FFF777FF05460E46504659464246FFF78B
:1007B00061FF084305D0012004E020463946BDE82A
:1007C000F08D0020054346EAE0762C4337430A9833
:1007D0006305E40AA0EB08000022FD0A44EA47543E
:1007E0000A3002D500200146E9E7010510196941E8
:1007F000DDE9084500196941BDE8F04DA2E70000B8
:10080000064C074D06E0E06840F0010394E807005D
:1008100098471034AC42F6D3FFF7CCFCF84E0008F2
:10082000184F000800B500219FED562A9FED564A4B
:10083000F0EE441ADFED552ABFEE080A5448B0EE38
:10084000621AF0EE620A03F01FF90021DFED513A5F
:10085000B0EE632ADFED501AB0EE621ADFED4F0AF8
:100860004B48B0EE080A403803F00EF900219FED26
:100870004C3A4748F0EE441AB0EE432AB0EE621A02
:10088000F0EE620AB0EE000A803003F0FDF80021BD
:10089000B0EE632ADFED431AB0EE621ADFED420AD2
:1008A0003B48B1EE040A403003F0EEF80021B0EE10
:1008B000632AF0EE431AB0EE621AF7EE000AB0EEC9
:1008C000000A3A4803F0E0F838480021B0EE632A05
:1008D000F0EE431AB0EE621AF7EE000AB0EE000A2C
:1008E000403003F0D1F831480021B0EE632AF0EE39
:1008F000431AB0EE621AF7EE000AB0EE000A403872
:1009000003F0C2F89FED2A4A28480021B0EE632A7E
:10091000F0EE431AB0EE621AF0EE440AB0EE000AAE
:10092000803003F0B1F821480021B0EE632AF0EEE8
:10093000431AB0EE621AF0EE440AB0EE000AC0307C
:1009400003F0A2F80021B0EE632AF0EE431AB0EEF5
:10095000621AF0EE440AB0EE000A164803F094F86A
:1009600014480021B0EE632AF0EE431AB0EE621A8A
:10097000F0EE440AB0EE000A40305DF804EB03F0FC
:1009800083B80000000048440000964300000000C7
:100990001C0400200000FA440000C8426F12833B90
:1009A00000007A440000C843A69BC43B1C050020FD
:1009B000CDCCCC3D1C060020FEE7000000B58BB07E
:1009C00000200121CDE906010390089104900090D8
:1009D0000E2101900290099105906946054800F0AA
:1009E00051FA0221034800F0D4F9024800F014FD46
:1009F0000BB000BDA000002010B5084B084A002134
:100A0000084800F0C6FA054A0549064800F012F801
:100A1000BDE81040034800F039BB0000040000208E
:100A200030030020A0000020014800F02FBB000090
:100A3000A000002010B509683248A1F201214FF44E
:100A400080530A2911D2DFE801F005111D2935393B
:100A50003D10454E118849BA0180518849BA4180FC
:100A6000918849BA81809179C18010BD118849BAB5
:100A70000181518849BA4181918849BA818191792E
:100A8000C18110BD118849BA0182518849BA418299
:100A9000918849BA81829179C18210BD118849BA81
:100AA0000183518849BA4183918849BA81839179F8
:100AB000C18310BD108841BA134806E0108841BABE
:100AC000124802E0108841BA11480180518849BAA1
:100AD000418010BD108841BA0E4807E09942F8D90C
:100AE000A1F50051F4E7108841BA0B489942018002
:100AF000548864BA8480928852BAC280EED289B295
:100B0000E6E700009C0600208C0300209A030020EA
:100B1000A803002074030020800300202DE9F04189
:100B200004462DED028B042004EBC001401E91ED24
:100B30000A0B002881ED0C0B91ED000B81ED020BEF
:100B4000F2DC94ED001B224F84ED021B53EC112BC1
:100B500097ED000B51EC100BFFF71CFC012507F182
:100B60002808C4E90C0100BF04EBC50608EBC5006A
:100B700096ED0C1B90ED000B53EC112B51EC100B70
:100B8000FFF708FC41EC180B07EBC50096ED020BD4
:100B900090ED001B53EC102B51EC110BFFF7FAFBFF
:100BA00094ED0C1B53EC112BFFF74DFB53EC182B62
:100BB000FFF7EAFB6D1C052DC4E90C01D4DB94EDB5
:100BC0000C0B84ED160BBDEC028BBDE8F081000030
:100BD00050000020164810B5B0F90200164900EE8A
:100BE000100A1448B8EEC00A80ED010AB1F90010ED
:100BF00000EE101AB8EEC00A80ED000A02F072FE94
:100C00000E480F49B0F9020000EE100A0948B8EE8C
:100C1000C00A803080ED010AB1F9001000EE101A10
:100C2000B8EEC00A80ED000ABDE8104002F05ABEDE
:100C3000740300201C0400202800002080030020F2
:100C40002A000020134810B590ED160B51EC100B44
:100C5000FFF7F4FC1049486001F1400090ED0D0AE7
:100C6000403881ED000A02F03DFE0C4890ED160B75
:100C700051EC100BFFF7E2FC07498031486001F1AD
:100C8000400090ED0D0A403881ED000ABDE81040AB
:100C900002F028BEB8070020DC030020580700201F
:100CA0000A4A40F2FF23136000239360D3600823B5
:100CB0001361074A030A13705070080A9070D170CC
:100CC000131F0249034800F078B800001803002001
:100CD00020000020A000002010B5034800F0E2FB37
:100CE000BDE8104004F02CB8B802002001681823B9
:100CF000CAB2103AB2FBF3F2054B6FF30901032AB3
:100D00009B5CC36500D9091D8165084670470000DA
:100D1000404E000810B5014600208B698A6A4FF0EA
:100D2000C07453B1B3F5005F15D072B1012A0CD075
:100D3000022A0AD0032A09D104E01AB1012A06D0F6
:100D4000022A03D1C96AC90100D5012010BDC96AB0
:100D5000A142FAD010BD002AF7D0012AF2D0022A0F
:100D6000F3D0032AF3D010BD30B50468256825F40C
:100D700080252560046863608368402B036803D086
:100D800099600068C26030BD9A600068C16030BD83
:100D9000704790F82020012A09D090F82020022ADC
:100DA00005D0416A41F4802141620120704700680A
:100DB00042690A43426100207047F0B590F8204034
:100DC000012C07D090F82040022C03D0416A41F456
:100DD000802153E00468A5686D0105D4A5682D0144
:100DE00002D4A568ED0046D5A4680125C4F30164CA
:100DF000A5401D608D684FF4C0739DB1CE6835432A
:100E00004E6845EAC605066803EB0417F5514FF432
:100E1000C275076805EB04150E697E51097D01292D
:100E200005D009E00E88CD6845EA4655EBE7016834
:100E30004E5946F480764E511179D2F805504FF450
:100E4000C67641EA0521056806EB0416A95111781A
:100E5000D2F801204FF4C47541EA0221026805EB83
:100E600004155151006803EB0411425842F001028D
:100E700042500020F0BD416A41F40011416201205E
:100E8000F0BD000010B590F82020012A09D090F89C
:100E90002020022A05D0416A41F4802141620120CC
:100EA00010BD3A48D0F8002242F00102C0F80022FA
:100EB000D0F8002222F47C52C0F80022D0F80022A0
:100EC0004B6A42EA0322C0F800220B7D01229A40BD
:100ED000D0F81C329343C0F81C32CB69B3B9D0F8B8
:100EE0000C329343C0F80C328C894B6864F31F4377
:100EF0004C6900EBC404C4F840320C890B6864F3FD
:100F00001F434C6900EBC404C4F84432CB69012B85
:100F100016D1D0F80C321343C0F80C320C884B6851
:100F200064F31F434C6900EBC404C4F840320C89DD
:100F3000CB6864F31F434C6900EBC404C4F844322B
:100F40008B69002BD0F804320ED01343C0F8043262
:100F50000B69002BD0F8143208D01343C0F81432B8
:100F6000096A012904D008E09343EFE79343F5E7CA
:100F7000D0F81C121143C0F81C12D0F8001221F056
:100F80000101C0F80012002010BD00000064004004
:100F9000704730B590F82040012C07D090F82040E1
:100FA000022C03D0416A41F4802109E011B10129EA
:100FB00009D00CE00468E46807E0416A41F40011DC
:100FC0004162012030BD04682469A407F5D04FF4C4
:100FD000D874056804EB01142D5915F004059560CB
:100FE00005682D5942D0ED08556005682C59C4F3A9
:100FF0004004D4604FF4DA74056804EB01142D59F1
:1010000005F00F05156105682D59C5F30725956194
:1010100005682C59240C54614FF4DC72046802EB0F
:101020000112A4581C700468A458240A5C70046857
:10103000A458240C9C700468A258120EDA704FF465
:10104000DE72046802EB0112A4581C710468A458F3
:10105000240A5C710468A458240C9C710468A2588A
:10106000120EDA7129B1012909D00DE06D0D15605C
:10107000BBE70068C16841F02001C16004E000687E
:10108000016941F020010161002030BD2DE9F05FD0
:101090000546006800244669D0F804908768D0F8B7
:1010A0000CB0D0F810A0D0F81880F10748D0F9079C
:1010B00014D001218160B80703D5284600F0D9F982
:1010C0000CE0780702D54FF4006407E0380702D53A
:1010D0004FF4805402E0284600F0CAF9F80516D50E
:1010E00029684FF480708860B80503D5284600F061
:1010F000C2F90CE0780502D544F4005407E0380545
:1011000002D544F4804402E0284600F0B3F9F80325
:1011100016D529684FF480308860B80303D5284677
:1011200000F0ABF90CE0780302D544F4004407E08A
:10113000380302D544F4803402E0284600F09CF9DC
:10114000300707D55FEACB6004D52968102044F446
:101150000074C86070074FF0080707D55FEA0B708E
:1011600004D52868C760284600F050F9B00706D5B6
:101170002868C068800702D0284600F048F9700649
:1011800007D55FEACA6004D52968102044F480645A
:101190000861B00607D55FEA0A7004D528680761C0
:1011A000284600F035F9F00606D528680069800762
:1011B00002D0284600F02DF9B00308D55FEAC960D7
:1011C00005D5296810204860284600F023F9F0036F
:1011D00007D55FEA097004D528684760284600F003
:1011E0004DF9300446D55FEA497040D5F00504D585
:1011F0005FEAC87001D044F00104B00504D55FEA8D
:10120000887001D544F00204700504D55FEA487087
:1012100001D544F00404300529D518F0700F26D00C
:1012200008F07000402815D006DC102809D02028CE
:101230000AD0302816D10AE050280ED0602811D1EB
:101240000EE044F008040DE044F010040AE044F01D
:10125000200407E044F0400404E044F0800401E08E
:1012600044F480742868816921F0700181612968E3
:1012700004204860002C05D0686A20436862284634
:10128000FFF786FEBDE8F09F70B5040003D094F828
:10129000200010B104E0012070BD204600F082F86B
:1012A0002068016821F00201016000F06FFB054633
:1012B000052604E000F06AFB401B0A2811D82068CC
:1012C00040688007F6D42068016841F001010160A0
:1012D00000F05CFB05460BE000F058FB401B0A28C1
:1012E00006D9606A40F40030606284F82060D2E77A
:1012F00020684068C007EFD0207E01282068016880
:101300003DD021F080010160607E012820680168E5
:1013100038D021F040010160A07E012820680168DA
:1013200033D021F020010160E07E012820680168AF
:101330002ED041F010010160207F01282068016853
:1013400029D021F008010160607F01282068016830
:1013500024D021F004010160D4E902010843D4E95A
:101360000412114308436168491E08432168C8619B
:1013700000206062012084F82000002070BD41F050
:101380008001C0E741F04001C5E741F02001CAE714
:1013900021F01001CFE741F00801D4E741F004014A
:1013A000D9E7000000B50068154987B0884225D10B
:1013B00014480021026842F00072026000680222B4
:1013C00000F0007005900320CDE90210CDE9000285
:1013D0000920049069460C4800F0ECF900221146FF
:1013E000132000F0AFFB132000F0A1FB002201212D
:1013F000142000F0A7FB142000F099FB07B000BDFB
:101400000064004040380240000C024070477047C2
:10141000704770477047000070B5044690F8200090
:10142000012804D0606A40F40020606218E00220C5
:1014300084F820002068016821F00101016000F0BB
:10144000A5FA05460EE000BF00F0A0FA401B0A28EE
:1014500008D9606A40F400306062052084F82000FA
:10146000012070BD20684068C007EDD1606270BD8A
:10147000704770477047704770477047704790F8E3
:101480003510022903D080214165012070470521D4
:1014900080F835100068016821F00101016000202A
:1014A000704700002DE9F84304464FF00009CDF8DD
:1014B000009063484FF41651A56D0068B0FBF1F73A
:1014C0002E6894F85C10082000FA01F131420FD028
:1014D00021680A6852070BD50A6822F004020A60E4
:1014E00094F85C108840A860606D40F00100606571
:1014F00094F85C104FF0010808FA01F0304208D06F
:1015000021684969090604D5A860606D40F00200B1
:10151000606594F85C1004208840304208D021684F
:101520000968890704D5A860606D40F00400606513
:1015300094F85C1010208840304218D02168096867
:10154000090714D5A86020680168490304D500681C
:10155000000308D5A16C07E00168C90503D4016840
:1015600021F008010160216C09B12046884794F8F8
:101570005C1020208840304231D021680968C906BB
:101580002DD5A86094F8350005282068016806D09C
:10159000490347D5006800031DD4616C1CE021F0AD
:1015A000160101602068416921F080014161206CD1
:1015B00008B9A06C20B12068016821F00801016021
:1015C00094F85C103F208840A86084F8349084F838
:1015D0003580216D1FE0E16B09B120468847606DC1
:1015E00000282BD0606DC00714D0052084F835008A
:1015F0002068016821F0010101600098401C009002
:10160000B84203D820680068C007F6D184F8349047
:1016100084F83580E16C002910D001B02046BDE887
:10162000F04308470168C905D5D4016821F01001CD
:10163000016084F8349084F83580CCE7BDE8F88305
:10164000180000202DE9F041044600F09FF90646FD
:101650005CB1002584F83450022084F835002068FD
:10166000016821F0010101600DE00120BDE8F08179
:1016700000F08CF9801B052805D920206065032027
:1016800084F83500F2E720680068C007F0D12268CE
:10169000116820480140D4E901031843D4E9033616
:1016A0003343184363691843A3691843E369184334
:1016B000236A18430843616A042903D1D4E90B1350
:1016C00019430843106020684069666A20F00701EA
:1016D00030460E43012704280CD1A06A0643E06A75
:1016E00040B12046FFF716FB20B14020606584F82A
:1016F0003570BAE7206846612046FFF7F7FA94F89C
:101700005C203F2191408160656584F83570002040
:10171000ACE700003F8010F02DE9F0410446866DF3
:1017200090F83400002501280DD0012084F8340001
:1017300094F835700020012F07D084F8340002257A
:101740002846BDE8F0810220FBE7022784F83570C7
:1017500060652046FFF708FB94F85C103F20884046
:10176000B0602068016841F016010160206841699D
:1017700041F080014161206C20B12068016841F096
:10178000080101602068016841F001010160D7E7AC
:1017900070B5044600F0FAF80546601C02D0044813
:1017A0000078044400F0F2F8401BA042FAD370BD68
:1017B0000C0000202DE9F84FDFF890B100224FF027
:1017C00001084FF0030A4FF00F090BF1040E00BFA0
:1017D0000B6808FA02F42340A3426ED14D68022D33
:1017E00001D0122D0ED1D50800EB850CDCF820506D
:1017F0005607F70E09FA07F6B5430E69BE402E43A9
:10180000CCF82060066855000F790AFA05FC07F04D
:10181000030726EA0C06AF40374307604E68012EE7
:1018200005D0022E03D0112E01D0122E0ED18768C2
:10183000CE6827EA0C07AE403E4386604668A64362
:101840000C79C4F30014944034434460C4688E6837
:1018500024EA0C04AE402643C6604C68E4006FD511
:101860003B4C256845F480452560246822F003053B
:1018700004F480440094374C2E19D6F80848950794
:101880002F0F09FA07F5AC43334DA84201D10025CB
:101890002EE0324DA84201D1012529E0304DA84269
:1018A00001D1022524E02F4DA84201D103251FE0DC
:1018B0002D4DA84202D104251AE041E02B4DA8424B
:1018C00001D1052514E02A4DA84201D106250FE0DB
:1018D000284DA84201D107250AE0274DA84201D191
:1018E000082505E0254DA84201D1092500E00A257B
:1018F000BD402543C6F80858DBF800405D464E68F9
:101900009C43F60300D51C432C60DEF8004075466E
:101910004E689C43B60300D51C432C600B4D083524
:101920002C684E689C43F60200D51C432C60074D82
:101930000C352C684E689C43B60200D51C432C60C5
:10194000521C102AFFF444AFBDE8F88F003C014060
:1019500044380240003001400000024000040240D0
:1019600000080240000C0240001002400014024037
:1019700000180240001C02400020024000240240E7
:101980000AB1816170470904FBE7000001488068E3
:10199000704700000C000020024881680278114462
:1019A000816070470C0000200B4810B5016841F4BD
:1019B00000710160016841F480610160016841F4D7
:1019C00080710160032000F0DDF8002000F006F8CF
:1019D00000F024F8002010BD003C024070B50D4D11
:1019E00004464FF47A712878B1FBF0F00A4909688F
:1019F000B1FBF0F000F09BFB48B9102C07D200229D
:101A00002146501E00F09EF800206C6070BD012041
:101A100070BD00000C000020180000201F4808B511
:101A2000016841F480410160006800F4804000904A
:101A30001A48001F016841F080510160006800F001
:101A400080500090032000F09DF8002211466FF0B6
:101A50000B0000F077F8002211466FF00A0000F04A
:101A600071F8002211466FF0090000F06BF80022B7
:101A70001146501F00F066F800221146101F00F0BA
:101A800061F800221146901E00F05CF80022BDE8CB
:101A900008401146501E00F055B80000443802407E
:101AA0002DE9F04116460F46040004D094F83900A1
:101AB000002518B107E00120BDE8F08184F8385016
:101AC000204600F0EDFE242084F839002068C1682B
:101AD00021F40051C160204602F040FB20680169FA
:101AE00021F4904101612068416921F02A0141619E
:101AF0002068016921F00F01016120680169394303
:101B000001612068C16821F40061C1602068C1687A
:101B10003143C1602068C16841F40051C160E56390
:101B2000202084F8390084F83A000020C4E700F04F
:101B30001F02012191404009800000F1E020C0F81F
:101B400000117047F0B40E4B1B680C46C3F3022320
:101B5000C3F10705042D00D90425191D072901D259
:101B6000002300E0DB1E012606FA05F1491E214094
:101B700099409E40761E16403143F0BC01F0A2BE53
:101B80000CED00E0064900F0070208684FF6FF037D
:101B9000184040EA0220034A1043086070470000E2
:101BA0000CED00E00000FA052DE9F8431748016844
:101BB00041F0805101600068154F00F0805001260F
:101BC00000903E64FFF7E2FE05464FF47A78114C30
:101BD00005E000BFFFF7DAFE401B40450DD8606806
:101BE000C003F7D57E64FFF7D1FE0546464607E001
:101BF000FFF7CCFE401BB04202D90320BDE8F883BA
:101C000060688003F4D50020F8E700004038024007
:101C100000000E42007000402DE9F0470E4605001E
:101C200065D0DFF81481D8F80000F7B200F00F009B
:101C3000B04207D288F80070D8F8000000F00F001A
:101C4000B04254D128683D4C810712D5400703D5D6
:101C5000206840F4E05020602878000703D5206811
:101C600040F4604020602068A96820F0F00008433C
:101C700020602878C0072DD03049686808390128CD
:101C800012D0022813D0032811D00968890700292F
:101C90002DDA216821F0030101432160FFF776FE70
:101CA000814641F2883A0EE009688903EFE7096846
:101CB0008901ECE7FFF76AFEA0EB0901514502D963
:101CC0000320BDE8F0872068696800F00C00B0EBE5
:101CD000810FEFD1D8F80010404601F00F01B1425A
:101CE00007D90770006800F00F00B04201D0012052
:101CF000E7E72878400705D52068E96820F4E05038
:101D0000084320602878000706D52068296920F458
:101D1000604040EAC100206000F03CF82168084AB9
:101D2000C1F30311515CC840064908600020FFF769
:101D300055FE0020C5E70000003C02400838024084
:101D4000484E000818000020014800687047000055
:101D5000180000200448054900680968044AC1F3D6
:101D60008221515CC84070471800002008380240AA
:101D7000584E00080448054900680968044AC1F340
:101D80004231515CC84070471800002008380240BA
:101D9000584E0008154810B5006810F00C021448A1
:101DA00013D01449042A0FD0082A0ED10F4C241F37
:101DB0002268236802F03F025B0207D52068C0F367
:101DC0008810A0FB010106E0084610BD2168C1F3A0
:101DD0008811A1FB00010023FEF704FA2168C1F37A
:101DE0000141491C4900B0FBF1F010BD0838024028
:101DF0000024F400001BB7002DE9F84F050076D051
:101E00002878DFF8F8B2BE4CC00749D0DBF80010E4
:101E10005846C1F38101012908D00068C0F3810050
:101E200002280AD1201D0068400206D520688003E0
:101E300036D568680028E2D032E06868B0F5803FA7
:101E400010D0B0F5A02F206810D020F48030206092
:101E5000206820F4802020606868A0B1FFF796FD1C
:101E600006460CE0206840F48030F4E740F480201F
:101E70002060F7E7FFF78AFD801B642873D820688D
:101E80008003F7D50CE0FFF781FD064605E000BFB3
:101E9000FFF77CFD801B6428F0D820688003F7D40E
:101EA0002878DFF8608280074FF000093ED5DBF824
:101EB0000010584611F00C0F09D00068C0F38100E3
:101EC00002280BD18D48001F0068400206D420680C
:101ED000800715D5E868012809D111E0E868B8B194
:101EE0000120C8F80000FFF751FD064605E002E1B9
:101EF000FFF74CFD801B0228C0D820688007F7D56B
:101F00002068296920F0F80040EAC10020600DE057
:101F1000C8F80090FFF73AFD064604E0FFF736FDEB
:101F2000801B02281FD820688007F7D42878000774
:101F300022D5724E744869696C3671B10121016015
:101F4000FFF724FD074604E0FFF720FDC01B022831
:101F500009D830688007F7D50EE0C0F80090FFF789
:101F600015FD074605E083E0FFF710FDC01B0228C2
:101F70007ED830688007F7D42878400768D5DFF826
:101F80007CA100270AF1380ADAF80000C0000BD45F
:101F9000DAF8001041F08051CAF80010DAF80000B9
:101FA000012700F080500090584E3068C00510D4D2
:101FB000306840F480703060FFF7E8FC009005E086
:101FC000FFF7E4FC0099401A022851D83068C00598
:101FD000F6D54A4EA868683601280FD00528306823
:101FE00010D020F001003060306820F00400306034
:101FF000A868B8B1FFF7CAFC00900FE0306840F065
:102000000100F4E740F004003060F7E7FFF7BEFCA2
:102010000099411A41F28830814264D830688007C3
:10202000F4D50EE0FFF7B2FC009007E0FFF7AEFC3E
:102030000099411A41F28830814254D830688007B3
:10204000F4D42FB1DAF8001021F08051CAF8001052
:10205000A869C0B3DBF80010C1F3810102294AD09E
:102060000228484607D0C8F86000FFF78FFC00E060
:1020700039E005463AE04746C8F86000FFF786FCBD
:10208000064604E0FFF782FC801B02282BD820685C
:102090008001F7D4D5E907010843A96A1C4A490819
:1020A00002EB01416A6A41EA8211084395F82C105B
:1020B00040EA01611148001F016001203866FFF706
:1020C00065FC054605E014E0FFF760FC401B0228B4
:1020D00009D820688001F7D50BE000BFFFF756FC58
:1020E000401B022802D90320BDE8F88F2068800138
:1020F000F4D40020F8E70120F6E700000838024099
:102100000038024000004742800E47420070004005
:102110000000FFFF4FF0E0210428086903D020F001
:1021200004000861704740F00400FAE7704710B5FA
:10213000401EB0F1807F01D3012010BD4FF0E0249C
:1021400060610F21601701F0BDFB0020A061072036
:102150002061002010BD10B5FFF7E8FF10BD7047EB
:10216000704710B590F83820012A25D0012280F858
:102170003820CA688C6822F4407222434C6822F4EA
:10218000806222430C6822F4006222430C6922F42C
:10219000805222434C6922F4005222438C6922F47B
:1021A0008042224322F4004102680023214351640B
:1021B00080F83830002010BD022010BD30B590F8F6
:1021C0003820012A20D0012280F83820022380F80C
:1021D000393003685C6824F070045C6003685C68F4
:1021E0000D682C435C6003689C6824F080049C604C
:1021F00003689C6849680C439C6080F83920002182
:1022000080F83810084630BD022030BD10B50400FB
:1022100003D094F8390010B107E0012010BD002070
:1022200084F83800204600F00DF8022084F83900C8
:10223000211D206801F010FD012084F839000020E4
:1022400010BD000008B501681748814208D1174841
:10225000016841F001010160006800F001000BE03D
:102260001248134A001F914208D1016841F004014D
:102270000160006800F00400009008BD0D4A914222
:1022800007D1016841F010010160006800F0100002
:10229000F2E7094A9142F0D1016841F04001016042
:1022A000006800F04000E7E70000014044380240C9
:1022B0000008004000100040001800400168CA6893
:1022C00042F00102CA600068016841F0010101604A
:1022D0000020704770B5044690F83800012817D0E8
:1022E000012584F83850022084F83900206882687B
:1022F00022F0770222F47F4282600868502837D0AB
:102300000DDC202859D005DC88B3102841D151E0DC
:10231000022070BD302853D040283AD13FE06028D9
:102320002ED070280BD0B0F5805F03D0B0F5005FE1
:102330002FD110E02068816821F0070115E0CB68FB
:10234000D1E90121206801F0F2FC2168886840F0A1
:10235000770088601DE0CB68D1E90121206801F099
:10236000E6FC2068816841F48041816011E01EE054
:10237000CA684968206801F0A3FD5021206806E082
:10238000CA684968206801F0ACFD6021206801F04E
:10239000D8FC84F83950002084F8380070BDCA6831
:1023A0004968206801F08CFD40212068EFE700219A
:1023B0002068ECE710212068E9E720212068E6E7A3
:1023C00030212068E3E7704770B504460068016972
:1023D0004FF00005C943890715D4C168C94389076F
:1023E00011D4E91E016101202076206880698007F0
:1023F000204602D0FFF7E7FF04E000F0DDF82046BA
:1024000000F05FF9257620680169C943490717D4B0
:10241000C168C943490713D46FF004010161022068
:1024200020762068806910F4407F204602D0FFF7B4
:10243000CAFF04E000F0C0F8204600F042F925761B
:1024400020680169C943090716D4C168C94309074F
:1024500012D46FF008010161042020762068C06961
:102460008007204602D0FFF7AEFF04E000F0A4F89A
:10247000204600F026F9257620680169C943C9067F
:1024800017D4C168C943C90613D46FF010010161A4
:10249000082020762068C06910F4407F204602D0D2
:1024A000FFF791FF04E000F087F8204600F009F9FB
:1024B000257620680169C943C90708D1C168C943A5
:1024C000C90704D1891E0161204600F017F9206870
:1024D0000169C943090609D4C168C943090605D47D
:1024E0006FF0800101612046FFF739FE2068016925
:1024F000C943490609D4C168C943490605D46FF0E8
:1025000040010161204600F0FAF820680169C943E2
:1025100089060BD4C168C943890607D46FF020012E
:1025200001612046BDE87040FFF71ABE70BD000093
:1025300070B5006819490025022486B0884211D17F
:1025400080158DE831000126CDE90356694614480F
:10255000FFF730F960038DE83100CDE90356694695
:10256000104809E0104988420AD180148DE83100F2
:10257000CDE9035469460D48FFF71CF906B070BD5C
:102580000B498842FAD14FF410708DE831000920D0
:10259000CDE9035069460748EEE70000000001401E
:1025A000000002400010024000080040000C024001
:1025B00000180040001C0240704770B5044690F8B7
:1025C00038000D4601280DD0012684F8386002201D
:1025D00084F8390042B1042A18D0082A2AD00C2ADB
:1025E0004DD139E0022070BD206801F0B3FB2068B6
:1025F000816941F0080181612068816921F004014D
:102600008161206881692A69114311E0206801F025
:10261000CDFB2068816941F4006181612068816996
:1026200021F480618161206881692A6941EA02217F
:10263000816124E0206801F0EBFB2068C16941F072
:102640000801C1612068C16921F00401C1612068ED
:10265000C1692A69114311E0206801F009FC206872
:10266000C16941F40061C1612068C16921F48061E0
:10267000C1612068C1692A6941EA0221C16184F807
:102680003960002084F8380070BD10B5040003D014
:1026900094F8390010B107E0012010BD002084F843
:1026A0003800204600F00CF8022084F83900211D83
:1026B000206801F0D1FA012084F83900002010BD13
:1026C0007047704710B504460068012201F024FBF2
:1026D00008492068884202D00749884203D1416CEA
:1026E00041F4004141642068016841F0010101604A
:1026F000002010BD000001400004014070477047F9
:1027000008B500680168C943090705D40168416834
:10271000009140680149C87008BD000030000020E9
:1027200010F8391F407808437047000070B5026800
:1027300004461068D168536910F00F0F50D003F0B1
:10274000010501F4907635435DD0C20705D0CA0576
:1027500003D5E26B42F00102E263420705D5DA07D6
:1027600003D0E26B42F00202E263820705D5DA078A
:1027700003D0E26B42F00402E263020705D5DA07F8
:1027800003D0E26B42F00802E263E26B002A33D02E
:10279000800604D5880602D5204601F098FC206802
:1027A0004069E16BC0F38010090700D428B32046CC
:1027B00001F076FC2068416949061AD5416921F08B
:1027C00040014161606BA0B11B490165606BFEF780
:1027D00056FE002810D0606B016DBDE870400847C0
:1027E000830610D58B060ED52046BDE8704001F05B
:1027F0006EBC2046FFF784FF70BD2046FFF780FFC8
:102800000020E06370BD030606D50B0604D5204604
:10281000BDE8704001F0F8BD4006F3D54806F1D59B
:10282000D168204621F04001D160202184F8391080
:1028300000F03CFB70BD00000140000870B50400D2
:1028400004D094F83900002510B106E0012070BDD5
:1028500084F83850204600F023F8242084F839000A
:102860002068C16821F40051C160204601F076FC67
:102870002068016921F4904101612068416921F0DB
:102880002A0141612068C16841F40051C160E563DB
:10289000202084F8390084F83A00002070BD000040
:1028A0002DE9F043074602684F4800244F490325AD
:1028B0000226DFF83CC187B04FF00808824218D1E9
:1028C000086840F400200860086802AA00F40020AC
:1028D0000590CDE90056012082E821016946604655
:1028E000FEF768FF002203213420FFF72BF9342084
:1028F0005FE03E483F4B001D4FF007099A4230D140
:10290000016841F010010160006802AA00F01000A7
:102910000590C020CDE9000682E8300269463648BD
:10292000FEF748FF364D354828604FF00060C5E996
:1029300001044014C5E9034080106C61C5E90640FC
:102940004FF44030C5E908042846FEF77BFE18B175
:10295000C3212CA001F09DFE7D63AF6307B0BDE8ED
:10296000F0832C4B9A4227D10868274640F4003068
:1029700008600868CDE9026500F400300590042085
:10298000CDE90006694664466046CDF81090FEF732
:1029900011FFCDE90275CDE9008669462046CDF8E4
:1029A0001090FEF707FF002201212620FFF7CAF84A
:1029B0002620FFF7BCF8D1E717498A42CED101683B
:1029C00041F020010160006802AA00F0200005909B
:1029D0004FF48440CDE9000682E8300169460F4893
:1029E000FEF7E8FEBAE70000004C00404038024025
:1029F0000000024000100140000402404064024018
:102A0000B80200202E2E2F5372632F7573617274DB
:102A10002E630000004400400014014000180240F2
:102A2000F8B5044690F83A0020283CD1C1B3BAB3B7
:102A300094F83800012836D0012084F83800A162CB
:102A4000A2850025E563222084F83A00636B1748CD
:102A5000D863636B16481864636B1648D864606B60
:102A6000134605650846666B216802463046091D17
:102A7000FEF752FE206801684168009184F83850E2
:102A8000C16841F48071C1602068416941F0010171
:102A900041612068416941F0400141610020F8BD79
:102AA000FFE70120FBE70220F9E700005B40000898
:102AB000974000081140000890F83A30202B1DD1B3
:102AC000D1B1CAB190F83830012B17D0816282851C
:102AD000C2850021C163222280F83A2080F8381094
:102AE00001684A6942F001024A610068C16841F424
:102AF0009071C1600020704701207047022070472C
:102B00002DE9F05FA74900252DED048B0068DFF863
:102B100098A288427CD1A54CA54A234694F801C0CE
:102B2000187893F8089001020FB2B3F9046009EB2A
:102B30000001B3F906304FF0010BC9B2BCF1090F27
:102B40000CD2DFE80CF0050F161E252E343B440096
:102B5000262801D184F801B061785054BDEC048B73
:102B6000BDE8F09F252801D06570F5E7022161706E
:102B7000F2E7A78000F14B01217203216170D07050
:102B8000ECE73318A3802172042161701071E5E72E
:102B90002D2801D17342A3802172052161705071EB
:102BA000DCE7E7802172062161709071D6E703446B
:102BB000E380217207216170D071CFE72D2801D108
:102BC0005B42E3802172082161701072C6E74FF406
:102BD0007A73814575D150725220A0700122A11CD8
:102BE000744800F006F97448007A012872D15646FC
:102BF0009AF80000DFF8C491DFF8C4A1DFF8C481BF
:102C0000714F012849D1B4F90600FDF7A4FC00E09A
:102C100062E09FED6E9B53EC192BFDF7BBFB41EC83
:102C2000100B01F051FD9FED6B1B51EC100B53ECA1
:102C3000112BFDF7AFFB41EC180BB9F90200FDF7C2
:102C40008AFC53EC182BFDF7FEFAFDF795FCAAF869
:102C50000000B4F90400FDF77EFC53EC192BFDF7DE
:102C600099FB41EC100B01F02FFD9FED5C1B51EC2B
:102C7000100B53EC112BFDF78DFB41EC180B86ED7F
:102C8000048BB8F90200FDF766FC53EC182BFDF736
:102C90007BFBFDF771FC38803570B8F90200B7F99D
:102CA0000010401A1D303B2814D2B9F90210BAF9AD
:102CB0000000081A6330C7280CD286F800B009E07B
:102CC000FFE7A580E5805720A0700122A11C3948AC
:102CD00000F08FF8657041E742498842FBD04249D5
:102CE0008842F8D141489AF801203149837D02F0A9
:102CF0007F04143950460B55530602D10B78242B10
:102D0000E9D1521C427002F07F02082A05D0817876
:102D1000027911448AF8021020E7827803799A42F6
:102D20003BD1214B00225B1D8C18E4789C54521C33
:102D3000042AF9DB4A78642A1FD0692A0FD0702A46
:102D400028D1C268D0F80530936189782D2921D126
:102D500092ED060AB1EE400A82ED060A1AE0C26858
:102D6000D0F80530D36189782D2913D192ED070A67
:102D7000B1EE400A82ED070A0CE0C268D0F80530D7
:102D8000136289782D2905D192ED080AB1EE400A27
:102D900082ED080A85704570E0E685708AF801507A
:102DA000DCE600000044004030000020B6030020B4
:102DB000D0060020380200205E03002074030020AB
:102DC00028000020800300202A0000200135B56C77
:102DD000AD2F623F6666666666608F40333333337D
:102DE0003360944000140140004C0040C0030020B8
:102DF00070472DE9F843044690F839001F461646FF
:102E00000D46202850D1A5B19EB194F83800012874
:102E10004AD0012084F838004FF00008C4F83C8004
:102E2000212084F83900FEF7B1FDA6848146E684AE
:102E300026E00120BDE8F883E08C401EE084A06815
:102E40004B46B0F5805F4FF000024FF08001204606
:102E5000009703D001F009FBE8B90DE001F005FB94
:102E6000C8B928882168C0F308004860206908B103
:102E70006D1C05E0AD1C03E0216815F8010B4860EE
:102E8000E08C0028D8D14B460022402120460097F4
:102E900001F0EBFA08B10320CCE7202084F83900D8
:102EA00084F838800020C5E70220C3E77047FEE7BA
:102EB00070B50D4C0025C4F894520C48016821F4FB
:102EC00040710160016841F480710160C4F8905262
:102ED000022004F5247401F00BFE01206060022042
:102EE00001F006FE656070BD000042420010024025
:102EF00003480121C0F89412C0F8901270470000F6
:102F00000000424270B50D4C0025C4F894520C48A4
:102F1000016821F440710160016841F48071016031
:102F20000126C4F89062022004F5247401F0E0FD4B
:102F30006660022001F0DCFD656070BD0000424269
:102F4000001002402DE9F047814616480024016830
:102F500021F44071016001680160134E2546274647
:102F60004FF00108C6F89472022001F0C1FDC6F8C6
:102F700094826006040ED6F8100208B1641CE4B214
:102F8000012001F0B5FD6D1CEDB2082DEAD3B9F1B9
:102F9000000F04D0FFF78CFF2046BDE8F087FFF755
:102FA000B1FFF9E700100240000042422DE9F04174
:102FB00006461448016821F440710160016841F43B
:102FC00080710160104C0027C4F894723D464FF0A8
:102FD0000108F009C4F890027006060E022001F004
:102FE00087FDC4F89482022001F082FDC4F8947237
:102FF000022001F07DFD6D1CEDB2082DE9D3BDE886
:10300000F0810000001002400000424270B50D48FF
:10301000016821F440710160016841F48071016030
:10302000094C0120C4F89002C4F89402042004F56D
:10303000247401F05DFD00252560042001F058FD99
:10304000656070BD00100240000042420E4810B59D
:10305000016821F440710160016841F480710160F0
:103060000A4C0020C4F89402C4F89002042004F52D
:10307000247401F03DFD012060602060BDE8104037
:10308000042001F035BD0000001002400000424263
:1030900070B512480024016821F440710160016894
:1030A00001600F4D0126C5F89062304601F020FD09
:1030B000C5F89462012001F01BFD07E0641CE4B236
:1030C000FA2C03D9FFF7C2FF012070BDD5F810021A
:1030D0000028F3D1C5F8940270BD00000010024032
:1030E000000042421C4A10B5911E881E00F08EF866
:1030F000194A243A911E881E00F06FF81648343899
:1031000030F8301F428A891A0AB200EE102A028073
:103110004188F8EEC00A9FED110A838A80EE801A7A
:10312000C91A09B2418000EE901A8388C48AF8EE69
:10313000E00A1B1B1BB2838000ED031A80EE801A8D
:1031400000EE903AF8EEE00A00ED021A80EE801AE6
:1031500000ED011A10BD0000100700203333834139
:1031600010B5FFF7C5FE80216B2000F0F7F8642052
:10317000FEF70EFB00216B2000F0F0F8032000F0BA
:10318000B6F8002000F0AEF84FF47A74204600F054
:10319000CEF80021382000F0E1F800216A2000F08C
:1031A000DDF87021232000F0D9F88021372000F0CD
:1031B000D5F8752000F043F8682801D0012010BD33
:1031C00001216B2000F0CAF800216C2000F0C6F845
:1031D000204600F0ACF8002010BD7CB514460D462A
:1031E00006466B4606223B21682000F045F8002881
:1031F0000BD1BDF8001049BA3180BDF8021049BAB0
:103200002980BDF8041049BA21807CBD7CB51446E4
:103210000D4606466B4606224321682000F02CF836
:1032200000280BD1BDF8001049BA3180BDF802105A
:1032300049BA2980BDF8041049BA21807CBD10B577
:103240000446FFF7E3FED020FFF7B0FEFFF720FFB4
:103250002046FFF7ABFEFFF71BFFFFF7D7FED1209D
:10326000FFF7A4FEFFF714FF0020FFF76BFE0446F4
:10327000FFF7ECFE204610BD2DE9F0411D46144637
:103280000F460646FFF7C2FE7006000EFFF78EFEE1
:10329000FFF7FEFE20B1FFF7D9FE0120BDE8F08167
:1032A0003846FFF783FEFFF7F3FEFFF7AFFE01207E
:1032B00000EB4600C0B2FFF779FEFFF7E9FE09E038
:1032C000012C0DD05FF00100FFF73CFE641E05F8F5
:1032D000010BE4B2002CF3D1FFF7B8FE0020DDE7CC
:1032E0000020F1E7C006010E1C2000F037B8C00630
:1032F000010E1B2000F032B80021FF2814D2BC2898
:1033000001D3012110E0622801D302210CE02A2818
:1033100001D3032108E0142801D3042104E00A2882
:1033200001D3052100E006211A2000F017B810B5DE
:1033300004464FF47A70844201D9044602E0042C1A
:1033400000D20424B0FBF4F0401EC1B2192000F0FA
:1033500005F86008BDE81040FFF7CEBF70B50C4619
:103360000546FFF753FED020FFF720FEFFF790FE43
:1033700050B92846FFF71AFEFFF78AFE2046FFF7EE
:1033800015FEFFF785FE18B1FFF760FE012070BD46
:10339000FFF75CFE002070BD104810B50E490160BB
:1033A0000521416000214FF400328160C0E9031221
:1033B000520142610122027641768176C17601771F
:1033C0004277FDF761FF002805D0BDE81040452198
:1033D00003A001F05EB910BD00640040A000002011
:1033E0002E2E2F5372632F63616E2E630000000038
:1033F000054808B5016841F480010160006800F4E7
:103400008000009008BD0000303802402DE9F041F6
:10341000324886B00024016841F040010160016833
:1034200001F040010591016841F01001016001685F
:1034300001F010010591016841F00201016001688D
:1034400001F002010591016841F008010160016885
:1034500001F008010591016841F0800101600168F7
:1034600001F080010591016841F0010101600068EF
:103470001B4E00F001004FF4005505900022294634
:103480003046FEF77DFA174F002230213846FEF70E
:1034900077FADFF85480002214214046FEF770FAD4
:1034A00000950125CDE90154694630460394FEF7A5
:1034B00081F930200090CDE90154694638460394E3
:1034C000FEF778F914200090CDE901546946404692
:1034D0000394FEF76FF906B0BDE8F0813038024082
:1034E0000018024000100240001C024010B52448A1
:1034F0008CB02249016059210024C0E9011440F632
:10350000C311C0E90314FEF781FE18B1CB211DA041
:1035100001F0BFF84FF48050079007A91848FEF754
:10352000D9FE18B1D12117A001F0B3F81448FFF764
:10353000ACF818B1D62113A001F0ABF860200090D0
:103540004FF47A70CDE90104002269460C480494D6
:10355000FFF733F818B1DF210AA001F09AF804222E
:1035600069460748FFF729F818B1E42105A001F0E2
:1035700090F80348FEF7DCFF0CB010BD00180040C7
:103580007C0100202E2E2F5372632F74696D2E63E1
:103590000000000010B5354894B033490160B321F4
:1035A0000024C0E9011440F6C311C0E903144461CA
:1035B000FEF72CFE18B144212DA001F06AF84FF45B
:1035C00080500E900EA92948FEF784FE18B14A21BA
:1035D00027A001F05EF82548FFF757F818B14F21F2
:1035E00023A001F056F8129412A920481394FEF774
:1035F000E5FD18B156211EA001F04BF860200090A7
:103600004FF47A70CDE901040394049405940022E8
:10361000694616480694FEF7D0FF18B1622114A03F
:1036200001F037F80C2269461048FEF7C6FF18B1C2
:1036300067210FA001F02DF80794089409944FF426
:1036400000500A94CDE90B4007A908480D94FEF7F5
:1036500088FD18B1732106A001F01BF80348FEF79E
:1036600067FF14B010BD000000000140C80000203A
:103670002E2E2F5372632F74696D2E63000000008D
:1036800010B525488EB02349016059210024C0E9B6
:10369000011440F2CF71C0E90314FEF7B7FD18B171
:1036A00087211EA000F0F5FF4FF48050079007A976
:1036B0001948FEF70FFE18B18D2118A000F0E9FFA0
:1036C0001548FEF7E2FF18B1922114A000F0E1FFC7
:1036D0000B940BA910480C94FEF770FD18B19921BA
:1036E0000EA000F0D6FF602000904FF4FA70CDE9F4
:1036F00001040022694608480494FEF75EFF18B1F1
:10370000A22106A000F0C5FF0348FEF711FF0EB08E
:1037100010BD000000080040040100202E2E2F5391
:1037200072632F74696D2E63000000001CB5104891
:103730000E49002401605921C0E9011440F2E7312B
:10374000C160FEF763FD18B1B3210AA000F0A1FF2C
:103750000094694606480194FEF730FD002803D026
:10376000BA2104A000F095FF1CBD0000001000402D
:10377000400100202E2E2F5372632F74696D2E632B
:10378000000000000D4810B50B4901604FF41651C0
:103790004160002181600C22C160C0E90412816196
:1037A000C161FFF74BF8002805D0BDE81040462165
:1037B00003A000F06EBF10BD004C0040B801002017
:1037C0002E2E2F5372632F75736172742E63000057
:1037D0000D4810B50B4901600C4941600021816022
:1037E0000C22C160C0E9041281610A46C161FEF782
:1037F00057F9002805D0BDE81040592104A000F079
:1038000048BF10BD00100140F8010020A086010053
:103810002E2E2F5372632F75736172742E63000006
:103820000E4810B50C4901604FF4E13141600021B0
:1038300081600C22C160C0E9041281610A46C16145
:10384000FEF72EF9002805D0BDE810406C2104A039
:1038500000F01FBF10BD00000044004038020020EF
:103860002E2E2F5372632F75736172742E630000B6
:103870000E4810B50C4901604FF4E1314160002160
:1038800081600C22C160C0E9041281610A46C161F5
:10389000FEF706F9002805D0BDE810407F2104A0FE
:1038A00000F0F7BE10BD00000014014078020020B7
:1038B0002E2E2F5372632F75736172742E63000066
:1038C000FEE770470907090E002806DA00F00F002E
:1038D00000F1E02080F8141D704700F1E02080F82E
:1038E0000014704710B504462DED068BD4ED000A88
:1038F00094ED010A90F83C0030EEC00A9FED608B19
:10390000D4ED040A94ED071AF0B1C4ED050AD4ED24
:10391000031AC4ED041A84ED030A30EE612AD4EDD3
:10392000062A22EE222A00EE012AB0EE001A01EE4B
:10393000C10A30EE200AD4ED080A00EE202A94EDE8
:103940000D0A32EE000A84E0C4ED030A84ED040A95
:10395000D4ED020A11EE100A30EE809A84ED029A3C
:10396000FCF729FE53EC182BFCF76DFC41EC1A0B0D
:10397000206BFCF720FE53EC1A2BFCF77DFD41EC8D
:103980001A0B19EE100AFCF716FE53EC1A2BFCF773
:103990003DFEE06909D2FCF70EFE53EC182BFCF754
:1039A00052FC41EC180B206B2CE0FCF704FE53ECAE
:1039B000182BFCF748FC94ED0C0A41EC190BB1EE06
:1039C000400A10EE100AFCF7F6FD53EC192BFCF739
:1039D00053FD41EC190BA068FCF7EDFD53EC192BDE
:1039E000FCF7FCFD17D2E069FCF7E5FD53EC182B62
:1039F000FCF729FC94ED0C0A41EC180BB1EE400ADF
:103A000010EE100AFCF7D7FD53EC182BFCF734FD31
:103A1000FCF714FEA06094ED060A94ED041A60EE23
:103A2000010AC4ED090A94ED070AD4ED021A20EE4A
:103A3000210A84ED0A0AD4ED031A30EE800A31EE31
:103A4000611AD4ED081A21EE211A84ED0B1A30EE1A
:103A5000010A84ED0D0AF0EE400A94ED0E0AF4EE30
:103A6000C00AF1EE10FA06DCB1EE400AF4EEC00A2C
:103A7000F1EE10FA01D284ED0D0ABDEC068B10BDFB
:103A80002D431CEBE2361A3F00F1180282EC030AC8
:103A90009FED050A80ED020AC0ED0C1A80ED0E2A9A
:103AA00080F83C10704700000000000070470000E4
:103AB00010B51B482DED028BB0F902009FED1A8A5C
:103AC00000EE100A1748B8EEC00A80ED010A80ED3A
:103AD000008AFFF707FF1548B0F9020000EE100A50
:103AE0001048B8EEC00A403080ED010A80ED008A2F
:103AF000FFF7F8FE0E48B0F9020000EE100A094880
:103B0000B8EEC00A803080ED010A9FED0A0A80ED10
:103B1000000ABDEC028BBDE81040FFF7E3BE0000D9
:103B2000A8030020DC040020000000008C0300201B
:103B30009A03002000007A44704710B5FDF72CFF6F
:103B4000BDE81040FEF707BB30B5274893B000250D
:103B5000016841F080510160006800F080501190D0
:103B60002248016841F4404101600068022400F4E9
:103B70004040119001200090000401908001CDE9A7
:103B8000064006200890B420CDE9090404200B90DB
:103B90006846FEF731F900B1FEE7FEF705F800B11F
:103BA000FEE70CA90F2081E831004FF4A0500F90E0
:103BB0004FF48050109005210CA8FEF72DF800B1AD
:103BC000FEE7FEF7C1F84FF47A71B0FBF1F0FEF7B3
:103BD000AEFA0420FEF79EFA00221146501EFDF7B1
:103BE000B1FF13B030BD000040380240007000400B
:103BF0001048016841F4700101600F48016841F00C
:103C0000010101600C4A00210832116002680B4B6F
:103C10001A400260031D0A4A1A60026822F48022D8
:103C2000026005480C30016002495806803908607E
:103C30007047000088ED00E000380240FFFFF6FE0C
:103C40001030002410B500F05FF9BDE810400148C5
:103C5000FEF7BABB40010020F0B50268234B244DAB
:103C6000244E254F254C4FF0804C984209D060459A
:103C700007D0A84205D0B04203D0B84201D0A0423C
:103C800004D122F0700E4A6842EA0E0298421BD01C
:103C9000604519D0A84217D0B04215D0B84213D011
:103CA000A04211D0164DA8420ED0164DA8420BD0FE
:103CB000154DA84208D0154DA84205D0144DA84274
:103CC00002D0144DA84203D122F44075CA682A4399
:103CD00002608A68C2620A688262984201D0A04289
:103CE00001D10969016301214161F0BD000001407A
:103CF0000004004000080040000C004000040140A7
:103D000000400140004401400048014000180040CC
:103D1000001C00400020004010B50123046A8B40C5
:103D20009C430462036A8A401343036210BD10B5CA
:103D3000846842EA032224F47F440A4322438260D7
:103D400010BD826822F070020A4342F007018160D0
:103D50007047000030B5026A22F001020262026A76
:103D6000436884690D6824F07304254322F002043B
:103D70008A6822430B4CA04202D00B4CA0420BD1CC
:103D800022F00804CA6823F4407322434C6922F0ED
:103D900004021C438B692343436085614968416386
:103DA000026230BD000001400004014030B5026AEB
:103DB00022F010020262026A436884690D6824F4EA
:103DC000E64444EA05248D6822F0200242EA051206
:103DD0000D4DA84202D00D4DA8420ED1CD6822F063
:103DE000800242EA05124D6923F4406343EA8503E9
:103DF0008D6922F0400243EA85034360846149688B
:103E00008163026230BD00000000014000040140F7
:103E100030B5026A22F480720262036A4268C469A1
:103E200023F4007324F073050C682C438D6843EA77
:103E300005230D4DA84202D00C4DA8420ED1CD68ED
:103E400023F4006343EA05234D6922F4405242EA19
:103E500005128D6923F4806342EA05124260C46151
:103E60004968C163036230BD0000014000040140A5
:103E700030B5026A22F480520262046A4268C36961
:103E80000D6823F4E64343EA05238D6824F40054C7
:103E900044EA0534084DA84202D0084DA84204D196
:103EA0004D6922F4804242EA85124260C36149684A
:103EB0000164046230BD00000000014000040140C4
:103EC00010B5036A046A24F001040462846924F0D2
:103ED000F00444EA021423F00A020A4384610262F5
:103EE00010BD10B5036A23F0100303628369046AEE
:103EF00023F4704343EA023224F0A00343EA0111A1
:103F00008261016210BD000070B5234C2088401C06
:103F10002080FFF7E7F8214DA86AFCF74CFB204A08
:103F2000C2E900011046FCF7F9FDE86AFCF743FB23
:103F30001C4AC2E900011046FCF7F0FDFCF782FEC6
:103F400020880A21B0FBF1F201FB120028B9FFF72B
:103F5000AFFDFCF73FFE00F0E5FA13481349154AA0
:103F600090ED0D0ABDEEC00A10EE100A00B24881B5
:103F70000F4991ED0D0ABDEEC00A10EE101A5181E5
:103F8000494209B2FCF78CFE2088B0F57A7F01D354
:103F90000020208070BD00002C000020DC060020E6
:103FA000B807002058070020DC030020740300201D
:103FB0005C0400208003002070B50E48FEF7B6FBBD
:103FC0000D4C0025256002E02068401C2060094857
:103FD000FEF7A6FB2028F7D12560084D02E02068F7
:103FE000401C2060012229460248FEF765FD00289A
:103FF000F5D170BDB801002000000020D6030020DC
:1040000010B5806B0021C185C184FEF779FB10BD1E
:1040100070B5846B2068406994F83910C0F3C01003
:104020000025212904D118B1E584204600F046F886
:104030002068406994F83A10C0F38010222904D116
:1040400018B1E585204600F02BF8E06B40F0100039
:10405000E0632046FEF754FB70BD10B50146806B4F
:1040600009680968C90513D40021C1850168CA68B7
:1040700022F48072CA6001684A6922F001024A6132
:1040800001684A6922F040024A61202180F83A1012
:10409000FEF736FD10BD10B5806BFEF7A9FE10BD12
:1040A0000168CA6822F49072CA6001684A6922F005
:1040B00001024A61202180F83A1070470168CA68FD
:1040C00022F0C002CA60202180F83910704710B574
:1040D00090F83A10222901D0022010BD8168B1F574
:1040E000805F11D00169002901681FD0496801F083
:1040F0007F03816A4A1C82620B70C18D491E0904CC
:10410000090CC18518D026E00269816A002A02687C
:10411000526805D0D2B20A80816A491C8162ECE7FC
:10412000C2F308020A80816A891CF7E74A68816A3B
:104130004B1C83620A70E0E70168CA6822F490723F
:10414000CA6001684A6922F001024A61202180F8B0
:104150003A10FEF7D5FC002010BD00002DE9F0411B
:1041600004460068016921F44052E168114301618D
:104170002168C86849F20C6290432369A268E56926
:104180001A4363692B431A430243CA602168486992
:1041900020F44072A06910434861E1696425B1F5DB
:1041A000004F9748974A21684FF032083FD091421C
:1041B00001D081427CD1FDF7DDFD00EBC00101EBB8
:1041C000001061688900B0FBF1F6FDF7D3FD00EB4C
:1041D000C00101EB001061688900B0FBF1F0B0FB99
:1041E000F5F06FF01801484306EB800108EB011071
:1041F000B0FBF5F000F0F006FDF7BCFD00EBC001F0
:1042000001EB001061688900B0FBF1F0B0FBF5F044
:1042100006EB0016FDF7AEFD00EBC00101EB001050
:1042200061688900B0FBF1F7FDF7A4FDD2E091428F
:1042300001D081423DD1FDF79DFD00EBC00101EBB6
:10424000001061684900B0FBF1F0B0FBF5F0060129
:10425000FDF790FD00EBC00101EB00106168490023
:10426000B0FBF1F7FDF786FD00EBC00101EB00109C
:1042700061684900B0FBF1F0B0FBF5F06FF0180198
:10428000484307EB800108EBC100B0FBF5F000F0FC
:10429000F80006EB4006FDF76DFD00EBC00101EBF9
:1042A000001061684900B0FBF1F7FDF763FD3CE0E9
:1042B00055E0FDF74FFD00EBC00101EB0010616818
:1042C0004900B0FBF1F0B0FBF5F00601FDF742FD4F
:1042D00000EBC00101EB001061684900B0FBF1F791
:1042E000FDF738FD00EBC00101EB001061684900EB
:1042F000B0FBF1F0B0FBF5F06FF01801484307EBAD
:10430000800108EBC100B0FBF5F000F0F80006EB0F
:104310004006FDF71FFD00EBC00101EB00106168D6
:104320004900B0FBF1F7FDF715FD00EBC00101EB13
:10433000001061684900B0FBF1F0B0FBF5F06FF0E0
:104340001801484307EB800108EBC100B0FBF5F012
:1043500000F00700216830448860BDE8F081FDF777
:10436000F9FC00EBC00101EB001061688900B0FBB3
:10437000F1F6FDF7EFFC00EBC00101EB0010616806
:104380008900B0FBF1F0B0FBF5F06FF01801484385
:1043900006EB800108EB0110B0FBF5F000F0F00631
:1043A000FDF7D8FC00EBC00101EB0010616889004B
:1043B000B0FBF1F0B0FBF5F006EB0016FDF7CAFC20
:1043C00000EBC00101EB001061688900B0FBF1F760
:1043D000FDF7C0FC00EBC00101EB00106168890033
:1043E000B0FBF1F0B0FBF5F06FF01801484307EBBC
:1043F000800108EB0110B0FBF5F000F00F00A9E719
:10440000001401400010014090F83910212901D01A
:10441000022070478168B1F5805F016A0BD04A1CA9
:104420000262026809785160C18C491E0904090CB6
:10443000C1840ED017E009880268C1F308015160F9
:1044400001690029016A02D0491C0162ECE7891C5C
:10445000FBE70168CA6822F08002CA600068C16890
:1044600041F04001C160002070472DE9F0419846BD
:1044700017460E460446069D1DE0681C1BD02DB154
:10448000FDF784FAA0EB0800A84214D92068C1689F
:1044900021F4D071C1602068416921F001014161BE
:1044A000202084F8390084F83A00002084F838008D
:1044B0000320BDE8F0812068006836EA000004D0DF
:1044C0000020B842D9D00020F3E70120F9E700002E
:1044D00070B50E48FEF72AF90D4C0025256002E064
:1044E0002068401C20600948FEF71AF92028F7D1FF
:1044F000256002E02068401C206001220549034835
:10450000FEF7DAFA0028F5D170BD0000380200206D
:1045100000000020B60300200148FEF707B90000A4
:104520007802002070B5544D544CA5F580762DEDE1
:10453000048BB5F9020000EE100AB8EEC00A86ED51
:10454000010AB4F90600B4F904100844B4F90010E3
:104550000844FCF700F89FED4A8B53EC182BFBF74F
:104560008BFF9FED499B53EC192BFBF713FFFCF7D7
:1045700003F800B200EE100A3046B8EEC00A86ED2D
:10458000000AFFF7AFF9B5F90A00403600EE100A4D
:10459000B8EEC00A86ED010AB4F90600B4F90410B9
:1045A000401AB4F900100844FBF7D5FF53EC182B60
:1045B000FBF762FF53EC192BFBF7ECFEFBF7DCFF7C
:1045C00000B200EE100A3046B8EEC00A86ED000ACE
:1045D000FFF788F9B5F91200403600EE100AB8EE80
:1045E000C00A86ED010AB4F90600B4F904100844C3
:1045F000B4F90010081AFBF7AEFF53EC182BFBF7C9
:104600003BFF53EC192BFBF7C5FEFBF7B5FF00B2E0
:1046100000EE100A3046B8EEC00A86ED000AFFF739
:1046200061F9B5F91A00403D00EE100AB8EEC00A73
:1046300085ED010AB4F90400B4F90610401AB4F982
:1046400000100844FBF787FF53EC182BFBF714FF0F
:1046500053EC192BFBF79EFEFBF78EFF00B200EE2A
:10466000100A2846B8EEC00A85ED000ABDEC048B9E
:10467000BDE87040FFF736B99C0600205E030020BD
:104680000000000000A08440000000000088B3404B
:10469000FEE7FEE703B401984100009850EAC1200C
:1046A00018BF04204A0D18BF40F0010040F2FF720D
:1046B000B2EB515F08BF40F00200012808BF05209F
:1046C00002B070470000000070B59B482DED020B52
:1046D0002DED068B079D25F00044A04218DC97487D
:1046E000844202DC0AD1069840B19DED060BBDEC78
:1046F000068B02B0BDE8704000F0CEB9002DCCBFF3
:104700009FED8F0B9FED900BBDEC068B02B070BD43
:104710008F48A04215DD8F48A042D8BF4FF0FF342C
:1047200058DD9DED060B51EC100BFFF7B3FF04288D
:1047300008BF00F0BDF99DED060BBDEC068B02B085
:1047400070BD9DED060B51EC100B00F0EBF9CDE9BF
:10475000060181489FED828BA0423CDD8248A04249
:104760001FDD00249FED82AB9DED060B53EC1A2B51
:1047700051EC100BFBF767FD9DED060B41EC190B9F
:1047800053EC1A2B51EC100BFBF704FE53EC182BD7
:10479000FBF7FAFD53EC192BFBF76EFECDE9060192
:1047A00049E09DED060B012453EC182B51EC100B46
:1047B000FBF749FD9DED060B41EC190B53EC182B53
:1047C00051EC100BFBF7E0FD53EC192BFBF754FEFB
:1047D000CDE906012FE06848A0421FDD02249FEDCD
:1047E000689B9DED060B53EC192B51EC100BFBF75E
:1047F000D1FD53EC182BFBF726FD9DED060B41EC8C
:10480000180B53EC192B51EC100BFBF7BDFD53ECBF
:10481000182BFBF731FECDE906010CE09DED060BF0
:10482000032453EC102B9FED580B51EC100BFBF7AE
:1048300023FECDE906019DED060B53EC102B51EC48
:10484000100BFBF7A7FD41EC180B53EC182BFBF7F3
:10485000A1FD41EC190B4E480621B0EE490AF0EEDD
:10486000690A784400F09CF853EC182B51EC100BBB
:10487000FBF790FD41EC180B4648B0EE490AF0EE0C
:10488000690A0521784400F08BF853EC192B51ECA0
:10489000100BFBF77FFD41EC100B51EC180B53ECA8
:1048A000102B002C0EDAFBF7CEFC9DED061B53EC13
:1048B000112BFBF76FFD9DED061B53EC112BFBF746
:1048C00066FD35E0FBF7BFFC9DED061B53EC112B9D
:1048D000FBF760FD41EC100B2F48784400EBC4005F
:1048E00090ED001B51EC100B53EC112BFBF74CFD22
:1048F0009DED061B53EC112BFBF746FD41EC100B15
:104900002648784400EBC40090ED001B51EC100BDE
:1049100053EC112BFBF73BFD41EC100B002DA2BF1C
:10492000BDEC068B02B070BD51EC100B81F0004164
:1049300041EC100B01E70000000010440000F07F84
:10494000182D4454FB21F93F182D4454FB21F9BF85
:104950000000DC3F0000203E0000F33F00000000AC
:10496000000000000000F03F0000E63F00000000F3
:104970000000000000000040008003400000000034
:10498000000000000000F83F000000000000F0BF41
:104990006206000018060000A20500005A0500008B
:1049A00070B504462DED028B4D1E00EBC500B0EE38
:1049B000408AF0EE608A90ED000B35F0060017D0CB
:1049C00053EC182B51EC100BFBF7E4FC41EC100BF3
:1049D0006D1E04EBC50090ED001B51EC100B53EC69
:1049E000112BFBF730FC41EC100B35F00600E7D142
:1049F000022D36D0042D1CD0062D1CBFBDEC028B21
:104A000070BD53EC182B51EC100BFBF7C3FC94ED6D
:104A10000A1B53EC112BFBF716FC53EC182BFBF77E
:104A2000B9FC94ED081B53EC112BFBF70CFC41EC8B
:104A3000100B53EC182B51EC100BFBF7ABFC94ED67
:104A4000061B53EC112BFBF7FEFB53EC182BFBF76B
:104A5000A1FC94ED040B53EC102BFBF7F4FB41ECA1
:104A6000100B53EC182B51EC100BFBF793FC94ED4F
:104A7000021B53EC112BFBF7E6FB53EC182BFBF757
:104A800089FC94ED001B53EC112BFBF7DCFBBDEC18
:104A9000028B41EC100B70BD10B553EC102B51EC98
:104AA000100BFBF7D0FB41EC100B10BD0000000019
:104AB0009FED050B10B553EC102B51EC100BFBF7D1
:104AC00069FC41EC100B10BD00000000000000105C
:104AD00002E008C8121F08C1002AFAD170477047C7
:104AE000002001E001C1121F002AFBD17047000025
:104AF00070B54FF0E024002265690949A36909787F
:104B00004843A1699942FCD002D2A3EB010302E021
:104B1000A5EB010633441A440B468242F1D370BD23
:104B20004800002082B0CDE9000121F00040019052
:104B30009DED000B02B051EC100B704788B0FCF7F4
:104B400033FFFFF701F800F0C9F8FEF75FFCFEF74E
:104B50004FFCFEF721FCFEF793FDFEF7E7FDFEF7A5
:104B6000C5FCFEF70FFEFEF733FEFEF781FEFEF7F3
:104B700057FEFEF70FFD002211463A20FCF7E2FF38
:104B80003A20FCF7D4FF002201213620FCF7DAFF9F
:104B90003620FCF7CCFF002204214720FCF7D2FF8F
:104BA0004720FCF7C4FF12223E493F48FDF738FF7B
:104BB0003E48FDF783FBFBF701FF3D4C012204213A
:104BC0002046FCF7DDFE012210212046FCF7D8FE2E
:104BD0004FF47A70FCF7DCFDFEF7C2FA002135488D
:104BE000FDF770FD0C213348FDF76CFD324C4FF49E
:104BF0004875656325644FF4FA663046FCF7C8FDD6
:104C00003046FCF7C5FD3046FCF7C2FD3046FCF7E8
:104C1000BFFD3046FCF7BCFD40F2AA566663266431
:104C2000012226492648FDF747FF24492548163921
:104C3000254FDFF898A0DFF898B0DFF8989080460D
:104C4000C1F8180097ED0B0A8DED000A9AED0D0AD8
:104C50008DED010A98ED0D0A8DED020A9BED160B04
:104C600051EC100BFBF7EAFC039097ED0A0A1A4887
:104C70008DED040A90ED160B51EC100BFBF7DEFCEA
:104C800005902021684600F037F899F808000128BF
:104C900004D00228D6D165632564D3E76663266411
:104CA000D0E700004C030020F80100204001002064
:104CB000001C0240C800002000000140D603002074
:104CC000B8010020DC030020DC0600205C0400208A
:104CD000B80700205E0300205807002010B5FBF73E
:104CE000A1FD04484FF6300101804FF2D8514180B8
:104CF00010BD0000280000207CB504460DA00D4624
:104D0000006800900CA041F288360068019033469C
:104D1000022269460948FEF76CF8AAB233462146DA
:104D20000648FEF766F83346022201A90348FEF75B
:104D300060F87CBD03FC0000FC030000B80100200B
:104D400070B5354901F112020888C0F30A00A0F2DB
:104D500007401080054648788B78C00840EA431029
:104D6000C0F30A00A0F580605080CC789B0943EA2C
:104D700084040B7944EA8324C4F30A04A4F5806410
:104D800094805C084B7944EAC314C4F30A04A4F584
:104D90008064D4809C091472C3F301135372CB88CE
:104DA00053810B8993814B89D3810B7B13744B7B8C
:104DB0005374CB895382098A9182FBF7CCFB9FED18
:104DC000171B53EC112BFBF73EFAFBF7D5FB154CE9
:104DD00006B228462680FBF7BEFB9FED131B53EC63
:104DE000112BFBF7D4FAFBF7C7FB114900B2608027
:104DF0008E4200DA2180B4F900200E498A4200DD9B
:104E000021800D49884200DA6180B4F902100B4814
:104E1000814200DD608070BD4C0300200000000076
:104E200000409FC028000020000000000050A4C0E7
:104E3000D8F5FFFF88FAFFFFB8F2FFFFF8F8FFFF91
:104E4000000610160006101600000000000000000A
:104E50000102030406070809000000000102030420
:104E60004FBB610567ACDD3F182D4454FB21E93F82
:104E70009BF681D20B73EF3F182D4454FB21F93F71
:104E8000E2652F227F2B7A3C075C143326A6813CF7
:104E9000BDCBF07A8807703C075C143326A6913CA2
:104EA000C4EB98999999C9BF711623FEC671BCBF0E
:104EB0006D9A74AFF2B0B3BF9AFDDE522DDEADBF76
:104EC0002F6C6A2C44B4A2BF0D5555555555D53F8E
:104ED000FF8300922449C23F6E204CC5CD45B73FA9
:104EE000513DD0A0660DB13FEB0D76244B7BA93F21
:104EF00011DA22E33AAD903F184F0008000000207D
:104F0000A0000000D04A0008B84F0008A000002010
:104F1000780B0000E04A00080000000000000000DC
:104F20000000000001000000100000000000000070
:104F30000024F40000000000000000000000000059
:104F40000000000000000000010000000000000060
:104F50000000000000000000000000000000000051
:104F6000000000000000000067D4F0DF0705213FCB
:104F700002D8F0DF0705413F3542E9CF8B87493F33
:104F800002D8F0DF0705413F67D4F0DF0705213F76
:104F9000000000000000F03F922EAEAAF8DC0CC02A
:104FA00051FDF564FAEA1340D3F8DF11D8E208C0E6
:084FB00000FCC67588BAE73F5A
:04000005080001AD41
:00000001FF
