:020000040800F2
:10000000200C0020C10100089B3900084B2F00087C
:1000100099390008C10900084148000800000000A3
:10002000000000000000000000000000D13B0008BC
:10003000D90D000800000000C13A0008D33B0008B9
:10004000DB010008DB010008DB010008DB01000820
:10005000DB010008DB010008DB010008DB01000810
:10006000DB010008DB010008DB010008DB01000800
:10007000DB010008DB010008DB010008DB010008F0
:10008000DB010008DB010008DB010008310A000881
:10009000010A0008DB010008DB010008DB010008A1
:1000A000DB010008DB010008DB010008DB010008C0
:1000B000DB010008DB010008DB010008DB010008B0
:1000C000DB010008DB010008DB010008DB010008A0
:1000D000DB010008DB010008F9450008DB0100082E
:1000E000DB010008DB010008DB010008DB01000880
:1000F000DB010008DB010008DB010008DB01000870
:10010000DB010008DB010008DB010008DB0100085F
:10011000E1400008DB010008DD3C0008DB010008CD
:10012000DB010008DB010008210D0008DB010008ED
:10013000DB010008DB010008DB010008DB0100082F
:10014000DB010008DB010008DB010008DB0100081F
:10015000DB010008DB010008DB0100084146000864
:10016000DB010008DB010008DB010008DB010008FF
:10017000DB010008DB010008DB01000800000000D3
:10018000DB010008DB010008DB010008DB010008DF
:10019000DB010008DB010008DB010008DB010008CF
:1001A0000000000000000000DB010008DFF80CD0B8
:1001B00000F026FB00480047ED4C0008200C002012
:1001C0000648804706480047FEE7FEE7FEE7FEE7F1
:1001D000FEE7FEE7FEE7FEE7FEE7FEE7893C0008F4
:1001E000AD0100082DE9F05F0546002092469B46D0
:1001F00088460646814640241BE02846414647463D
:10020000224600F046FA53465A46C01A914110D38E
:1002100011461846224600F02DFA2D1A67EB010808
:100220004F4622460120002100F024FA17EB000976
:100230004E41201EA4F10104DFDC484631462A4627
:100240004346BDE8F09F2DE9FE4F804681EA03005A
:10025000C00F0C46009021F0004123F00045B8EBA0
:100260000200A94105D24046214690461C460B4655
:10027000024623F00040104347D0270DC7F30A0081
:10028000C3F30A510290401A019040286BDAC3F37D
:10029000130040F4801B0098924620B10023D2EB5B
:1002A000030A63EB0B0B01985946C0F1400250461C
:1002B00000F0E0F906460D4650465946019A00F016
:1002C000F8F910EB08006141002487EA115284EA32
:1002D000E7731A4340D0009A62B3019A012A4FEAA9
:1002E000075215DC001B61EB02014FF0004202EAED
:1002F0000752CDE90042001C41F5801132462B46E1
:1003000000F02FFA03B0BDE8F08F40462146F9E730
:10031000001B61EB0201001C41F5801300185B41DA
:100320002018A2F5001747EB030140EAD570B61973
:100330006D4111E06D084FEA360645EAC0754FEA97
:100340000752001B61EB0201001C41F580114908B6
:100350004FEA30000019514132462B4603B0BDE848
:10036000F04F00F0EFB90098012240000023D0EBDD
:10037000020263EBE073009821464FEAE074B8EBA9
:10038000000061EB0401E9E783F000435BE781F0E3
:10039000004158E72DE9FE4F81EA030404F00044D0
:1003A00021F0004100944FF0000B23F0004350EA8D
:1003B00001045ED052EA03045BD0C3F30A54C1F3D4
:1003C0000A552C44A4F2F3340194A0FB0254C1F367
:1003D000130141F48011C3F3130343F4801301FBB1
:1003E000024400FB034E840A970A44EA815447EA18
:1003F0008357A4FB076802958D0A05FB07854FEA22
:10040000932C04FB0C542705029D4FEA065847EA3B
:100410001637B5EB08056EEB070C870E920E47EA10
:10042000811742EA8312A7FB0201B6EB0B0164EBD2
:1004300000042B0D43EA0C335E1844EB1C50DA46E3
:100440005146E7FB0201C5F313044FEA0B3343EABD
:1004500014534FEA0432019C43EA0603A4F10C044E
:100460000294009CCDE900B400F07BF903B0BDE834
:10047000F08F00200146F9E72DE9F04D81EA0304F1
:1004800004F0004B21F0004514464FF0000A23F021
:10049000004150EA050220D054EA01021DD0C5F304
:1004A0000A570246C5F31303C1F31300C1F30A56FA
:1004B00040F4801543F48013A7EB0608101BD646C2
:1004C00008F2FD3873EB050002D308F1010801E0E2
:1004D00092185B41B8F1000F03DA00200146BDE835
:1004E000F08D00204FF48011064684460EE0171B65
:1004F00073EB050705D3121B63EB050306434CEAB8
:10050000010C49084FEA300092185B4150EA01079C
:10051000EDD152EA030012D082EA040083EA050119
:10052000084305D0101BAB4106D20122002306E090
:1005300000224FF0004302E06FF0010253101AEB6B
:1005400006004CEB085110EB0A0041EB0B01BDE833
:10055000F04D00F0F7B80EB5C10F80EAE070084426
:10056000CA07002140F233438DE80E000A460B46CD
:1005700000F0F7F803B000BD70B5C1F30A5201F006
:1005800000450024C1F3130140F2FF3341F4801110
:100590009A4201DA002070BD40F233439A42A2F23F
:1005A000334203DC524200F074F800E090402C43E8
:1005B000F1D0404270BD00F0004230F000400AD05F
:1005C000C10D01F56071C0F3160042EA0151C20885
:1005D00040071143704700200146704730B5041EA4
:1005E00071F1000404DB4FF00044404264EB010170
:1005F000141E73F1000405DB1C464FF00043524209
:1006000063EB04038B4208BF824230BD30B5041E49
:1006100071F1000404DB4FF00044404264EB01013F
:10062000141E73F1000405DB1C464FF000435242D8
:1006300063EB0403994208BF904230BD01F00043D0
:1006400030B421F0004150EA010206D00A0DA2F5B3
:100650006072C1F31301002A02DC30BC0020704735
:10066000440F44EAC104C100E01830BC00EBC250A2
:1006700000F031B8202A04DB203A00FA02F1002011
:1006800070479140C2F1200320FA03F319439040D0
:100690007047202A04DB203A21FA02F0002170473B
:1006A00021FA02F3D040C2F12002914008431946DA
:1006B0007047202A06DBCB17203A41FA02F043EAC2
:1006C000E07306E041FA02F3D040C2F1200291400B
:1006D0000843194670470029A8BF7047401C4900CD
:1006E00008BF20F00100704710B4B0FA80FC00FA97
:1006F0000CF050EA010404BF10BC704749B1CCF1C2
:10070000200421FA04F411FA0CF118BF012121434D
:100710000843A3EB0C01CB1D4FEA00614FEA102008
:1007200042BF002010BC704700EBC35010440029AA
:10073000A4BF10BC7047401C490008BF20F0010056
:1007400010BC704710B5141E73F1000408DA401C89
:1007500041F1000192185B411A4301D120F00100E0
:1007600010BD2DE9F04D92469B4611B1B1FA81F2D0
:1007700002E0B0FA80F220329046FFF77BFF044699
:100780000F4640EA0A0041EA0B0153465A46084325
:1007900013D0114653EA010019D0C8F14002504667
:1007A000FFF777FF05460E46504659464246FFF78B
:1007B00061FF084305D0012004E020463946BDE82A
:1007C000F08D0020054346EAE0762C4337430A9833
:1007D0006305E40AA0EB08000022FD0A44EA47543E
:1007E0000A3002D500200146E9E7010510196941E8
:1007F000DDE9084500196941BDE8F04DA2E70000B8
:10080000064C074D06E0E06840F0010394E807005D
:1008100098471034AC42F6D3FFF7CCFCD850000810
:10082000F850000800B500219FED562A9FED563A7A
:10083000F0EE431A9FED551ADFED550ABFEE080A98
:10084000544803F02BF90021DFED533AB0EE632A50
:10085000DFED522AB7EE001AF0EE621ADFED500A11
:100860004C48B0EE000A403803F018F90021B0EE11
:10087000622AF0EE431A9FED4B3A4648B0EE000A6A
:10088000B0EE431AF0EE430A803003F007F900217E
:100890009FED452ADFED451A3E48B0EE431AF0EED3
:1008A000430AB9EE040A403003F0F8F80021B0EE34
:1008B000632AF0EE621AB0EE431A9FED3D4AB0EEA5
:1008C000000A3C48F0EE440A03F0E8F839480021F9
:1008D0009FED392AF0EE621AB0EE431AF0EE440AA8
:1008E000B0EE000A403003F0D9F832480021B0EEF3
:1008F000632AF0EE621AB0EE431AF7EE000AB0EE89
:10090000000A403803F0CAF82A480021B0EE632AF2
:10091000F0EE621AB0EE431AF0EE440AB0EE000AAE
:10092000803003F0BBF823480021B0EE632AF0EEDC
:10093000621AB0EE431AF0EE440AB0EE000AC0307C
:1009400003F0ACF80021B0EE632AF0EE621AB0EECC
:10095000431AF0EE440AB0EE000A184803F09EF87D
:1009600016480021B0EE632AF0EE621AB0EE431A88
:10097000F0EE440AB0EE000A40305DF804EB03F0FC
:100980008DB8000000004844000096433333333FE5
:10099000CDCC4C3D2404002000803B4500007A442F
:1009A0000AD7233C000000000000FA4400007A450A
:1009B000CDCCCC3D240500200080BB452406002082
:1009C000FEE7000000B58BB000200121CDE9060153
:1009D00003900891049000900E21019002900991DB
:1009E00005906946054800F071FA0221034800F0BD
:1009F000F4F9024800F034FD0BB000BDA80000205F
:100A000010B5084B084A0021084800F0E6FA054AEC
:100A10000549064800F012F8BDE81040034800F010
:100A200059BB00000400002038030020A80000206B
:100A3000014800F04FBB0000A800002010B5096875
:100A40003248A1F201214FF480530A2911D2DFE884
:100A500001F005111D2935393D10454E118849BA5F
:100A60000180518849BA4180918849BA8180917941
:100A7000C18010BD118849BA0181518849BA4181AC
:100A8000918849BA81819179C18110BD118849BA93
:100A90000182518849BA4182918849BA818291790B
:100AA000C18210BD118849BA0183518849BA418376
:100AB000918849BA81839179C18310BD108841BA68
:100AC000134806E0108841BA124802E0108841BA83
:100AD00011480180518849BA418010BD108841BA3F
:100AE0000E4807E09942F8D9A1F50051F4E71088C3
:100AF00041BA0B4899420180548864BA8480928834
:100B000052BAC280EED289B2E6E70000A406002005
:100B100094030020A2030020B00300207C030020E7
:100B2000880300202DE9F04104462DED048B0420BC
:100B300004EBC001401E91ED0A0B002881ED0C0B67
:100B400091ED000B81ED020BF2DC94ED001B2E4FBA
:100B500084ED021B53EC112B97ED000B51EC100BA5
:100B6000FFF718FC012507F12808C4E90C0100BFB4
:100B700004EBC50608EBC50096ED0C0B90ED001BD1
:100B800053EC102B51EC110BFFF704FC41EC180B4C
:100B900007EBC50096ED021B90ED000B53EC112BFB
:100BA00051EC100BFFF7F6FB94ED0C1B53EC112BE3
:100BB000FFF749FB53EC182BFFF7E6FB9FED138B78
:100BC0009FED149B6D1C052DC4E90C01D0DB94ED49
:100BD0000C0B53EC182B84ED160B51EC100BFFF79C
:100BE00015FD01D284ED168B94ED160B53EC192BE9
:100BF00051EC100BFFF7F2FC01D284ED169BBDEC1B
:100C0000048BBDE8F08100005800002000000000C7
:100C10000000794000000000000079C0164800B5CF
:100C2000B0F90200164900EE100A1448B8EEC00AE6
:100C300080ED010AB1F9001000EE101AB8EEC00AFA
:100C400080ED000A02F0BAFE0E480F49B0F902002A
:100C500000EE100A0948B8EEC00A803080ED010AA3
:100C6000B1F9001000EE101AB8EEC00A80ED000ACB
:100C70005DF804EB02F0A2BE7C03002024040020F7
:100C800028000020880300202A000020134810B507
:100C900090ED160B51EC100BFFF7D0FC104948609B
:100CA00001F1400090ED0D0A403881ED000A02F09C
:100CB00085FE0C4890ED160B51EC100BFFF7BEFCB7
:100CC00007498031486001F1400090ED0D0A40383D
:100CD00081ED000ABDE8104002F070BEC0070020A0
:100CE000E4030020600700200A4A40F2FF2313605B
:100CF00000239360D36008231361074A030A13702B
:100D00005070080A9070D170131F0249034800F018
:100D100078B800002003002020000020A800002058
:100D200010B5034800F0E2FBBDE8104004F0F6B84F
:100D3000C002002001681823CAB2103AB2FBF3F2D5
:100D4000054B6FF30901032A9B5CC36500D9091D9C
:100D500081650846704700001C50000810B5014628
:100D600000208B698A6A4FF0C07453B1B3F5005FFD
:100D700015D072B1012A0CD0022A0AD0032A09D157
:100D800004E01AB1012A06D0022A03D1C96AC901B6
:100D900000D5012010BDC96AA142FAD010BD002AB9
:100DA000F7D0012AF2D0022AF3D0032AF3D010BDE3
:100DB00030B50468256825F48025256004686360E3
:100DC0008368402B036803D099600068C26030BD1F
:100DD0009A600068C16030BD704790F82020012AF9
:100DE00009D090F82020022A05D0416A41F48021E0
:100DF000416201207047006842690A434261002055
:100E00007047F0B590F82040012C07D090F82040B2
:100E1000022C03D0416A41F4802153E00468A568A4
:100E20006D0105D4A5682D0102D4A568ED0046D555
:100E3000A4680125C4F30164A5401D608D684FF4CA
:100E4000C0739DB1CE6835434E6845EAC605066855
:100E500003EB0417F5514FF4C275076805EB041551
:100E60000E697E51097D012905D009E00E88CD6803
:100E700045EA4655EBE701684E5946F480764E51F7
:100E80001179D2F805504FF4C67641EA052105687C
:100E900006EB0416A9511178D2F801204FF4C4755D
:100EA00041EA0221026805EB04155151006803EB89
:100EB0000411425842F0010242500020F0BD416A44
:100EC00041F4001141620120F0BD000010B590F81E
:100ED0002020012A09D090F82020022A05D0416A5A
:100EE00041F480214162012010BD3A48D0F800222F
:100EF00042F00102C0F80022D0F8002222F47C5215
:100F0000C0F80022D0F800224B6A42EA0322C0F85F
:100F100000220B7D01229A40D0F81C329343C0F886
:100F20001C32CB69B3B9D0F80C329343C0F80C3201
:100F30008C894B6864F31F434C6900EBC404C4F80C
:100F400040320C890B6864F31F434C6900EBC40406
:100F5000C4F84432CB69012B16D1D0F80C321343BC
:100F6000C0F80C320C884B6864F31F434C6900EBEB
:100F7000C404C4F840320C89CB6864F31F434C6945
:100F800000EBC404C4F844328B69002BD0F804325F
:100F90000ED01343C0F804320B69002BD0F8143282
:100FA00008D01343C0F81432096A012904D008E0BC
:100FB0009343EFE79343F5E7D0F81C121143C0F8D1
:100FC0001C12D0F8001221F00101C0F8001200201C
:100FD00010BD000000640040704730B590F820401C
:100FE000012C07D090F82040022C03D0416A41F434
:100FF000802109E011B1012909D00CE00468E468FE
:1010000007E0416A41F400114162012030BD0468EB
:101010002469A407F5D04FF4D874056804EB0114D3
:101020002D5915F00405956005682D5942D0ED083D
:10103000556005682C59C4F34004D4604FF4DA7449
:10104000056804EB01142D5905F00F0515610568BD
:101050002D59C5F30725956105682C59240C546159
:101060004FF4DC72046802EB0112A4581C7004688F
:10107000A458240A5C700468A458240C9C7004686A
:10108000A258120EDA704FF4DE72046802EB0112FD
:10109000A4581C710468A458240A5C710468A458FC
:1010A000240C9C710468A258120EDA7129B101292E
:1010B00009D00DE06D0D1560BBE70068C16841F017
:1010C0002001C16004E00068016941F02001016174
:1010D000002030BD2DE9F05F054600680024466918
:1010E000D0F804908768D0F80CB0D0F810A0D0F8F1
:1010F0001880F10748D0F90714D001218160B807A2
:1011000003D5284600F0D9F90CE0780702D54FF452
:10111000006407E0380702D54FF4805402E0284607
:1011200000F0CAF9F80516D529684FF48070886078
:10113000B80503D5284600F0C2F90CE0780502D5C1
:1011400044F4005407E0380502D544F4804402E03A
:10115000284600F0B3F9F80316D529684FF480301B
:101160008860B80303D5284600F0ABF90CE078039B
:1011700002D544F4004407E0380302D544F4803437
:1011800002E0284600F09CF9300707D55FEACB6003
:1011900004D52968102044F40074C86070074FF02B
:1011A000080707D55FEA0B7004D52868C760284692
:1011B00000F050F9B00706D52868C068800702D053
:1011C000284600F048F9700607D55FEACA6004D5E2
:1011D0002968102044F480640861B00607D55FEAEE
:1011E0000A7004D528680761284600F035F9F00632
:1011F00006D528680069800702D0284600F02DF93E
:10120000B00308D55FEAC96005D529681020486099
:10121000284600F023F9F00307D55FEA097004D5EA
:1012200028684760284600F04DF9300446D55FEA4B
:10123000497040D5F00504D55FEAC87001D044F08C
:101240000104B00504D55FEA887001D544F00204BA
:10125000700504D55FEA487001D544F004043005F8
:1012600029D518F0700F26D008F07000402815D04E
:1012700006DC102809D020280AD0302816D10AE030
:1012800050280ED0602811D10EE044F008040DE083
:1012900044F010040AE044F0200407E044F0400465
:1012A00004E044F0800401E044F48074286881691B
:1012B00021F070018161296804204860002C05D06C
:1012C000686A204368622846FFF786FEBDE8F09F03
:1012D00070B5040003D094F8200010B104E00120A0
:1012E00070BD204600F082F82068016821F00201FC
:1012F000016000F06FFB0546052604E000F06AFB84
:10130000401B0A2811D8206840688007F6D420685E
:10131000016841F00101016000F05CFB05460BE053
:1013200000F058FB401B0A2806D9606A40F40030E0
:10133000606284F82060D2E720684068C007EFD080
:10134000207E0128206801683DD021F080010160E5
:10135000607E01282068016838D021F040010160DA
:10136000A07E01282068016833D021F020010160AF
:10137000E07E0128206801682ED041F01001016054
:10138000207F01282068016829D021F00801016030
:10139000607F01282068016824D021F004010160E9
:1013A000D4E902010843D4E90412114308436168F7
:1013B000491E08432168C86100206062012084F84A
:1013C0002000002070BD41F08001C0E741F04001E5
:1013D000C5E741F02001CAE721F01001CFE741F055
:1013E0000801D4E741F00401D9E7000000B5006826
:1013F000154987B0884225D114480021026842F07F
:10140000007202600068022200F000700590032064
:10141000CDE90210CDE900020920049069460C488C
:1014200000F0ECF900221146132000F0AFFB13206E
:1014300000F0A1FB00220121142000F0A7FB1420E2
:1014400000F099FB07B000BD006400404038024046
:10145000000C0240704770477047704770470000AB
:1014600070B5044690F82000012804D0606A40F46A
:101470000020606218E0022084F8200020680168E3
:1014800021F00101016000F0A5FA05460EE000BF61
:1014900000F0A0FA401B0A2808D9606A40F4003026
:1014A0006062052084F82000012070BD206840683B
:1014B000C007EDD1606270BD7047704770477047DC
:1014C00070477047704790F83510022903D080218B
:1014D000416501207047052180F8351000680168DA
:1014E00021F0010101600020704700002DE9F84360
:1014F00004464FF00009CDF8009063484FF41651B0
:10150000A56D0068B0FBF1F72E6894F85C10082018
:1015100000FA01F131420FD021680A6852070BD559
:101520000A6822F004020A6094F85C108840A860FF
:10153000606D40F00100606594F85C104FF00108A8
:1015400008FA01F0304208D021684969090604D53B
:10155000A860606D40F00200606594F85C100420A3
:101560008840304208D021680968890704D5A860FE
:10157000606D40F00400606594F85C1010208840B5
:10158000304218D021680968090714D5A86020687E
:101590000168490304D50068000308D5A16C07E081
:1015A0000168C90503D4016821F008010160216CBC
:1015B00009B12046884794F85C10202088403042CA
:1015C00031D021680968C9062DD5A86094F8350086
:1015D00005282068016806D0490347D50068000344
:1015E0001DD4616C1CE021F0160101602068416986
:1015F00021F080014161206C08B9A06C20B1206805
:10160000016821F00801016094F85C103F208840D7
:10161000A86084F8349084F83580216D1FE0E16B78
:1016200009B120468847606D00282BD0606DC00747
:1016300014D0052084F835002068016821F00101EC
:1016400001600098401C0090B84203D820680068F0
:10165000C007F6D184F8349084F83580E16C002915
:1016600010D001B02046BDE8F04308470168C90525
:10167000D5D4016821F01001016084F8349084F819
:101680003580CCE7BDE8F883180000202DE9F04153
:10169000044600F09FF906465CB1002584F83450FA
:1016A000022084F835002068016821F00101016002
:1016B0000DE00120BDE8F08100F08CF9801B0528C9
:1016C00005D920206065032084F83500F2E7206802
:1016D0000068C007F0D12268116820480140D4E9B1
:1016E00001031843D4E903363343184363691843AD
:1016F000A3691843E3691843236A18430843616ADE
:10170000042903D1D4E90B1319430843106020685E
:101710004069666A20F0070130460E43012704281D
:101720000CD1A06A0643E06A40B12046FFF716FBE1
:1017300020B14020606584F83570BAE720684661C2
:101740002046FFF7F7FA94F85C203F219140816032
:10175000656584F835700020ACE700003F8010F02C
:101760002DE9F0410446866D90F8340000250128EB
:101770000DD0012084F8340094F835700020012F3A
:1017800007D084F8340002252846BDE8F081022005
:10179000FBE7022784F8357060652046FFF708FBF9
:1017A00094F85C103F208840B0602068016841F0E8
:1017B000160101602068416941F080014161206C9F
:1017C00020B12068016841F00801016020680168CB
:1017D00041F001010160D7E770B5044600F0FAF866
:1017E0000546601C02D004480078044400F0F2F87A
:1017F000401BA042FAD370BD0C0000202DE9F84F29
:10180000DFF890B100224FF001084FF0030A4FF0CB
:101810000F090BF1040E00BF0B6808FA02F4234015
:10182000A3426ED14D68022D01D0122D0ED1D508E4
:1018300000EB850CDCF820505607F70E09FA07F686
:10184000B5430E69BE402E43CCF8206006685500B3
:101850000F790AFA05FC07F0030726EA0C06AF40E9
:10186000374307604E68012E05D0022E03D0112E9B
:1018700001D0122E0ED18768CE6827EA0C07AE4041
:101880003E4386604668A6430C79C4F30014944036
:1018900034434460C4688E6824EA0C04AE40264396
:1018A000C6604C68E4006FD53B4C256845F4804524
:1018B0002560246822F0030504F480440094374C2A
:1018C0002E19D6F8084895072F0F09FA07F5AC43EB
:1018D000334DA84201D100252EE0324DA84201D15E
:1018E000012529E0304DA84201D1022524E02F4DE9
:1018F000A84201D103251FE02D4DA84202D10425A5
:101900001AE041E02B4DA84201D1052514E02A4DF3
:10191000A84201D106250FE0284DA84201D1072594
:101920000AE0274DA84201D1082505E0254DA8422F
:1019300001D1092500E00A25BD402543C6F8085815
:10194000DBF800405D464E689C43F60300D51C431F
:101950002C60DEF8004075464E689C43B60300D507
:101960001C432C600B4D08352C684E689C43F602D6
:1019700000D51C432C60074D0C352C684E689C43E9
:10198000B60200D51C432C60521C102AFFF444AF51
:10199000BDE8F88F003C014044380240003001406F
:1019A000000002400004024000080240000C024017
:1019B000001002400014024000180240001C0240C7
:1019C00000200240002402400AB1816170470904EE
:1019D000FBE7000001488068704700000C00002011
:1019E0000248816802781144816070470C00002031
:1019F0000B4810B5016841F400710160016841F4C1
:101A000080610160016841F480710160032000F091
:101A1000DDF8002000F006F800F024F8002010BDEA
:101A2000003C024070B50D4D04464FF47A712878A1
:101A3000B1FBF0F00A490968B1FBF0F000F09BFB44
:101A400048B9102C07D200222146501E00F09EF803
:101A500000206C6070BD012070BD00000C000020F3
:101A6000180000201F4808B5016841F4804101605A
:101A7000006800F4804000901A48001F016841F09F
:101A800080510160006800F080500090032000F059
:101A90009DF8002211466FF00B0000F077F800224D
:101AA00011466FF00A0000F071F8002211466FF045
:101AB000090000F06BF800221146501F00F066F894
:101AC00000221146101F00F061F800221146901EFE
:101AD00000F05CF80022BDE808401146501E00F0FE
:101AE00055B80000443802402DE9F04116460F4633
:101AF000040004D094F83900002518B107E0012053
:101B0000BDE8F08184F83850204600F0EFFE242034
:101B100084F839002068C16821F40051C160204672
:101B200002F0B0FB2068016921F490410161206856
:101B3000416921F02A0141612068016921F00F010A
:101B4000016120680169394301612068C16821F49D
:101B50000061C1602068C1683143C1602068C1680C
:101B600041F40051C160E563202084F8390084F815
:101B70003A000020C4E700F01F0201219140400913
:101B8000800000F1E020C0F800117047F0B40E4B67
:101B90001B680C46C3F30223C3F10705042D00D9CB
:101BA0000425191D072901D2002300E0DB1E0126B0
:101BB00006FA05F1491E214099409E40761E1640C6
:101BC0003143F0BC01F0EABE0CED00E0064900F044
:101BD000070208684FF6FF03184040EA0220034A54
:101BE00010430860704700000CED00E00000FA05AB
:101BF0002DE9F8431748016841F080510160006801
:101C0000154F00F08050012600903E64FFF7E2FE81
:101C100005464FF47A78114C05E000BFFFF7DAFE75
:101C2000401B40450DD86068C003F7D57E64FFF7C0
:101C3000D1FE0546464607E0FFF7CCFE401BB0420A
:101C400002D90320BDE8F88360688003F4D5002042
:101C5000F8E700004038024000000E4200700040EB
:101C60002DE9F0470E46050065D0DFF81481D8F85D
:101C70000000F7B200F00F00B04207D288F8007001
:101C8000D8F8000000F00F00B04254D128683D4C55
:101C9000810712D5400703D5206840F4E05020604A
:101CA0002878000703D5206840F460402060206851
:101CB000A96820F0F000084320602878C0072DD0E4
:101CC000304968680839012812D0022813D0032847
:101CD00011D00968890700292DDA216821F0030154
:101CE00001432160FFF776FE814641F2883A0EE01B
:101CF00009688903EFE709688901ECE7FFF76AFEE5
:101D0000A0EB0901514502D90320BDE8F087206806
:101D1000696800F00C00B0EB810FEFD1D8F800102B
:101D2000404601F00F01B14207D90770006800F08A
:101D30000F00B04201D00120E7E72878400705D521
:101D40002068E96820F4E050084320602878000704
:101D500006D52068296920F4604040EAC10020606F
:101D600000F03CF82168084AC1F30311515CC840F7
:101D7000064908600020FFF755FE0020C5E7000077
:101D8000003C02400838024024500008180000209F
:101D90000148006870470000180000200448054909
:101DA00000680968044AC1F38221515CC840704749
:101DB0001800002008380240345000080448054943
:101DC00000680968044AC1F34231515CC840704759
:101DD000180000200838024034500008154810B59B
:101DE000006810F00C02144813D01449042A0FD0D4
:101DF000082A0ED10F4C241F2268236802F03F02EC
:101E00005B0207D52068C0F38810A0FB010106E043
:101E1000084610BD2168C1F38811A1FB0001002311
:101E2000FEF7E0F92168C1F30141491C4900B0FB0C
:101E3000F1F010BD083802400024F400001BB70088
:101E40002DE9F84F050076D02878DFF8F8B2BE4CBF
:101E5000C00749D0DBF800105846C1F381010129C1
:101E600008D00068C0F3810002280AD1201D006854
:101E7000400206D52068800336D568680028E2D085
:101E800032E06868B0F5803F10D0B0F5A02F206830
:101E900010D020F480302060206820F48020206062
:101EA0006868A0B1FFF796FD06460CE0206840F494
:101EB0008030F4E740F480202060F7E7FFF78AFDE8
:101EC000801B642873D820688003F7D50CE0FFF7E7
:101ED00081FD064605E000BFFFF77CFD801B6428FE
:101EE000F0D820688003F7D42878DFF86082800774
:101EF0004FF000093ED5DBF80010584611F00C0FEA
:101F000009D00068C0F3810002280BD18D48001F62
:101F10000068400206D42068800715D5E8680128CB
:101F200009D111E0E868B8B10120C8F80000FFF756
:101F300051FD064605E002E1FFF74CFD801B02283B
:101F4000C0D820688007F7D52068296920F0F800FC
:101F500040EAC10020600DE0C8F80090FFF73AFDAC
:101F6000064604E0FFF736FD801B02281FD82068D4
:101F70008007F7D42878000722D5724E7448696923
:101F80006C3671B101210160FFF724FD074604E0C2
:101F9000FFF720FDC01B022809D830688007F7D55D
:101FA0000EE0C0F80090FFF715FD074605E083E05E
:101FB000FFF710FDC01B02287ED830688007F7D4D9
:101FC0002878400768D5DFF87CA100270AF1380A95
:101FD000DAF80000C0000BD4DAF8001041F08051AC
:101FE000CAF80010DAF80000012700F080500090D5
:101FF000584E3068C00510D4306840F480703060AE
:10200000FFF7E8FC009005E0FFF7E4FC0099401AB8
:10201000022851D83068C005F6D54A4EA8686836FF
:1020200001280FD00528306810D020F00100306062
:10203000306820F004003060A868B8B1FFF7CAFC2F
:1020400000900FE0306840F00100F4E740F0040039
:102050003060F7E7FFF7BEFC0099411A41F2883083
:10206000814264D830688007F4D50EE0FFF7B2FCF7
:10207000009007E0FFF7AEFC0099411A41F288306A
:10208000814254D830688007F4D42FB1DAF80010B8
:1020900021F08051CAF80010A869C0B3DBF8001025
:1020A000C1F3810102294AD00228484607D0C8F866
:1020B0006000FFF78FFC00E039E005463AE0474654
:1020C000C8F86000FFF786FC064604E0FFF782FCD4
:1020D000801B02282BD820688001F7D4D5E907019E
:1020E0000843A96A1C4A490802EB01416A6A41EAAD
:1020F0008211084395F82C1040EA01611148001F35
:10210000016001203866FFF765FC054605E014E034
:10211000FFF760FC401B022809D820688001F7D532
:102120000BE000BFFFF756FC401B022802D903203A
:10213000BDE8F88F20688001F4D40020F8E7012082
:10214000F6E700000838024000380240000047422D
:10215000800E4742007000400000FFFF4FF0E0217A
:102160000428086903D020F004000861704740F09B
:102170000400FAE7704710B5401EB0F1807F01D32C
:10218000012010BD4FF0E02460610F21601701F0C5
:1021900005FC0020A06107202061002010BD10B5C3
:1021A000FFF7E8FF10BD7047704710B590F8382072
:1021B000012A25D0012280F83820CA688C6822F4D0
:1021C000407222434C6822F4806222430C6822F45D
:1021D000006222430C6922F4805222434C6922F4AB
:1021E000005222438C6922F48042224322F40041AF
:1021F000026800232143516480F83830002010BD6C
:10220000022010BD30B590F83820012A20D00122DC
:1022100080F83820022380F8393003685C6824F0A5
:1022200070045C6003685C680D682C435C60036844
:102230009C6824F080049C6003689C6849680C4397
:102240009C6080F83920002180F83810084630BDA5
:10225000022030BD10B5040003D094F8390010B14D
:1022600007E0012010BD002084F83800204600F06F
:102270000DF8022084F83900211D206801F038FD96
:10228000012084F83900002010BD000008B5016865
:102290001748814208D11748016841F001010160E7
:1022A000006800F001000BE01248134A001F914241
:1022B00008D1016841F004010160006800F00400E9
:1022C000009008BD0D4A914207D1016841F010010C
:1022D0000160006800F01000F2E7094A9142F0D175
:1022E000016841F040010160006800F04000E7E74C
:1022F0000000014044380240000800400010004047
:10230000001800400168CA6842F00102CA60006813
:10231000016841F0010101600020704770B504467A
:1023200090F83800012817D0012584F83850022091
:1023300084F839002068826822F0770222F47F4214
:1023400082600868502837D00DDC202859D005DC81
:1023500088B3102841D151E0022070BD302853D0FD
:1023600040283AD13FE060282ED070280BD0B0F53D
:10237000805F03D0B0F5005F2FD110E02068816846
:1023800021F0070115E0CB68D1E90121206801F0B7
:102390001AFD2168886840F0770088601DE0CB68EE
:1023A000D1E90121206801F00EFD2068816841F427
:1023B0008041816011E01EE0CA684968206801F030
:1023C000CBFD5021206806E0CA684968206801F00A
:1023D000D4FD6021206801F000FD84F83950002010
:1023E00084F8380070BDCA684968206801F0B4FDFF
:1023F00040212068EFE700212068ECE710212068E9
:10240000E9E720212068E6E730212068E3E770470C
:1024100070B50446006801694FF00005C94389079B
:1024200015D4C168C943890711D4E91E016101208F
:102430002076206880698007204602D0FFF7E7FFFA
:1024400004E000F0DFF8204600F061F9257620680E
:102450000169C943490717D4C168C943490713D45F
:102460006FF004010161022020762068806910F479
:10247000407F204602D0FFF7CAFF04E000F0C2F818
:10248000204600F044F9257620680169C943090710
:1024900016D4C168C943090712D46FF0080101615D
:1024A000042020762068C0698007204602D0FFF70C
:1024B000AEFF04E000F0A6F8204600F028F92576EB
:1024C00020680169C943C90617D4C168C943C90650
:1024D00013D46FF010010161082020762068C069D4
:1024E00010F4407F204602D0FFF791FF04E000F097
:1024F00089F8204600F00BF9257620680169C94368
:10250000C90708D1C168C943C90704D1891E01613F
:10251000204600F019F920680169C943090609D469
:10252000C168C943090605D46FF0800101612046E6
:10253000FFF739FE20680169C943490609D4C1681B
:10254000C943490605D46FF040010161204600F0FF
:10255000FCF820680169C94389060BD4C168C943E6
:10256000890607D46FF0200101612046BDE8704064
:10257000FFF71ABE70BD000070B500681A4900254B
:10258000022486B0884213D14FF440708DE83100A8
:102590000126CDE9035669461448FFF72FF94FF499
:1025A000C0408DE83100CDE903566946104809E086
:1025B000104988420AD180148DE83100CDE90354D6
:1025C00069460D48FFF71AF906B070BD0B498842FD
:1025D000FAD14FF410708DE831000920CDE9035095
:1025E00069460748EEE70000000001400000024095
:1025F0000010024000080040000C0240001800409B
:10260000001C0240704770B5044690F838000D4633
:1026100001280DD0012684F83860022084F83900A2
:1026200042B1042A18D0082A2AD00C2A4DD139E008
:10263000022070BD206801F0D9FB2068816941F05B
:10264000080181612068816921F0040181612068AD
:1026500081692A69114311E0206801F0F3FB2068C9
:10266000816941F4006181612068816921F48061A0
:102670008161206881692A6941EA0221816124E03F
:10268000206801F011FC2068C16941F00801C161B6
:102690002068C16921F00401C1612068C1692A690B
:1026A000114311E0206801F02FFC2068C16941F45A
:1026B0000061C1612068C16921F48061C161206845
:1026C000C1692A6941EA0221C16184F839600020A8
:1026D00084F8380070BD10B5040003D094F83900B8
:1026E00010B107E0012010BD002084F8380020461A
:1026F00000F00CF8022084F83900211D206801F058
:10270000F7FA012084F83900002010BD70477047A7
:1027100010B504460068012201F04AFB0849206810
:10272000884202D00749884203D1416C41F40041FC
:1027300041642068016841F001010160002010BD82
:1027400000000140000401407047704708B5006870
:102750000168C943090705D40168416800914068D0
:102760000149C87008BD00003800002010F8391F6A
:10277000407808437047000070B50268044610684E
:10278000D168536910F00F0F50D003F0010501F428
:10279000907635435DD0C20705D0CA0503D5E26BFC
:1027A00042F00102E263420705D5DA0703D0E26B8B
:1027B00042F00202E263820705D5DA0703D0E26B3A
:1027C00042F00402E263020705D5DA0703D0E26BA8
:1027D00042F00802E263E26B002A33D0800604D59F
:1027E000880602D5204601F006FD20684069E16BAD
:1027F000C0F38010090700D428B3204601F0E4FCA0
:102800002068416949061AD5416921F040014161BA
:10281000606BA0B11B490165606BFEF754FE002898
:1028200010D0606B016DBDE870400847830610D57D
:102830008B060ED52046BDE8704001F0DCBC20467A
:10284000FFF784FF70BD2046FFF780FF0020E063A4
:1028500070BD030606D50B0604D52046BDE87040C2
:1028600001F066BE4006F3D54806F1D5D168204692
:1028700021F04001D160202184F8391000F064FB80
:1028800070BD00002941000870B5040004D094F820
:102890003900002510B106E0012070BD84F83850E1
:1028A000204600F023F8242084F839002068C1680D
:1028B00021F40051C160204601F0E4FC2068016968
:1028C00021F4904101612068416921F02A014161B0
:1028D0002068C16841F40051C160E563202084F89C
:1028E000390084F83A00002070BD00002DE9F04363
:1028F000074602684F4800244F4903250226DFF8A7
:102900003CC187B04FF00808824218D1086840F4F3
:1029100000200860086802AA00F400200590CDE9B4
:102920000056012082E8210169466046FEF766FFF5
:10293000002203213420FFF729F934205FE03E48CC
:102940003F4B001D4FF007099A4230D1016841F01A
:1029500010010160006802AA00F010000590C0207C
:10296000CDE9000682E8300269463648FEF746FFA8
:10297000364D354828604FF00060C5E90104401429
:10298000C5E9034080106C61C5E906404FF4403052
:10299000C5E908042846FEF779FE18B1C3212CA02A
:1029A00001F04FFF7D63AF6307B0BDE8F0832C4BB0
:1029B0009A4227D10868274640F40030086008682A
:1029C000CDE9026500F4003005900420CDE9000651
:1029D000694664466046CDF81090FEF70FFFCDE9DA
:1029E0000275CDE9008669462046CDF81090FEF7C5
:1029F00005FF002201212620FFF7C8F82620FFF757
:102A0000BAF8D1E717498A42CED1016841F02001D6
:102A10000160006802AA00F0200005904FF4844095
:102A2000CDE9000682E8300169460F48FEF7E6FE70
:102A3000BAE70000004C004040380240000002406D
:102A4000001001400004024040640240C002002027
:102A50002E2E2F5372632F75736172742E630000D4
:102A6000004400400014014000180240F8B504463C
:102A700090F83A0020283CD1C1B3BAB394F838009A
:102A8000012836D0012084F83800A162A2850025F3
:102A9000E563222084F83A00636B1748D863636BC0
:102AA00016481864636B1648D864606B1346056556
:102AB0000846666B216802463046091DFEF750FE47
:102AC000206801684168009184F83850C16841F479
:102AD0008071C1602068416941F001014161206855
:102AE000416941F0400141610020F8BDFFE701204C
:102AF000FBE70220F9E7000083410008BF4100081E
:102B00003941000890F83A30202B1DD1D1B1CAB11B
:102B100090F83830012B17D081628285C285002160
:102B2000C163222280F83A2080F8381001684A698F
:102B300042F001024A610068C16841F49071C160CD
:102B40000020704701207047022070472DE9F05F98
:102B5000BA4900252DED048B4FF0060E4FF0040A04
:102B600000684FF0010B88427DD1B54CB54A234631
:102B700094F801C0187893F8089001020FB2B3F9E5
:102B8000046009EB0001B3F90630C9B2BCF1090FCA
:102B90000CD2DFE80CF0050F161E252E343B440046
:102BA000262801D184F801B061785054BDEC048B23
:102BB000BDE8F09F252801D06570F5E7022161701E
:102BC000F2E7A78000F14B01217203216170D07000
:102BD000ECE73318A380217284F801A01071E5E7B7
:102BE0002D2801D17342A38021720521617050719B
:102BF000DCE7E780217284F801E09071D6E70344B6
:102C0000E380217207216170D071CFE72D2801D1B7
:102C10005B42E3802172082161701072C6E74FF4B5
:102C20007A73814575D150725220A0700122A11C87
:102C3000854800F02CF98548007A012872D1844E2D
:102C4000844FDFF814823078DFF81092DFF810A29A
:102C500001284AD1B4F90600FDF77DFC9FED819B68
:102C600053EC192B00E05FE0FDF794FB41EC100BF7
:102C700001F002FE9FED7D1B51EC100B53EC112B6C
:102C8000FDF788FB41EC180BB7F90200FDF763FC78
:102C900053EC182BFDF7D7FAFDF76EFCA8F80000EF
:102CA000B4F90400FDF757FC53EC192BFDF772FB48
:102CB00041EC100B01F0E0FD9FED6E1B51EC100B91
:102CC00053EC112BFDF766FB41EC180B86ED048BE2
:102CD000B9F90200FDF73FFC53EC182BFDF754FB4C
:102CE000FDF74AFCAAF800003570B9F90210BAF9EC
:102CF0000000081A1D303B2814D2B7F90210B8F9A9
:102D00000000081A6330C7280CD286F800B009E02A
:102D1000FFE7A580E5805720A0700122A11C4A484A
:102D200000F0B5F8657041E7544988422BD154480A
:102D3000014642780978082AF5D2DFE802F0040952
:102D40000B0D1012151EA529EDD180F801B02DE74D
:102D500002210DE003210BE080F801A026E7052108
:102D600006E080F801E021E7042903D0C5700721BF
:102D700041701BE780F803A0F9E7BDEC048BBDE8C8
:102D8000F05F00F0FDB93F498842CCD13E482D4A62
:102D9000837D2F48143A417801F07F0413554B0688
:102DA00002D11378242BBED1491C417001F07F0160
:102DB0000829817803D0027911448170F6E60379FD
:102DC000994238D1224B00215B1D5418E4785C54A1
:102DD000491C0429F9DB517864291FD069290FD0D7
:102DE000702928D1C168D0F805308B6192782D2ADE
:102DF00021D191ED060AB1EE400A81ED060A1AE0F2
:102E0000C168D0F80530CB6192782D2A13D191EDAD
:102E1000070AB1EE400A81ED070A0CE0C168D0F85C
:102E200005300B6292782D2A05D191ED080AB1EE9A
:102E3000400A81ED080A85704570B7E600440040FD
:102E4000BE030020D80600204002002066030020B8
:102E5000380000207C030020280000208803002088
:102E60002A0000200135B56CAD2F623F66666666AC
:102E700066608F4033333333336094400014014035
:102E80002C000020004C0040C803002070472DE9B2
:102E9000F843044690F839001F4616460D46202890
:102EA00050D1A5B19EB194F8380001284AD0012034
:102EB00084F838004FF00008C4F83C80212084F8E2
:102EC0003900FEF787FDA6848146E68426E00120CE
:102ED000BDE8F883E08C401EE084A0684B46B0F566
:102EE000805F4FF000024FF080012046009703D032
:102EF00001F04FFBE8B90DE001F04BFBC8B92888A1
:102F00002168C0F308004860206908B16D1C05E025
:102F1000AD1C03E0216815F8010B4860E08C002827
:102F2000D8D14B46002240212046009701F031FBCA
:102F300008B10320CCE7202084F8390084F83880D9
:102F40000020C5E70220C3E77047FEE770B50D4CCF
:102F50000025C4F894520C48016821F440710160C6
:102F6000016841F480710160C4F89052022004F5B8
:102F7000247401F095FE01206060022001F090FEB3
:102F8000656070BD0000424200100240034801210C
:102F9000C0F89412C0F8901270470000000042423E
:102FA00070B50D4C0025C4F894520C48016821F40A
:102FB00040710160016841F4807101600126C4F82C
:102FC0009062022004F5247401F06AFE666002201B
:102FD00001F066FE656070BD0000424200100240D4
:102FE0002DE9F047814616480024016821F440711C
:102FF000016001680160134E254627464FF0010825
:10300000C6F89472022001F04BFEC6F89482600666
:10301000040ED6F8100208B1641CE4B2012001F0DD
:103020003FFE6D1CEDB2082DEAD3B9F1000F04D0BC
:10303000FFF78CFF2046BDE8F087FFF7B1FFF9E707
:1030400000100240000042422DE9F04106461448BB
:10305000016821F440710160016841F480710160F0
:10306000104C0027C4F894723D464FF00108F00957
:10307000C4F890027006060E022001F011FEC4F89A
:103080009482022001F00CFEC4F89472022001F038
:1030900007FE6D1CEDB2082DE9D3BDE8F0810000FC
:1030A000001002400000424270B50D48016821F452
:1030B00040710160016841F480710160094C012098
:1030C000C4F89002C4F89402042004F5247401F0BA
:1030D000E7FD00252560042001F0E2FD656070BD7C
:1030E00000100240000042420E4810B5016821F471
:1030F00040710160016841F4807101600A4C002058
:10310000C4F89402C4F89002042004F5247401F079
:10311000C7FD012060602060BDE81040042001F080
:10312000BFBD0000001002400000424270B51248CE
:103130000024016821F440710160016801600F4DB5
:103140000126C5F89062304601F0AAFDC5F89462E8
:10315000012001F0A5FD07E0641CE4B2FA2C03D9BC
:10316000FFF7C2FF012070BDD5F810020028F3D18F
:10317000C5F8940270BD00000010024000004242F9
:103180000248C178002900D1417070472C0000200E
:103190001C4A10B5911E881E00F08EF8194A243A78
:1031A000911E881E00F06FF81648343830F8301F32
:1031B000428A891A0AB200EE102A02804188F8EE8B
:1031C000C00A9FED110A838A80EE801AC91A09B2DB
:1031D000418000EE901A8388C48AF8EEE00A1B1B37
:1031E0001BB2838000ED031A80EE801A00EE903A45
:1031F000F8EEE00A00ED021A80EE801A00ED011AE6
:1032000010BD0000180700203333834110B5FFF7CD
:10321000BDFE80216B2000F0F7F86420FEF7DCFA99
:1032200000216B2000F0F0F8032000F0B6F8002039
:1032300000F0AEF84FF47A74204600F0CEF800218A
:10324000382000F0E1F800216A2000F0DDF870215C
:10325000232000F0D9F88021372000F0D5F8752020
:1032600000F043F8682801D0012010BD01216B2037
:1032700000F0CAF800216C2000F0C6F8204600F0EB
:10328000ACF8002010BD7CB514460D4606466B46D2
:1032900006223B21682000F045F800280BD1BDF83C
:1032A000001049BA3180BDF8021049BA2980BDF832
:1032B000041049BA21807CBD7CB514460D460646F3
:1032C0006B4606224321682000F02CF800280BD121
:1032D000BDF8001049BA3180BDF8021049BA298002
:1032E000BDF8041049BA21807CBD10B50446FFF733
:1032F000DBFED020FFF7A8FEFFF718FF2046FFF700
:10330000A3FEFFF713FFFFF7CFFED120FFF79CFED0
:10331000FFF70CFF0020FFF763FE0446FFF7E4FE13
:10332000204610BD2DE9F0411D4614460F460646C5
:10333000FFF7BAFE7006000EFFF786FEFFF7F6FEF7
:1033400020B1FFF7D1FE0120BDE8F0813846FFF73C
:103350007BFEFFF7EBFEFFF7A7FE012000EB460028
:10336000C0B2FFF771FEFFF7E1FE09E0012C0DD0BE
:103370005FF00100FFF734FE641E05F8010BE4B2B4
:10338000002CF3D1FFF7B0FE0020DDE70020F1E7CD
:10339000C006010E1C2000F037B8C006010E1B202D
:1033A00000F032B80021FF2814D2BC2801D301213B
:1033B00010E0622801D302210CE02A2801D3032166
:1033C00008E0142801D3042104E00A2801D30521D0
:1033D00000E006211A2000F017B810B504464FF49B
:1033E0007A70844201D9044602E0042C00D20424FD
:1033F000B0FBF4F0401EC1B2192000F005F86008DF
:10340000BDE81040FFF7CEBF70B50C460546FFF78C
:103410004BFED020FFF718FEFFF788FE50B9284674
:10342000FFF712FEFFF782FE2046FFF70DFEFFF7C3
:103430007DFE18B1FFF758FE012070BDFFF754FE66
:10344000002070BD104810B50E4901600521416093
:1034500000214FF400328160C0E903125201426141
:103460000122027641768176C17601774277FDF7B7
:103470002FFF002805D0BDE81040452103A001F032
:10348000E0B910BD00640040A80000202E2E2F538C
:1034900072632F63616E2E6300000000054808B55B
:1034A000016841F480010160006800F48000009030
:1034B00008BD0000303802402DE9F041324886B0A6
:1034C0000024016841F040010160016801F0400101
:1034D0000591016841F010010160016801F01001DF
:1034E0000591016841F002010160016801F00201EB
:1034F0000591016841F008010160016801F00801CF
:103500000591016841F001010160016801F00101CC
:103510000591016841F08001016000681B4E00F0D8
:1035200080004FF400550590002229463046FEF7F2
:103530004BFA174F002230213846FEF745FADFF8E4
:103540005480002214214046FEF73EFA00950125E2
:10355000CDE90154694630460394FEF74FF9302017
:103560000090CDE90154694638460394FEF746F9C8
:1035700014200090CDE90154694640460394FEF7BB
:103580003DF906B0BDE8F081303802400018024035
:1035900000100240001C024010B524488CB02249A3
:1035A000016059210024C0E9011440F6C311C0E9AB
:1035B0000314FEF74FFE18B1D7211DA001F041F909
:1035C0004FF48050079007A91848FEF7A7FE18B1DE
:1035D000DD2117A001F035F91448FFF77CF818B188
:1035E000E22113A001F02DF9602000904FF47A70D1
:1035F000CDE90104002269460C480494FFF703F862
:1036000018B1EB210AA001F01CF904226946074811
:10361000FEF7F9FF18B1F02105A001F012F90348F7
:10362000FEF7AAFF0CB010BD001800408401002076
:103630002E2E2F5372632F74696D2E6300000000CD
:1036400030B5404895B03E490160B3210024C0E93F
:10365000011440F6C311C0E903144461FEF7FAFDFA
:1036600018B1442138A001F0ECF84FF480500E90CE
:103670000EA93448FEF752FE18B14A2132A001F0DB
:10368000E0F83048FFF727F818B14F212EA001F0DD
:10369000D8F8129412A92B481394FEF7B3FD18B171
:1036A000562129A001F0CDF8602000904FF47A75E2
:1036B000CDE90154039404940594002269462148FD
:1036C0000694FEF7A0FF18B162211FA001F0B9F81F
:1036D000042269461B480194FEF795FF18B1682142
:1036E00019A001F0AEF8082269461648FEF78BFFD4
:1036F00018B16D2114A001F0A4F80C2269461148FC
:103700000195FEF780FF18B173210FA001F099F821
:103710000794089409944FF400500A94CDE90B40A3
:1037200007A908480D94FEF740FD18B17F2106A0B7
:1037300001F087F80348FEF71FFF15B030BD000009
:1037400000000140D00000202E2E2F5372632F74F2
:10375000696D2E630000000010B525488EB0234926
:10376000016059210024C0E9011440F2CF71C0E981
:103770000314FEF76FFD18B193211EA001F061F84C
:103780004FF48050079007A91948FEF7C7FD18B1FC
:10379000992118A001F055F81548FEF79CFF18B1C3
:1037A0009E2114A001F04DF80B940BA910480C9425
:1037B000FEF728FD18B1A5210EA001F042F8602007
:1037C00000904FF4FA70CDE90104002269460848E0
:1037D0000494FEF718FF18B1AE2106A001F031F8ED
:1037E0000348FEF7C9FE0EB010BD000000080040FF
:1037F0000C0100202E2E2F5372632F74696D2E63DF
:10380000000000001CB510480E4900240160592139
:10381000C0E9011440F2E731C160FEF71BFD18B1A9
:10382000BF210AA001F00DF80094694606480194F2
:10383000FEF7E8FC002803D0C62104A001F001F83F
:103840001CBD000000100040480100202E2E2F5308
:1038500072632F74696D2E63000000000D4810B56F
:103860000B4901604FF416514160002181600C2228
:10387000C160C0E904128161C161FFF705F8002849
:1038800005D0BDE81040462103A000F0DABF10BD0E
:10389000004C0040C00100202E2E2F5372632F7564
:1038A000736172742E6300000D4810B50B490160FE
:1038B0000C494160002181600C22C160C0E9041202
:1038C00081610A46C161FEF70FF9002805D0BDE805
:1038D0001040592104A000F0B4BF10BD00100140F9
:1038E00000020020A08601002E2E2F5372632F7538
:1038F000736172742E6300000E4810B50C490160AC
:103900004FF4E1314160002181600C22C160C0E9C7
:10391000041281610A46C161FEF7E6F8002805D06D
:10392000BDE810406C2104A000F08BBF10BD00006A
:1039300000440040400200202E2E2F5372632F754A
:10394000736172742E6300000E4810B50C4901605B
:103950004FF4E1314160002181600C22C160C0E977
:10396000041281610A46C161FEF7BEF8002805D045
:10397000BDE810407F2104A000F063BF10BD00002F
:1039800000140140800200202E2E2F5372632F75E9
:10399000736172742E630000FEE770470907090E19
:1039A000002806DA00F00F0000F1E02080F8141D76
:1039B000704700F1E02080F800147047D0ED000A55
:1039C00090ED010A90F83C10D0ED062A30EEC00AC6
:1039D00090ED072AD0ED081AD0ED040AD1B1C0ED60
:1039E000050A90ED031A80ED041A30EE413A80ED9D
:1039F000030A63EE222A40EE022AB0EE002A01EE0C
:103A0000420A30EE200A40EE212A90ED0D0A32EEF5
:103A1000800A2DE0C0ED030A80ED040A90ED021A41
:103A200031EE001A80ED021A90ED0C3AB4EEC31A92
:103A3000F1EE10FA06DCB1EE433AB4EEC31AF1EE41
:103A400010FA01D280ED023A22EE801A30EE600ABE
:103A500080ED091AD0ED022A20EE210A22EE222A58
:103A600080ED0A2A71EE020A80ED0B0A30EE800A20
:103A700080ED0D0AF0EE400A90ED0E0AF4EEC00A59
:103A8000F1EE10FA06DCB1EE400AF4EEC00AF1EEF7
:103A900010FA01D280ED0D0A7047000000F1180203
:103AA00082EC030A9FED050A80ED020AC0ED0C1AB4
:103AB00080ED0E2A80F83C107047000000000000E6
:103AC0007047000030B40D4B40F2FF141C6000241E
:103AD0009C60DC6008241C61094B040A1C7058704F
:103AE000080A9870D970100A18715A711B1F30BCDF
:103AF0001A1D02490348FDF784B900002003002085
:103B000020000020A80000202A4A00B5117A2A4887
:103B10009FED2A4ADFED2A3A012902D1517A012983
:103B200013D0C0ED003A2749B1F9021000EE101A87
:103B3000B8EEC00A80ED010A1F48FFF73FFF1E489C
:103B4000117A4030012903D005E080ED004AEAE710
:103B5000517A022914D0C0ED003A1B49B1F9021084
:103B600000EE101AB8EEC00A80ED010A124840308B
:103B7000FFF724FF1048117A8030022903D005E0B6
:103B800080ED004AE9E7517A012910D0C0ED003AF2
:103B90000E49B1F9021000EE101AB8EEC00A80ED1D
:103BA000010A05485DF804EB8030FFF707BF80EDA0
:103BB000004AEDE766030020E404002000007A4498
:103BC00000000000B003002094030020A2030020A6
:103BD000704710B5FDF704FFBDE81040FEF7DFBAEF
:103BE00030B5274893B00025016841F0805101604D
:103BF000006800F0805011902248016841F4404173
:103C000001600068022400F44040119001200090FF
:103C1000000401908001CDE9064006200890B42000
:103C2000CDE9090404200B906846FEF709F900B1BC
:103C3000FEE7FDF7DDFF00B1FEE70CA90F2081E8EC
:103C400031004FF4A0500F904FF480501090052198
:103C50000CA8FEF705F800B1FEE7FEF799F84FF45F
:103C60007A71B0FBF1F0FEF786FA0420FEF776FADF
:103C700000221146501EFDF789FF13B030BD000031
:103C800040380240007000401048016841F4700163
:103C900001600F48016841F0010101600C4A0021F8
:103CA0000832116002680B4B1A400260031D0A4A79
:103CB0001A60026822F48022026005480C3001601C
:103CC00002495806803908607047000088ED00E01E
:103CD00000380240FFFFF6FE1030002410B500F05F
:103CE0005FF9BDE810400148FEF792BB4801002093
:103CF000F0B50268234B244D244E254F254C4FF040
:103D0000804C984209D0604507D0A84205D0B04207
:103D100003D0B84201D0A04204D122F0700E4A680C
:103D200042EA0E0298421BD0604519D0A84217D033
:103D3000B04215D0B84213D0A04211D0164DA842BF
:103D40000ED0164DA8420BD0154DA84208D0154DE7
:103D5000A84205D0144DA84202D0144DA84203D168
:103D600022F44075CA682A4302608A68C2620A68FF
:103D70008262984201D0A04201D109690163012108
:103D80004161F0BD00000140000400400008004017
:103D9000000C00400004014000400140004401408C
:103DA0000048014000180040001C00400020004076
:103DB00010B50123046A8B409C430462036A8A4065
:103DC0001343036210BD10B5846842EA032224F451
:103DD0007F440A432243826010BD826822F0700251
:103DE0000A4342F0070181607047000030B5026A63
:103DF00022F001020262026A436884690D6824F0BD
:103E00007304254322F002048A6822430B4CA0422B
:103E100002D00B4CA0420BD122F00804CA6823F454
:103E2000407322434C6922F004021C438B692343F4
:103E30004360856149684163026230BD0000014012
:103E40000004014030B5026A22F010020262026AE8
:103E5000436884690D6824F4E64444EA05248D68C7
:103E600022F0200242EA05120D4DA84202D00D4D6B
:103E7000A8420ED1CD6822F0800242EA05124D69B7
:103E800023F4406343EA85038D6922F0400243EA4C
:103E900085034360846149688163026230BD00002C
:103EA000000001400004014030B5026A22F4807233
:103EB0000262036A4268C46923F4007324F0730544
:103EC0000C682C438D6843EA05230D4DA84202D0AF
:103ED0000C4DA8420ED1CD6823F4006343EA0523BC
:103EE0004D6922F4405242EA05128D6923F4806341
:103EF00042EA05124260C4614968C163036230BD91
:103F0000000001400004014030B5026A22F48052F2
:103F10000262046A4268C3690D6823F4E64343EA17
:103F200005238D6824F4005444EA0534084DA84262
:103F300002D0084DA84204D14D6922F4804242EAE1
:103F400085124260C36149680164046230BD0000AB
:103F5000000001400004014010B5036A046A24F027
:103F600001040462846924F0F00444EA021423F09A
:103F70000A020A438461026210BD10B5036A23F08D
:103F8000100303628369046A23F4704343EA023234
:103F900024F0A00343EA01118261016210BD000018
:103FA00070B5404C2088401C2080FFF7F1F83E4D52
:103FB000A86AFCF700FB3D4AC2E900011046FCF785
:103FC000B1FDE86AFCF7F7FA394AC2E90001104688
:103FD000FCF7A8FDFCF75AFE20880A21B0FBF1F29D
:103FE00001FB1200F8B9FFF78FFDFCF717FE00F098
:103FF00071FB304890ED0D0ABDEEC00A10EE100ABC
:1040000002B22D4890ED0D0ABDEEC00A10EE100A66
:1040100001B22A4890ED0D0ABDEEC00A10EE100A5A
:1040200000B2FFF74FFD26482649284A90ED0D0AB9
:10403000BDEEC00A10EE100A00B24881224991ED8F
:104040000D0ABDEEC00A10EE101A09B25181FCF73C
:104050004BFE1F4890ED0D0ABDEEC00A10EE100A8F
:1040600003B21C4890ED0D0ABDEEC00A10EE100A16
:1040700002B2194890ED0D0ABDEEC00A10EE100A0A
:1040800001B2164890ED0D0ABDEEC00A10EE100AFE
:1040900000B200F0FBFA2088B0F57A7F01D300204F
:1040A000208070BD30000020E4060020C007002002
:1040B00060070020E404002064050020240500209F
:1040C000E40300207C030020640400208803002017
:1040D0006406002024060020E4050020A40500203A
:1040E00070B50E48FEF748FB0D4C0025256002E038
:1040F0002068401C20600948FEF738FB2028F7D1D3
:104100002560084D02E02068401C206001222946FD
:104110000248FEF7F7FC0028F5D170BDC001002071
:1041200000000020DE03002010B5806B0021C18557
:10413000C184FEF70BFB10BD70B5846B206840692D
:1041400094F83910C0F3C0100025212904D118B10A
:10415000E584204600F046F82068406994F83A105B
:10416000C0F38010222904D118B1E585204600F063
:104170002BF8E06B40F01000E0632046FEF7E6FA13
:1041800070BD10B50146806B09680968C90513D474
:104190000021C1850168CA6822F48072CA60016882
:1041A0004A6922F001024A6101684A6922F040022C
:1041B0004A61202180F83A10FEF7C8FC10BD10B506
:1041C000806BFEF763FE10BD0168CA6822F490722E
:1041D000CA6001684A6922F001024A61202180F820
:1041E0003A1070470168CA6822F0C002CA602021F4
:1041F00080F83910704710B590F83A10222901D094
:10420000022010BD8168B1F5805F11D001690029DD
:1042100001681FD0496801F07F03816A4A1C8262ED
:104220000B70C18D491E0904090CC18518D026E008
:104230000269816A002A0268526805D0D2B20A80F7
:10424000816A491C8162ECE7C2F308020A80816A34
:10425000891CF7E74A68816A4B1C83620A70E0E7B1
:104260000168CA6822F49072CA6001684A6922F043
:1042700001024A61202180F83A10FEF767FC002015
:1042800010BD00002DE9F04104460068016921F4E9
:104290004052E168114301612168C86849F20C622B
:1042A00090432369A268E5691A4363692B431A4363
:1042B0000243CA602168486920F44072A069104333
:1042C0004861E1696425B1F5004F9748974A216834
:1042D0004FF032083FD0914201D081427CD1FDF7AE
:1042E0006DFD00EBC00101EB001061688900B0FBBF
:1042F000F1F6FDF763FD00EBC00101EB0010616812
:104300008900B0FBF1F0B0FBF5F06FF01801484305
:1043100006EB800108EB0110B0FBF5F000F0F006B1
:10432000FDF74CFD00EBC00101EB00106168890056
:10433000B0FBF1F0B0FBF5F006EB0016FDF73EFD2B
:1043400000EBC00101EB001061688900B0FBF1F7E0
:10435000FDF734FDD2E0914201D081423DD1FDF71D
:104360002DFD00EBC00101EB001061684900B0FBBE
:10437000F1F0B0FBF5F00601FDF720FD00EBC00108
:1043800001EB001061684900B0FBF1F7FDF716FD85
:1043900000EBC00101EB001061684900B0FBF1F0D7
:1043A000B0FBF5F06FF01801484307EB800108EB14
:1043B000C100B0FBF5F000F0F80006EB4006FDF799
:1043C000FDFC00EBC00101EB001061684900B0FB8F
:1043D000F1F7FDF7F3FC3CE055E0FDF7DFFC00EB07
:1043E000C00101EB001061684900B0FBF1F0B0FBC7
:1043F000F5F00601FDF7D2FC00EBC00101EB001067
:1044000061684900B0FBF1F7FDF7C8FC00EBC001A3
:1044100001EB001061684900B0FBF1F0B0FBF5F072
:104420006FF01801484307EB800108EBC100B0FBB7
:10443000F5F000F0F80006EB4006FDF7AFFC00EBEE
:10444000C00101EB001061684900B0FBF1F7FDF716
:10445000A5FC00EBC00101EB001061684900B0FB56
:10446000F1F0B0FBF5F06FF01801484307EB800165
:1044700008EBC100B0FBF5F000F007002168304404
:104480008860BDE8F081FDF789FC00EBC00101EB1D
:10449000001061688900B0FBF1F6FDF77FFC00EBCE
:1044A000C00101EB001061688900B0FBF1F0B0FBC6
:1044B000F5F06FF01801484306EB800108EB01109E
:1044C000B0FBF5F000F0F006FDF768FC00EBC00172
:1044D00001EB001061688900B0FBF1F0B0FBF5F072
:1044E00006EB0016FDF75AFC00EBC00101EB0010D3
:1044F00061688900B0FBF1F7FDF750FC00EBC001EB
:1045000001EB001061688900B0FBF1F0B0FBF5F041
:104510006FF01801484307EB800108EB0110B0FB76
:10452000F5F000F00F00A9E7001401400010014071
:1045300090F83910212901D0022070478168B1F527
:10454000805F016A0BD04A1C0262026809785160E0
:10455000C18C491E0904090CC1840ED017E00988DA
:104560000268C1F30801516001690029016A02D0A3
:10457000491C0162ECE7891CFBE70168CA6822F06C
:104580008002CA600068C16841F04001C16000203B
:1045900070472DE9F041984617460E460446069DA1
:1045A0001DE0681C1BD02DB1FDF714FAA0EB08002C
:1045B000A84214D92068C16821F4D071C160206874
:1045C000416921F001014161202084F8390084F81B
:1045D0003A00002084F838000320BDE8F08120680C
:1045E000006836EA000004D00020B842D9D000208C
:1045F000F3E70120F9E7000070B50E48FEF7BCF8BC
:104600000D4C0025256002E02068401C2060094810
:10461000FEF7ACF82028F7D1256002E02068401CA6
:104620002060012205490348FEF76CFA0028F5D105
:1046300070BD00004002002000000020BE030020EA
:1046400070B50E48FEF798F80D4C0025256002E085
:104650002068401C20600B48FEF788F82028F7D11E
:10466000256002E02068401C2060012206490348C2
:10467000FEF748FA0028F5D170BD00008002002046
:1046800000000020400200202C00002030B40E4C1E
:104690004FF4007525600025A560E56008252561BB
:1046A0000A4C050A25706070080AA070E170100AB3
:1046B00020716271180AA071E371231F30BC1A1DAA
:1046C00001490348FCF79DBB200300202000002087
:1046D000A800002070B5544D544CA5F580762DED02
:1046E000048BB5F9020000EE100AB8EEC00A86EDA0
:1046F000010AB4F90600B4F904100844B4F9001032
:104700000844FBF728FF9FED4A8B53EC182BFBF76F
:10471000B3FE9FED499B53EC192BFBF73BFEFBF7D8
:104720002BFF00B200EE100A3046B8EEC00A86ED4C
:10473000000AFFF743F9B5F90A00403600EE100A07
:10474000B8EEC00A86ED010AB4F90600B4F9041007
:10475000401AB4F900100844FBF7FDFE53EC182B87
:10476000FBF78AFE53EC192BFBF714FEFBF704FF53
:1047700000B200EE100A3046B8EEC00A86ED000A1C
:10478000FFF71CF9B5F91200403600EE100AB8EE3A
:10479000C00A86ED010AB4F90600B4F90410084411
:1047A000B4F90010081AFBF7D6FE53EC182BFBF7F0
:1047B00063FE53EC192BFBF7EDFDFBF7DDFE00B2BA
:1047C00000EE100A3046B8EEC00A86ED000AFFF788
:1047D000F5F8B5F91A00403D00EE100AB8EEC00A2F
:1047E00085ED010AB4F90400B4F90610401AB4F9D1
:1047F00000100844FBF7AFFE53EC182BFBF73CFE10
:1048000053EC192BFBF7C6FDFBF7B6FE00B200EE2A
:10481000100A2846B8EEC00A85ED000ABDEC048BEC
:10482000BDE87040FFF7CAB8A40600206603002068
:104830000000000000A08440000000000088B34099
:10484000FEE7FEE703B401984100009850EAC1205A
:1048500018BF04204A0D18BF40F0010040F2FF725B
:10486000B2EB515F08BF40F00200012808BF0520ED
:1048700002B070470000000070B59B482DED020BA0
:104880002DED068B079D25F00044A04218DC9748CB
:10489000844202DC0AD1069840B19DED060BBDECC6
:1048A000068B02B0BDE8704000F0CEB9002DCCBF41
:1048B0009FED8F0B9FED900BBDEC068B02B070BD92
:1048C0008F48A04215DD8F48A042D8BF4FF0FF347B
:1048D00058DD9DED060B51EC100BFFF7B3FF0428DC
:1048E00008BF00F0BDF99DED060BBDEC068B02B0D4
:1048F00070BD9DED060B51EC100B00F0EBF9CDE90E
:10490000060181489FED828BA0423CDD8248A04297
:104910001FDD00249FED82AB9DED060B53EC1A2B9F
:1049200051EC100BFBF78FFC9DED060B41EC190BC6
:1049300053EC1A2B51EC100BFBF72CFD53EC182BFE
:10494000FBF722FD53EC192BFBF796FDCDE9060191
:1049500049E09DED060B012453EC182B51EC100B94
:10496000FBF771FC9DED060B41EC190B53EC182B7A
:1049700051EC100BFBF708FD53EC192BFBF77CFDFA
:10498000CDE906012FE06848A0421FDD02249FED1B
:10499000689B9DED060B53EC192B51EC100BFBF7AC
:1049A000F9FC53EC182BFBF74EFC9DED060B41EC8C
:1049B000180B53EC192B51EC100BFBF7E5FC53ECE7
:1049C000182BFBF759FDCDE906010CE09DED060B18
:1049D000032453EC102B9FED580B51EC100BFBF7FD
:1049E0004BFDCDE906019DED060B53EC102B51EC70
:1049F000100BFBF7CFFC41EC180B53EC182BFBF71B
:104A0000C9FC41EC190B4E480621B0EE490AF0EE04
:104A1000690A784400F09CF853EC182B51EC100B09
:104A2000FBF7B8FC41EC180B4648B0EE490AF0EE33
:104A3000690A0521784400F08BF853EC192B51ECEE
:104A4000100BFBF7A7FC41EC100B51EC180B53ECCF
:104A5000102B002C0EDAFBF7F6FB9DED061B53EC3A
:104A6000112BFBF797FC9DED061B53EC112BFBF76D
:104A70008EFC35E0FBF7E7FB9DED061B53EC112B9D
:104A8000FBF788FC41EC100B2F48784400EBC40086
:104A900090ED001B51EC100B53EC112BFBF774FC49
:104AA0009DED061B53EC112BFBF76EFC41EC100B3C
:104AB0002648784400EBC40090ED001B51EC100B2D
:104AC00053EC112BFBF763FC41EC100B002DA2BF44
:104AD000BDEC068B02B070BD51EC100B81F00041B3
:104AE00041EC100B01E70000000010440000F07FD3
:104AF000182D4454FB21F93F182D4454FB21F9BFD4
:104B00000000DC3F0000203E0000F33F00000000FA
:104B1000000000000000F03F0000E63F0000000041
:104B20000000000000000040008003400000000082
:104B3000000000000000F83F000000000000F0BF8F
:104B40009206000048060000D20500008A05000019
:104B500070B504462DED028B4D1E00EBC500B0EE86
:104B6000408AF0EE608A90ED000B35F0060017D019
:104B700053EC182B51EC100BFBF70CFC41EC100B19
:104B80006D1E04EBC50090ED001B51EC100B53ECB7
:104B9000112BFBF758FB41EC100B35F00600E7D169
:104BA000022D36D0042D1CD0062D1CBFBDEC028B6F
:104BB00070BD53EC182B51EC100BFBF7EBFB94ED95
:104BC0000A1B53EC112BFBF73EFB53EC182BFBF7A6
:104BD000E1FB94ED081B53EC112BFBF734FB41EC8C
:104BE000100B53EC182B51EC100BFBF7D3FB94ED8F
:104BF000061B53EC112BFBF726FB53EC182BFBF792
:104C0000C9FB94ED040B53EC102BFBF71CFB41ECA0
:104C1000100B53EC182B51EC100BFBF7BBFB94ED76
:104C2000021B53EC112BFBF70EFB53EC182BFBF77D
:104C3000B1FB94ED001B53EC112BFBF704FBBDEC17
:104C4000028B41EC100B70BD10B553EC102B51ECE6
:104C5000100BFBF7F8FA41EC100B10BD0000000040
:104C60009FED050B10B553EC102B51EC100BFBF71F
:104C700091FB41EC100B10BD000000000000001083
:104C800002E008C8121F08C1002AFAD17047704715
:104C9000002001E001C1121F002AFBD17047000073
:104CA00070B54FF0E024002265690949A3690978CD
:104CB0004843A1699942FCD002D2A3EB010302E070
:104CC000A5EB010633441A440B468242F1D370BD72
:104CD0005000002082B0CDE9000121F00040019099
:104CE0009DED000B02B051EC100B704788B0FCF743
:104CF0007FFEFEF775FF00F0DFF8FEF7DDFBFEF745
:104D0000CDFBFEF79FFBFEF727FDFEF77BFDFEF7D1
:104D100043FCFEF7A3FDFEF7C7FDFEF715FEFEF709
:104D2000EBFDFEF78DFC002211463A20FCF72EFF2A
:104D30003A20FCF720FF002201213620FCF726FF55
:104D40003620FCF718FF002204214720FCF71EFF45
:104D50004720FCF710FF122246494748FDF786FE20
:104D60004648FDF7CFFAFBF72DFE454C0122042102
:104D70002046FCF729FE012210212046FCF724FEE4
:104D80004FF47A70FCF728FDFEF740FA00213D4809
:104D9000FDF7BEFC0C213B48FDF7BAFC0421394865
:104DA000FDF7B6FC08213748FDF7B2FC364C4FF44E
:104DB000487BC4F834B0C4F840B0C4F838B0C4F884
:104DC0003CB0012231493248FDF79CFE01223149B5
:104DD0003148FDF797FE2D4930481639304D314F97
:104DE000DFF8C480DFF8C490DFF8C4A0314E8861DA
:104DF00095ED0B0A8DED000A97ED160B51EC100B9B
:104E0000FBF71CFC019095ED0A0A8DED020A98ED66
:104E1000160B51EC100BFBF711FC0390B9F90200D3
:104E2000202100EE100AB8EEC00A8DED040ABAF98E
:104E3000020000EE100A6846B8EEC00A8DED050AC1
:104E400000F048F8307A01280BD002280ED0032851
:104E5000CED15846C4F834B0C4F840B0A063E06383
:104E6000C6E740F2AA5060632064C1E740F29E703A
:104E7000F4E7000054030020000200204801002055
:104E8000001C0240D000002000000140DE03002092
:104E9000C00100202C00002080020020E40300203C
:104EA000E406002060070020C00700207C030020EB
:104EB000880300206603002010B5FBF7B3FC04480C
:104EC0004FF6300101804FF2D851418010BD0000F3
:104ED000280000207CB504460DA00D460068009017
:104EE0000CA041F2883600680190334602226946E0
:104EF0000948FDF7CCFFAAB2334621460648FDF724
:104F0000C6FF3346022201A90348FDF7C0FF7CBD5E
:104F100003FC0000FC030000C001002070B535490F
:104F200001F112020888C0F30A00A0F58060108029
:104F3000054648788B78C00840EA4310C0F30A0061
:104F4000A0F580605080CC789B0943EA84040B79FB
:104F500044EA8324C4F30A04A4F5806494805C08C2
:104F60004B7944EAC314C4F30A04A4F58064D480E2
:104F70009C091472C3F301135372CB8853810B89BC
:104F800093814B89D3810B7B13744B7B5374CB89F7
:104F90005382098A9182FBF7DEFA9FED171B53ECCF
:104FA000112BFBF750F9FBF7E7FA154C06B2284630
:104FB0002680FBF7D0FA9FED131B53EC112BFBF768
:104FC000E6F9FBF7D9FA114900B260808E4200DAA7
:104FD0002180B4F900200E498A4200DD21800D496C
:104FE000884200DA6180B4F902100B48814200DD8A
:104FF000608070BD540300200000000000409FC08E
:1050000028000020000000000050A4C0D8F5FFFFD9
:1050100088FAFFFFB8F2FFFFF8F8FFFF000610164E
:10502000000610160000000000000000010203044A
:105030000607080900000000010203040000000048
:105040004FBB610567ACDD3F182D4454FB21E93FA0
:105050009BF681D20B73EF3F182D4454FB21F93F8F
:10506000E2652F227F2B7A3C075C143326A6813C15
:10507000BDCBF07A8807703C075C143326A6913CC0
:10508000C4EB98999999C9BF711623FEC671BCBF2C
:105090006D9A74AFF2B0B3BF9AFDDE522DDEADBF94
:1050A0002F6C6A2C44B4A2BF0D5555555555D53FAC
:1050B000FF8300922449C23F6E204CC5CD45B73FC7
:1050C000513DD0A0660DB13FEB0D76244B7BA93F3F
:1050D00011DA22E33AAD903FF850000800000020BA
:1050E000A8000000804C0008A0510008A800002083
:1050F000780B0000904C0008000000000000000049
:10510000000000000100000010000000000000008E
:105110000024F40000000000000000000000000077
:10512000000000000000000000000000000000007F
:10513000010000000000000000000000000000006E
:10514000000000000000000000000000000000005F
:1051500067D4F0DF0705213F02D8F0DF0705413FA4
:105160003542E9CF8B87493F02D8F0DF0705413F41
:1051700067D4F0DF0705213F000000000000F03F8A
:10518000922EAEAAF8DC0CC051FDF564FAEA134089
:10519000D3F8DF11D8E208C000FCC67588BAE73F33
:04000005080001AD41
:00000001FF
