:020000040800F2
:10000000E00C0020C101000827360008DB2B0008A7
:1000100025360008ED080008E5470008000000004C
:10002000000000000000000000000000CD370008C4
:10003000DD0C0008000000002D3700083F3C0008E0
:10004000DB010008DB010008DB010008DB01000820
:10005000DB010008DB010008DB010008DB01000810
:10006000DB010008DB010008DB010008DB01000800
:10007000DB010008DB010008DB010008DB010008F0
:10008000DB010008DB010008DB010008050A0008AD
:10009000D5090008DB010008DB010008DB010008CE
:1000A000DB010008DB010008DB010008DB010008C0
:1000B000DB010008DB010008DB010008DB010008B0
:1000C000DB010008DB010008DB010008DB010008A0
:1000D000DB010008DB010008DB010008DB01000890
:1000E000DB010008DB010008DB010008DB01000880
:1000F000DB010008DB010008DB010008DB01000870
:10010000DB010008DB010008DB010008DB0100085F
:10011000AD410008DB010008493D0008DB01000893
:10012000DB010008DB010008250C0008DB010008EA
:10013000DB010008DB010008DB010008250B0008DB
:10014000F50A0008DB010008DB010008DB010008FC
:10015000DB010008DB010008DB010008C5460008E0
:10016000DB010008DB010008DB010008DB010008FF
:10017000DB010008DB010008DB01000800000000D3
:10018000DB010008DB010008DB010008DB010008DF
:10019000DB010008DB010008DB010008DB010008CF
:1001A0000000000000000000DB010008DFF80CD0B8
:1001B00000F074F9004800475D480008E00C00209A
:1001C0000648804706480047FEE7FEE7FEE7FEE7F1
:1001D000FEE7FEE7FEE7FEE7FEE7FEE7F53C000888
:1001E000AD0100082DE9F05F0546002092469B46D0
:1001F00088460646814640241BE02846414647463D
:10020000224600F0DEF853465A46C01A914110D3F8
:1002100011461846224600F0C5F82D1A67EB010872
:100220004F4622460120002100F0BCF817EB0009E0
:100230004E41201EA4F10104DFDC484631462A4627
:100240004346BDE8F09F2DE9FE4F81EA030404F028
:10025000004421F0004100944FF0000B23F00043D4
:1002600050EA01045ED052EA03045BD0C3F30A549F
:10027000C1F30A552C44A4F2F3340194A0FB0254B8
:10028000C1F3130141F48011C3F3130343F480134A
:1002900001FB024400FB034E840A970A44EA81549E
:1002A00047EA8357A4FB076802958D0A05FB07857B
:1002B0004FEA932C04FB0C542705029D4FEA065885
:1002C00047EA1637B5EB08056EEB070C870E920E62
:1002D00047EA811742EA8312A7FB0201B6EB0B0142
:1002E00064EB00042B0D43EA0C335E1844EB1C5006
:1002F000DA465146E7FB0201C5F313044FEA0B331C
:1003000043EA14534FEA0432019C43EA0603A4F182
:100310000C040294009CCDE900B400F071F803B025
:10032000BDE8F08F00200146F9E70EB5C10F80EA65
:10033000E0700844CA07002140F233438DE80E0004
:100340000A460B4600F05CF803B000BD0EB540F263
:10035000334102910021CDE900110A460B4600F01D
:100360004FF803B000BD70B5C1F30A5201F000456B
:100370000024C1F3130140F2FF3341F480119A428B
:1003800001DA002070BD40F233439A42A2F23342B8
:1003900003DC524200F015F800E090402C43F1D00D
:1003A000404270BD202A04DB203A00FA02F100200E
:1003B00070479140C2F1200320FA03F319439040A3
:1003C0007047202A04DB203A21FA02F0002170470E
:1003D00021FA02F3D040C2F12002914008431946AD
:1003E000704710B5141E73F1000408DA401C41F187
:1003F000000192185B411A4301D120F0010010BDA9
:100400002DE9F04D92469B4611B1B1FA81F202E01E
:10041000B0FA80F220329046FFF7C4FF04460F4640
:1004200040EA0A0041EA0B0153465A46084313D0FA
:10043000114653EA010019D0C8F140025046FFF7B7
:10044000C0FF05460E46504659464246FFF7AAFFF2
:10045000084305D0012004E020463946BDE8F08D70
:100460000020054346EAE0762C4337430A986305AB
:10047000E40AA0EB08000022FD0A44EA47540A30CF
:1004800002D500200146E9E7010510196941DDE9BF
:10049000084500196941BDE8F04DA2E7064C074D3B
:1004A00006E0E06840F0010394E807009847103444
:1004B000AC42F6D3FFF77EFE6C4B00088C4B000875
:1004C00000B500219FED942A9FED943AF0EE431A77
:1004D000DFED932AB0EE621ADFED920AB0EE000A69
:1004E000914803F011F90021B0EE432ADFED8F1A95
:1004F0009FED8F1ADFED8F0A8B48B8EE040A403863
:1005000003F002F90021DFED8C3AF0EE431AB0EE71
:10051000621AB0EE632ADFED890A8348B8EE000A5A
:10052000803003F0F1F80021B0EE432ADFED841AA9
:100530009FED841ADFED840A7B48B7EE080A40304D
:1005400003F0E2F80121DFED814AF0EE631AB0EE2C
:10055000621AB0EE642A9FED7E4AB0EE000A7D4832
:10056000F0EE440A03F0D0F87A480121B0EE642A94
:10057000F0EE631AB0EE621AF0EE440AB0EE000A32
:10058000403003F0C1F873480121B0EE642AF0EE68
:10059000631AB0EE621AF0EE440AB0EE000A803040
:1005A00003F0B2F86B480121B0EE642AF0EE631A52
:1005B000B0EE621AF0EE440AB0EE000AC03003F06A
:1005C000A3F80121B0EE432AF0EE631AB0EE621AEE
:1005D000F0EE440AB0EE000A5F4803F095F85E487A
:1005E0000121B0EE432AF0EE631AB0EE621AF0EE8B
:1005F000440AB0EE000A403003F086F85648012164
:10060000B0EE432AF0EE631AB0EE621AF0EE440A3E
:10061000B0EE000A803003F077F84F480121B0EEC9
:10062000432AF0EE631AB0EE621AF0EE440AB0EE1E
:10063000000AC03003F068F80121DFED484AF0EE0F
:10064000631AB0EE621AB0EE642A9FED455AB0EE1E
:10065000080A4448F0EE450A03F056F841480121E3
:10066000B0EE642AF0EE631AB0EE621AF0EE450ABC
:10067000B0EE080A403003F047F83A480021B0EEE7
:10068000432AF0EE631AB0EE621AF7EE000AB0EEFB
:10069000000A803003F038F832480021B0EE432AD7
:1006A000F0EE631AB0EE621AF7EE000AB0EE000A3E
:1006B000C03003F029F89FED2C3A26480121B0EE16
:1006C000432AF0EE631AB0EE621AF0EE440AB0EE7E
:1006D000000A803803F018F81E480121B0EE432AC2
:1006E000F0EE631AB0EE621AF0EE440AB0EE000AC1
:1006F000403803F009F801219FED1C2AF0EE631A3F
:10070000B0EE621AF0EE620AB2EE040A18485DF822
:1007100004EB02F0F9BF00000000484400803B45B4
:10072000000000000AD7233C5C0400200060EA4679
:10073000CDCC4C3F0AD723BC00007A44CDCC4CBD75
:1007400000401C469A99993F0AD7A33C0080BB45BC
:10075000CDCCCC3D9C0500209C0600200000FA4535
:10076000CDCCCC3E9C0700200000FA440000E144C0
:100770009C08002070B54E4B002193ED030A9FEDBD
:100780004D1A4D4D4D4E4E4C01EB810004EB800057
:1007900080ED040AD0ED030A70EE601AC1EE810A02
:1007A00010EE902AC0ED020AAA4203DDDFED450AF1
:1007B000C0ED020A10EE902AB24203D9DFED420AE0
:1007C000C0ED020A491C49B20429DDDB3C4993ED26
:1007D000040A503101F1140081ED040AF1EE400ADF
:1007E000C0ED040A91ED031A384B70EE411AB3EED6
:1007F0000E1A81EE810ADFED361A10EE102A81ED15
:10080000020A9A4201DDC1ED021A324A8C689FED5C
:10081000322A944201D981ED022A90ED030A70EE4A
:10082000C00A80EE810A10EE101A80ED020A994289
:1008300001DDC0ED021A8168914201D980ED022AE2
:100840001F48264A783090ED030AD0ED040A30EEB6
:10085000601AF3EE040A81EE200A9FED211A10EED1
:10086000101A80ED020A914201DD80ED021A1D4B43
:100870008168DFED1D1A994201D9C0ED021A1048B6
:100880008C3090ED030A90ED042A30EE422A82EE7D
:10089000200A10EE101A80ED020A914201DD80ED6F
:1008A000021A8168994201D9C0ED021A70BD000098
:1008B00020000020000048420000FA440000FAC472
:1008C000380300200000FA440000FAC40000C843C6
:1008D0000000C8430000C8C30000C8C3000016449D
:1008E00000001644000016C4000016C4FEE7000015
:1008F00009682548A1F20121072913D2DFE801F098
:100900000407131F2B2F3C00118849BA2AE01188D5
:1009100049BA8181518849BAC181918849BA018215
:10092000917941827047118849BA0183518849BA47
:100930004183918849BA81839179C1837047118835
:1009400049BA8184518849BAC184918849BA0185DC
:10095000917941857047108841BA0C4802E01088AF
:1009600041BA0B480180518849BA4180918849BAFF
:1009700081809179C1807047108841BA0548018013
:10098000518849BA4180704708030020880300203D
:100990009C030020C403002000B58BB0002001217F
:1009A000CDE9060103900891049000900E2101907A
:1009B0000290099105906946054800F009FA022164
:1009C000034800F08CF9024800F008FD0BB000BDB0
:1009D0004C00002010B5084B084A0021084800F0E0
:1009E0007EFA054A05490648FFF782FFBDE8104038
:1009F000034800F0F1BA000008000020C402002003
:100A00004C000020014800F0E7BA00004C00002034
:100A100009682448A1F20121072914D2DFE801F076
:100A2000040814202D313900118849BA01801BE0D7
:100A3000118849BA8182518849BAC182918849BADC
:100A40000183917941837047118849BA01855188A2
:100A500049BA4185918849BA81859179C1857047A4
:100A6000118849BA20F83C1F518849BA41809188C1
:100A700049BA81809179C1807047108841BA0A488B
:100A80000AE0508841BA09484180118849BA01807A
:100A90007047108841BA06480180518849BA4180A0
:100AA0007047000038030020EC030020D80300202A
:100AB000B003002000B58BB000200121CDE9060174
:100AC000009001900290039004900E20CDE9081050
:100AD00005906946054800F07BF90221044800F0C2
:100AE000FEF8034800F07AFC0BB000BD4C0000207B
:100AF0007400002010B5084B084A0021084800F097
:100B0000EEF9054A05490648FFF782FFBDE81040A7
:100B1000034800F061BA000008000020C402002071
:100B200074000020014800F057BA00007400002053
:100B3000124800B5B0F9021000EE101A1049B8EED4
:100B4000C00A81ED010A90ED020A084681ED000A13
:100B500002F06AFD0B48B0F9021000EE101A0849C5
:100B6000B8EEC00A403181ED010A90ED020A084654
:100B700081ED000A5DF804EB02F056BD9C030020F5
:100B80009C0700208803002030B40D4B40F2FF1476
:100B90001C6000249C60DC6008241C61094B040A72
:100BA0001C705870080A9870D970100A18715A7120
:100BB0001B1F30BC1A1D0249034800F0A4B80000F6
:100BC000AC020020180000204C000020124800B5A4
:100BD000B0F9021000EE101A1049B8EEC00A81ED0B
:100BE000010A90ED020A084681ED000A02F01CFDA0
:100BF0000B48B0F9021000EE101A0849B8EEC00A0E
:100C0000403981ED010A90ED020A084681ED000AA3
:100C10005DF804EB02F008BDB00300205C05002085
:100C2000C403002010B5034800F01EFCBDE81040CE
:100C300003F01ABF4C02002001681823CAB2103A10
:100C4000B2FBF3F2054B6FF30901032A9B5CC3650A
:100C500000D9091D8165084670470000644B0008F3
:100C600010B5014600208B698A6A4FF0C07453B1F9
:100C7000B3F5005F15D072B1012A0CD0022A0AD058
:100C8000032A09D104E01AB1012A06D0022A03D1AD
:100C9000C96AC90100D5012010BDC96AA142FAD0B4
:100CA00010BD002AF7D0012AF2D0022AF3D0032A7D
:100CB000F3D010BD30B50468256825F48025256083
:100CC000046863608368402B036803D09960006800
:100CD000C26030BD9A600068C16030BD704790F856
:100CE0002020012A09D090F82020022A05D0416A4C
:100CF00041F48021416201207047006842690A4343
:100D0000426100207047F0B590F82040012C07D0D8
:100D100090F82040022C03D0416A41F4802153E036
:100D20000468A5686D0105D4A5682D0102D4A568E5
:100D3000ED0046D5A4680125C4F30164A5401D60FB
:100D40008D684FF4C0739DB1CE6835434E6845EA57
:100D5000C605066803EB0417F5514FF4C275076822
:100D600005EB04150E697E51097D012905D009E0C6
:100D70000E88CD6845EA4655EBE701684E5946F4C2
:100D800080764E511179D2F805504FF4C67641EA7B
:100D90000521056806EB0416A9511178D2F8012047
:100DA0004FF4C47541EA0221026805EB0415515164
:100DB000006803EB0411425842F001024250002047
:100DC000F0BD416A41F4001141620120F0BD000014
:100DD00010B590F82020012A09D090F82020022A8E
:100DE00005D0416A41F480214162012010BD3A489A
:100DF000D0F8002242F00102C0F80022D0F8002210
:100E000022F47C52C0F80022D0F800224B6A42EA59
:100E10000322C0F800220B7D01229A40D0F81C3238
:100E20009343C0F81C32CB69B3B9D0F80C3293436A
:100E3000C0F80C328C894B6864F31F434C6900EB9B
:100E4000C404C4F840320C890B6864F31F434C6936
:100E500000EBC404C4F84432CB69012B16D1D0F89E
:100E60000C321343C0F80C320C884B6864F31F43F8
:100E70004C6900EBC404C4F840320C89CB6864F3BD
:100E80001F434C6900EBC404C4F844328B69002B47
:100E9000D0F804320ED01343C0F804320B69002B93
:100EA000D0F8143208D01343C0F81432096A01296B
:100EB00004D008E09343EFE79343F5E7D0F81C1222
:100EC0001143C0F81C12D0F8001221F00101C0F843
:100ED0000012002010BD000000640040704730B5D3
:100EE00090F82040012C07D090F82040022C03D02D
:100EF000416A41F4802109E011B1012909D00CE0D7
:100F00000468E46807E0416A41F40011416201208D
:100F100030BD04682469A407F5D04FF4D87405687F
:100F200004EB01142D5915F00405956005682D5941
:100F300042D0ED08556005682C59C4F34004D460D4
:100F40004FF4DA74056804EB01142D5905F00F0510
:100F5000156105682D59C5F30725956105682C595C
:100F6000240C54614FF4DC72046802EB0112A458A3
:100F70001C700468A458240A5C700468A458240CEB
:100F80009C700468A258120EDA704FF4DE72046886
:100F900002EB0112A4581C710468A458240A5C7165
:100FA0000468A458240C9C710468A258120EDA71CB
:100FB00029B1012909D00DE06D0D1560BBE700686E
:100FC000C16841F02001C16004E00068016941F09E
:100FD00020010161002030BD2DE9F05F0546006869
:100FE00000244669D0F804908768D0F80CB0D0F897
:100FF00010A0D0F81880F10748D0F90714D00121CB
:101000008160B80703D5284600F015FA0CE0780790
:1010100002D54FF4006407E0380702D54FF480543E
:1010200002E0284600F006FAF80516D529684FF4C4
:1010300080708860B80503D5284600F0FEF90CE002
:10104000780502D544F4005407E0380502D544F48D
:10105000804402E0284600F0EFF9F80316D529682D
:101060004FF480308860B80303D5284600F0E7F9D4
:101070000CE0780302D544F4004407E0380302D5BD
:1010800044F4803402E0284600F0D8F9300707D550
:101090005FEACB6004D52968102044F40074C8606E
:1010A00070074FF0080707D55FEA0B7004D5286872
:1010B000C760284600F08CF9B00706D52868C068DC
:1010C000800702D0284600F084F9700607D55FEA51
:1010D000CA6004D52968102044F480640861B00611
:1010E00007D55FEA0A7004D528680761284600F032
:1010F00071F9F00606D528680069800702D02846F5
:1011000000F069F9B00308D55FEAC96005D5296820
:1011100010204860284600F05FF9F00307D55FEA29
:10112000097004D528684760284600F089F9300422
:1011300046D55FEA497040D5F00504D55FEAC8702E
:1011400001D044F00104B00504D55FEA887001D5F0
:1011500044F00204700504D55FEA487001D544F0FC
:101160000404300529D518F0700F26D008F070005F
:10117000402815D006DC102809D020280AD03028B5
:1011800016D10AE050280ED0602811D10EE044F0AC
:1011900008040DE044F010040AE044F0200407E0E5
:1011A00044F0400404E044F0800401E044F480741E
:1011B0002868816921F070018161296804204860F4
:1011C000002C05D0686A204368622846FFF786FE37
:1011D000BDE8F09F70B5040003D094F8200010B172
:1011E00004E0012070BD204600F082F8206801680C
:1011F00021F00201016000F0ABFB0546052604E08A
:1012000000F0A6FB401B0A2811D820684068800720
:10121000F6D42068016841F00101016000F098FBFC
:1012200005460BE000F094FB401B0A2806D9606AD3
:1012300040F40030606284F82060D2E720684068A3
:10124000C007EFD0207E0128206801683DD021F042
:1012500080010160607E01282068016838D021F09B
:1012600040010160A07E01282068016833D021F090
:1012700020010160E07E0128206801682ED041F045
:1012800010010160207F01282068016829D021F029
:1012900008010160607F01282068016824D021F0E6
:1012A00004010160D4E902010843D4E904121143A6
:1012B00008436168491E08432168C86100206062D4
:1012C000012084F82000002070BD41F08001C0E7BB
:1012D00041F04001C5E741F02001CAE721F01001CB
:1012E000CFE741F00801D4E741F00401D9E700005D
:1012F000F0B5324B0768DFF8C0C01868032202243B
:1013000009252F490026401C87B0674521D1186068
:10131000012807D1086840F000700860086800F0F4
:10132000007005908DE85400CDE9032569462548F5
:1013300000F022FA00221146132000F0E7FB1320F0
:1013400000F0D7FB00220121142000F0DFFB142065
:101350002EE0DFF874C067452CD10F6847F0806736
:101360000F600F68012807F080670597186007D1A4
:10137000086840F000700860086800F00070059090
:101380004FF440508DE85100CDE9032569460F48E0
:1013900000F0F2F9002211463F2000F0B7FB3F2099
:1013A00000F0A7FB00220121402000F0AFFB40200D
:1013B00000F09FFB07B0F0BD00640040000000207B
:1013C00040380240000C0240006800400004024027
:1013D00070477047704770477047000070B504460B
:1013E00090F82000012804D0606A40F40020606278
:1013F00018E0022084F820002068016821F0010133
:10140000016000F0A5FA05460EE000BF00F0A0FA6A
:10141000401B0A2808D9606A40F400306062052049
:1014200084F82000012070BD20684068C007EDD11D
:10143000606270BD70477047704770477047704773
:10144000704790F83510022903D0802141650120B2
:101450007047052180F835100068016821F001010E
:1014600001600020704700002DE9F84304464FF06A
:101470000009CDF8009063484FF41651A56D00683F
:10148000B0FBF1F72E6894F85C10082000FA01F127
:1014900031420FD021680A6852070BD50A6822F042
:1014A00004020A6094F85C108840A860606D40F007
:1014B0000100606594F85C104FF0010808FA01F033
:1014C000304208D021684969090604D5A860606DDA
:1014D00040F00200606594F85C10042088403042BF
:1014E00008D021680968890704D5A860606D40F0BC
:1014F0000400606594F85C1010208840304218D0D9
:1015000021680968090714D5A860206801684903A3
:1015100004D50068000308D5A16C07E00168C9057F
:1015200003D4016821F008010160216C09B1204653
:10153000884794F85C1020208840304231D02168E0
:101540000968C9062DD5A86094F8350005282068DB
:10155000016806D0490347D5006800031DD4616CBB
:101560001CE021F0160101602068416921F0800132
:101570004161206C08B9A06C20B12068016821F09D
:101580000801016094F85C103F208840A86084F84E
:10159000349084F83580216D1FE0E16B09B120465D
:1015A0008847606D00282BD0606DC00714D00520DF
:1015B00084F835002068016821F00101016000987D
:1015C000401C0090B84203D820680068C007F6D1DC
:1015D00084F8349084F83580E16C002910D001B093
:1015E0002046BDE8F04308470168C905D5D4016825
:1015F00021F01001016084F8349084F83580CCE744
:10160000BDE8F883100000202DE9F041044600F009
:101610009FF906465CB1002584F83450022084F816
:1016200035002068016821F0010101600DE0012012
:10163000BDE8F08100F08CF9801B052805D9202039
:101640006065032084F83500F2E720680068C00771
:10165000F0D12268116820480140D4E90103184301
:10166000D4E903363343184363691843A369184325
:10167000E3691843236A18430843616A042903D1C4
:10168000D4E90B1319430843106020684069666A67
:1016900020F0070130460E43012704280CD1A06A30
:1016A0000643E06A40B12046FFF7DAFA20B1402055
:1016B000606584F83570BAE7206846612046FFF718
:1016C000BBFA94F85C203F2191408160656584F805
:1016D00035700020ACE700003F8010F02DE9F041AC
:1016E0000446866D90F83400002501280DD00120B5
:1016F00084F8340094F835700020012F07D084F866
:10170000340002252846BDE8F0810220FBE70227CD
:1017100084F8357060652046FFF7CCFA94F85C10C9
:101720003F208840B0602068016841F016010160E8
:101730002068416941F080014161206C20B120683E
:10174000016841F0080101602068016841F0010171
:101750000160D7E770B5044600F0FAF80546601C52
:1017600002D004480078044400F0F2F8401BA04284
:10177000FAD370BD400000202DE9F84FDFF890B19A
:1017800000224FF001084FF0030A4FF00F090BF150
:10179000040E00BF0B6808FA02F42340A3426ED186
:1017A0004D68022D01D0122D0ED1D50800EB850C0D
:1017B000DCF820505607F70E09FA07F6B5430E6914
:1017C000BE402E43CCF82060066855000F790AFA17
:1017D00005FC07F0030726EA0C06AF403743076015
:1017E0004E68012E05D0022E03D0112E01D0122EEC
:1017F0000ED18768CE6827EA0C07AE403E4386606C
:101800004668A6430C79C4F3001494403443446002
:10181000C4688E6824EA0C04AE402643C6604C6857
:10182000E4006FD53B4C256845F48045256024686D
:1018300022F0030504F480440094374C2E19D6F8A6
:10184000084895072F0F09FA07F5AC43334DA84216
:1018500001D100252EE0324DA84201D1012529E019
:10186000304DA84201D1022524E02F4DA84201D1DC
:1018700003251FE02D4DA84202D104251AE041E0C6
:101880002B4DA84201D1052514E02A4DA84201D1D3
:1018900006250FE0284DA84201D107250AE0274D73
:1018A000A84201D1082505E0254DA84201D109250E
:1018B00000E00A25BD402543C6F80858DBF8004083
:1018C0005D464E689C43F60300D51C432C60DEF851
:1018D000004075464E689C43B60300D51C432C60FF
:1018E0000B4D08352C684E689C43F60200D51C430E
:1018F0002C60074D0C352C684E689C43B60200D511
:101900001C432C60521C102AFFF444AFBDE8F88F32
:10191000003C0140443802400030014000000240D9
:101920000004024000080240000C02400010024087
:101930000014024000180240001C02400020024037
:10194000002402400AB1816170470904FBE70000EE
:10195000014880687047000040000020024881680C
:101960000278114481607047400000200B4810B598
:10197000016841F400710160016841F48061016017
:10198000016841F480710160032000F0DFF800205D
:1019900000F006F800F024F8002010BD003C0240E2
:1019A00070B50D4D04464FF47A712878B1FBF0F014
:1019B0000A490968B1FBF0F000F09DFB48B9102C12
:1019C00007D200222146501E00F0A0F800206C60D3
:1019D00070BD012070BD00004000002010000020FC
:1019E0001F4808B5016841F480410160006800F4B7
:1019F000804000901A48001F016841F0805101604A
:101A0000006800F080500090032000F09FF8002252
:101A100011466FF00B0000F079F8002211466FF0CC
:101A20000A0000F073F8002211466FF0090000F080
:101A30006DF800221146501F00F068F80022114690
:101A4000101F00F063F800221146901E00F05EF8AF
:101A50000022BDE808401146501E00F057B80000B3
:101A6000443802402DE9F04116460F46040004D0E8
:101A700094F83900002518B107E00120BDE8F08195
:101A800084F83850204600F0AFFE242084F8390056
:101A90002068C16821F40051C160204602F058FC62
:101AA0002068016921F4904101612068416921F0B9
:101AB0002A0141612068016921F00F01016120685C
:101AC0000169394301612068C16821F40061C16086
:101AD0002068C1683143C1602068C16841F4005189
:101AE000C160E563202084F8390084F83A000020C2
:101AF000C4E7002809DB00F01F02012191404009E2
:101B0000800000F1E020C0F800117047F0B40E4BE7
:101B10001B680C46C3F30223C3F10705042D00D94B
:101B20000425191D072901D2002300E0DB1E012630
:101B300006FA05F1491E214099409E40761E164046
:101B40003143F0BC02F050BE0CED00E0064900F05D
:101B5000070208684FF6FF03184040EA0220034AD4
:101B600010430860704700000CED00E00000FA052B
:101B70002DE9F8431748016841F080510160006881
:101B8000154F00F08050012600903E64FFF7E0FE04
:101B900005464FF47A78114C05E000BFFFF7D8FEF8
:101BA000401B40450DD86068C003F7D57E64FFF741
:101BB000CFFE0546464607E0FFF7CAFE401BB0428F
:101BC00002D90320BDE8F88360688003F4D50020C3
:101BD000F8E700004038024000000E42007000406C
:101BE0002DE9F0470E46050065D0DFF81481D8F8DE
:101BF0000000F7B200F00F00B04207D288F8007082
:101C0000D8F8000000F00F00B04254D128683D4CD5
:101C1000810712D5400703D5206840F4E0502060CA
:101C20002878000703D5206840F4604020602068D1
:101C3000A96820F0F000084320602878C0072DD064
:101C4000304968680839012812D0022813D00328C7
:101C500011D00968890700292DDA216821F00301D4
:101C600001432160FFF774FE814641F2883A0EE09D
:101C700009688903EFE709688901ECE7FFF768FE67
:101C8000A0EB0901514502D90320BDE8F087206887
:101C9000696800F00C00B0EB810FEFD1D8F80010AC
:101CA000404601F00F01B14207D90770006800F00B
:101CB0000F00B04201D00120E7E72878400705D5A2
:101CC0002068E96820F4E050084320602878000785
:101CD00006D52068296920F4604040EAC1002060F0
:101CE00000F03CF82168084AC1F30311515CC84078
:101CF000064908600020FFF753FE0020C5E70000FA
:101D0000003C0240083802404C4B00081000002004
:101D10000148006870470000100000200448054991
:101D200000680968044AC1F38221515CC8407047C9
:101D300010000020083802405C4B000804480549A8
:101D400000680968044AC1F34231515CC8407047D9
:101D500010000020083802405C4B0008154810B500
:101D6000006810F00C02144813D01449042A0FD054
:101D7000082A0ED10F4C241F2268236802F03F026C
:101D80005B0207D52068C0F38810A0FB010106E0C4
:101D9000084610BD2168C1F38811A1FB0001002392
:101DA000FEF720FA2168C1F30141491C4900B0FB4C
:101DB000F1F010BD083802400024F400001BB70009
:101DC0002DE9F84F050076D02878DFF8F8B2BE4C40
:101DD000C00749D0DBF800105846C1F38101012942
:101DE00008D00068C0F3810002280AD1201D0068D5
:101DF000400206D52068800336D568680028E2D006
:101E000032E06868B0F5803F10D0B0F5A02F2068B0
:101E100010D020F480302060206820F480202060E2
:101E20006868A0B1FFF794FD06460CE0206840F416
:101E30008030F4E740F480202060F7E7FFF788FD6A
:101E4000801B642873D820688003F7D50CE0FFF767
:101E50007FFD064605E000BFFFF77AFD801B642882
:101E6000F0D820688003F7D42878DFF860828007F4
:101E70004FF000093ED5DBF80010584611F00C0F6A
:101E800009D00068C0F3810002280BD18D48001FE3
:101E90000068400206D42068800715D5E86801284C
:101EA00009D111E0E868B8B10120C8F80000FFF7D7
:101EB0004FFD064605E002E1FFF74AFD801B0228C0
:101EC000C0D820688007F7D52068296920F0F8007D
:101ED00040EAC10020600DE0C8F80090FFF738FD2F
:101EE000064604E0FFF734FD801B02281FD8206857
:101EF0008007F7D42878000722D5724E74486969A4
:101F00006C3671B101210160FFF722FD074604E044
:101F1000FFF71EFDC01B022809D830688007F7D5DF
:101F20000EE0C0F80090FFF713FD074605E083E0E0
:101F3000FFF70EFDC01B02287ED830688007F7D45B
:101F40002878400768D5DFF87CA100270AF1380A15
:101F5000DAF80000C0000BD4DAF8001041F080512C
:101F6000CAF80010DAF80000012700F08050009055
:101F7000584E3068C00510D4306840F4807030602E
:101F8000FFF7E6FC009005E0FFF7E2FC0099401A3D
:101F9000022851D83068C005F6D54A4EA868683680
:101FA00001280FD00528306810D020F001003060E3
:101FB000306820F004003060A868B8B1FFF7C8FCB2
:101FC00000900FE0306840F00100F4E740F00400BA
:101FD0003060F7E7FFF7BCFC0099411A41F2883006
:101FE000814264D830688007F4D50EE0FFF7B0FC7A
:101FF000009007E0FFF7ACFC0099411A41F28830ED
:10200000814254D830688007F4D42FB1DAF8001038
:1020100021F08051CAF80010A869C0B3DBF80010A5
:10202000C1F3810102294AD00228484607D0C8F8E6
:102030006000FFF78DFC00E039E005463AE04746D6
:10204000C8F86000FFF784FC064604E0FFF780FC58
:10205000801B02282BD820688001F7D4D5E907011E
:102060000843A96A1C4A490802EB01416A6A41EA2D
:102070008211084395F82C1040EA01611148001FB5
:10208000016001203866FFF763FC054605E014E0B7
:10209000FFF75EFC401B022809D820688001F7D5B5
:1020A0000BE000BFFFF754FC401B022802D90320BD
:1020B000BDE8F88F20688001F4D40020F8E7012003
:1020C000F6E70000083802400038024000004742AE
:1020D000800E4742007000400000FFFF4FF0E021FB
:1020E0000428086903D020F004000861704740F01C
:1020F0000400FAE7704710B5401EB0F1807F01D3AD
:10210000012010BD4FF0E02460610F21601702F044
:102110006BFB0020A06107202061002010BD10B5DE
:10212000FFF7E8FF10BD7047704730B590F83820D2
:10213000012A20D0012280F83820022380F839308B
:1021400003685C6824F070045C6003685C680D6878
:102150002C435C6003689C6824F080049C600368E6
:102160009C6849680C439C6080F83920002180F805
:102170003810084630BD022030BD10B5040003D031
:1021800094F8390010B107E0012010BD002084F858
:102190003800204600F00CF8022084F83900211D98
:1021A000206801F0DBFD012084F83900002010BD1B
:1021B00008B5174A01681748914207D1016841F0F4
:1021C00004010160006800F0040009E0124A914235
:1021D00008D1016841F008010160006800F00800C2
:1021E000009008BD0D4A914207D1016841F01001ED
:1021F0000160006800F01000F2E7094A9142F0D156
:10220000016841F040010160006800F04000E7E72C
:102210000008004040380240000C00400010004020
:1022200000180040022180F8391001680A6842F065
:1022300001020A60012180F839100020704701680E
:10224000CA6842F00102CA600068016841F00101F9
:1022500001600020704770B5044690F838000128EE
:1022600017D0012584F83850022084F839002068FE
:10227000826822F0770222F47F4282600868502848
:1022800037D00DDC202859D005DC88B3102841D187
:1022900051E0022070BD302853D040283AD13FE0B1
:1022A00060282ED070280BD0B0F5805F03D0B0F539
:1022B000005F2FD110E02068816821F0070115E050
:1022C000CB68D1E90121206801F0B3FD216888685D
:1022D00040F0770088601DE0CB68D1E901212068DB
:1022E00001F0A7FD2068816841F48041816011E020
:1022F0001EE0CA684968206801F064FE5021206829
:1023000006E0CA684968206801F06DFE6021206817
:1023100001F099FD84F83950002084F8380070BD30
:10232000CA684968206801F04DFE40212068EFE747
:1023300000212068ECE710212068E9E720212068CF
:10234000E6E730212068E3E7704770B5044600688F
:1023500001694FF00005C943890715D4C168C94315
:10236000890711D4E91E0161012020762068806967
:102370008007204602D0FFF7E7FF04E000F0C0F836
:10238000204600F042F9257620680169C9434907D3
:1023900017D4C168C943490713D46FF00401016120
:1023A000022020762068806910F4407F204602D009
:1023B000FFF7CAFF04E000F0A3F8204600F025F97B
:1023C000257620680169C943090716D4C168C94345
:1023D000090712D46FF008010161042020762068FB
:1023E000C0698007204602D0FFF7AEFF04E000F08E
:1023F00087F8204600F009F9257620680169C9436D
:10240000C90617D4C168C943C90613D46FF01001B7
:102410000161082020762068C06910F4407F2046C2
:1024200002D0FFF791FF04E000F06AF8204600F0C8
:10243000ECF8257620680169C943C90708D1C1684D
:10244000C943C90704D1891E0161204600F0FAF88A
:1024500020680169C943090609D4C168C94309064E
:1024600005D46FF0800101612046FFF75CFE206813
:102470000169C943490609D4C168C943490605D45D
:102480006FF040010161204600F0DDF8206801692D
:10249000C94389060BD4C168C943890607D46FF0C4
:1024A000200101612046BDE87040FFF73DBE70BDD0
:1024B00010B50F4C03680020A214022186B0A3427D
:1024C00007D10092CDE90110CDE903016946094821
:1024D00009E0094CA34208D10092CDE90110CDE9F1
:1024E000030169460548FFF747F906B010BD000033
:1024F00000080040000C0240000C0040001C02409C
:10250000704770B5044690F838000D4601280DD08C
:10251000012684F83860022084F8390042B1042A88
:1025200018D0082A2AD00C2A4DD139E0022070BDDB
:10253000206801F091FC2068816941F00801816107
:102540002068816921F004018161206881692A691C
:10255000114311E0206801F0ABFC2068816941F46F
:10256000006181612068816921F480618161206856
:1025700081692A6941EA0221816124E0206801F031
:10258000C9FC2068C16941F00801C1612068C169C6
:1025900021F00401C1612068C1692A69114311E079
:1025A000206801F0E7FC2068C16941F40061C16165
:1025B0002068C16921F48061C1612068C1692A690C
:1025C00041EA0221C16184F83960002084F83800B2
:1025D00070BD10B5040003D094F8390010B107E0C5
:1025E000012010BD002084F83800204600F00CF8CF
:1025F000022084F83900211D206801F0AFFB012082
:1026000084F83900002010BD7047704710B50446AB
:102610000068012201F002FC08492068884202D0CB
:102620000749884203D1416C41F40041416420686C
:10263000016841F001010160002010BD000001406F
:10264000000401407047704708B500680168C9433D
:10265000090705D401684168009140680149087084
:1026600008BD00003A00002010F8391F40780843E8
:102670007047000070B5026804461068D16853695D
:1026800010F00F0F50D003F0010501F490763543A0
:102690005DD0C20705D0CA0503D5E26B42F0010246
:1026A000E263420705D5DA0703D0E26B42F002028B
:1026B000E263820705D5DA0703D0E26B42F0040239
:1026C000E263020705D5DA0703D0E26B42F00802A5
:1026D000E263E26B002A33D0800604D5880602D577
:1026E000204601F0EEFD20684069E16BC0F38010E8
:1026F000090700D428B3204601F0CCFD20684169C9
:1027000049061AD5416921F040014161606BA0B1D1
:102710001B490165606BFEF794FE002810D0606BCA
:10272000016DBDE870400847830610D58B060ED5B5
:102730002046BDE8704001F0C4BD2046FFF784FF8D
:1027400070BD2046FFF780FF0020E06370BD0306E8
:1027500006D50B0604D52046BDE8704001F04EBFFB
:102760004006F3D54806F1D5D168204621F0400156
:10277000D160202184F8391000F02EFA70BD0000DD
:10278000F541000870B5040004D094F83900002524
:1027900010B106E0012070BD84F83850204600F0EA
:1027A00023F8242084F839002068C16821F40051FE
:1027B000C160204601F0CCFD2068016921F4904100
:1027C00001612068416921F02A0141612068C168E6
:1027D00041F40051C160E563202084F8390084F899
:1027E0003A00002070BD0000F0B506463849036885
:1027F000002503220220082487B08B421CD13549D2
:102800000B6843F400230B600968CDE9002001F454
:1028100000210120CDE90441CDE9020269462E489C
:10282000FEF7AAFF002203213420FFF76FF93420BE
:10283000FFF75FF907B0F0BD2649284F091DBB42DD
:102840002FD10B6843F010030B600968029501F06B
:1028500010010591C021CDE900100720CDE903202A
:1028600069461F48FEF788FF1F4C1E4820604FF046
:102870000060C4E901054014C4E90350801065619B
:10288000C4E906504FF44030C4E908052046FEF77D
:10289000BBFE18B1AF2115A001F0A5FF7463A663BC
:1028A000C8E7164EB342C5D10B6843F020030B6056
:1028B0000968029501F0200105914FF48441CDE9AA
:1028C0000010CDE9032469460D48FEF755FFB1E736
:1028D000004C00404038024000000240001001401F
:1028E00000040240406402404C0200202E2E2F5370
:1028F00072632F75736172742E63000000140140BF
:1029000000180240F8B5044690F83A0020283CD15F
:10291000C1B3BAB394F83800012836D0012084F846
:102920003800A162A2850025E563222084F83A00E0
:10293000636B1748D863636B16481864636B16485B
:10294000D864606B134605650846666B21680246CD
:102950003046091DFEF7C2FE2068016841680091FB
:1029600084F83850C16841F48071C16020684169C1
:1029700041F0010141612068416941F0400141613C
:102980000020F8BDFFE70120FBE70220F9E7000087
:102990004F4200088B4200080542000890F83A3088
:1029A000202B1DD1D1B1CAB190F83830012B17D0EE
:1029B00081628285C2850021C163222280F83A208B
:1029C00080F8381001684A6942F001024A610068E3
:1029D000C16841F49071C1600020704701207047C8
:1029E0000220704730B40068474A002190422ED13F
:1029F00046480423024644781278082C09D2DFE8BE
:102A000004F0040A0C0E10121923A52A01D1012189
:102A1000417030BC70470221FAE70321F8E74370A8
:102A2000F7E70521F4E7022A02D0C1700621EFE79B
:102A3000C370FBE7C378042B02D0C1700721E7E71E
:102A4000022AFBD04170F9E730BC00F051BA304A9D
:102A50009042DED12F480378827D03F07F03034448
:102A60005A700278530602D14378242BD1D1521CDC
:102A7000027002F07F02082A04D0417D827D114459
:102A80004175C6E7427D837D9A423AD1224B0022AE
:102A9000841824799C54521C042AF9DB1E4A83783A
:102AA000521E642B20D0692B10D0702B29D1836942
:102AB000D2F801209A61C2782D2A22D1826992ED42
:102AC000060AB1EE400A82ED060A1AE08369D2F8DE
:102AD0000120DA61C2782D2A13D193ED070AB1EEF5
:102AE000400A83ED070A0CE08369D2F801201A62DC
:102AF000C2782D2A05D193ED080AB1EE400A83ED84
:102B0000080A4175017084E7001401403400002078
:102B1000004C0040000400203B00002070472DE9DD
:102B2000F843044690F839001F4616460D46202803
:102B300050D1A5B19EB194F8380001284AD00120A7
:102B400084F838004FF00008C4F83C80212084F855
:102B50003900FEF7FDFEA6848146E68426E00120CA
:102B6000BDE8F883E08C401EE084A0684B46B0F5D9
:102B7000805F4FF000024FF080012046009703D0A5
:102B800001F06DFDE8B90DE001F069FDC8B92888D4
:102B90002168C0F308004860206908B16D1C05E099
:102BA000AD1C03E0216815F8010B4860E08C00289B
:102BB000D8D14B46002240212046009701F04FFD1E
:102BC00008B10320CCE7202084F8390084F838804D
:102BD0000020C5E70220C3E77047FEE770B50D4C43
:102BE0000025C4F894520C48016821F4407101603A
:102BF000016841F480710160C4F89052022004F52C
:102C0000247401F011FE01206060022001F00CFE2E
:102C1000656070BD0000424200100240034801217F
:102C2000C0F89412C0F890127047000000004242B1
:102C300070B50D4C0025C4F894520C48016821F47D
:102C400040710160016841F4807101600126C4F89F
:102C50009062022004F5247401F0E6FD6660022013
:102C600001F0E2FD656070BD0000424200100240CC
:102C70002DE9F047814616480024016821F440718F
:102C8000016001680160134E254627464FF0010898
:102C9000C6F89472022001F0C7FDC6F8948260065F
:102CA000040ED6F8100208B1641CE4B2012001F051
:102CB000BBFD6D1CEDB2082DEAD3B9F1000F04D0B5
:102CC000FFF78CFF2046BDE8F087FFF7B1FFF9E77B
:102CD00000100240000042422DE9F041064614482F
:102CE000016821F440710160016841F48071016064
:102CF000104C0027C4F894723D464FF00108F009CB
:102D0000C4F890027006060E022001F08DFDC4F892
:102D10009482022001F088FDC4F89472022001F030
:102D200083FD6D1CEDB2082DE9D3BDE8F0810000F4
:102D3000001002400000424270B50D48016821F4C5
:102D400040710160016841F480710160094C01200B
:102D5000C4F89002C4F89402042004F5247401F02D
:102D600063FD00252560042001F05EFD656070BDF7
:102D700000100240000042420E4810B5016821F4E4
:102D800040710160016841F4807101600A4C0020CB
:102D9000C4F89402C4F89002042004F5247401F0ED
:102DA00043FD012060602060BDE81040042001F078
:102DB0003BBD0000001002400000424270B51248C6
:102DC0000024016821F440710160016801600F4D29
:102DD0000126C5F89062304601F026FDC5F89462E0
:102DE000012001F021FD07E0641CE4B2FA2C03D9B4
:102DF000FFF7C2FF012070BDD5F810020028F3D103
:102E0000C5F8940270BD000000100240000042426C
:102E10003648B0F90210D0ED030A00EE101AB8EEF1
:102E2000C00A30EE800A80ED030AB0F91610D0ED2A
:102E3000080A00EE101AB8EEC00A30EE800A80EDE3
:102E4000080AB0F92A10D0ED0D0A00EE101AB8EEFB
:102E5000C00A30EE800A80ED0D0AB0F93E10D0EDC8
:102E6000120A00EE101AB8EEC00A30EE800A80EDA9
:102E7000120A5030B0F90210D0ED030A00EE101A19
:102E8000B8EEC00A30EE800A80ED030A1430B1EECD
:102E9000400A80ED030A5030B0F90210D0ED030A69
:102EA00000EE101AB8EEC00A30EE800A80ED030A78
:102EB000143880ED030A2838B0F90210D0ED040A66
:102EC00000EE101AB8EEC00A30EE800A80ED040A57
:102ED0001430B0F90210D0ED040A00EE101AB8EE6A
:102EE000C00A30EE800A80ED040A704738030020E3
:102EF00070470000214A00B5B2F9020000EE100A46
:102F00001F48B8EEC00A80ED010A92ED020A80ED7A
:102F1000000A00F089FBB2F9160000EE100A18480A
:102F2000B8EEC00A403080ED010A92ED070A80ED4C
:102F3000000A00F079FBB2F92A0000EE100A1048EE
:102F4000B8EEC00A803080ED010A92ED0C0A80EDE7
:102F5000000A00F069FBB2F93E0000EE100A0848D2
:102F6000B8EEC00AC03080ED010A92ED110A80ED82
:102F7000000A5DF804EB00F057BB000038030020A6
:102F80009C06002030B40E4C4FF4007525600025DF
:102F9000A560E560082525610A4C050A257060706A
:102FA000080AA070E170100A20716271180AA071FD
:102FB000E371231F30BC1A1D01490348FDF7A3BE6E
:102FC000AC020020180000207400002010B5FFF7AC
:102FD00025FE80216B2000F08FF86420FEF7BAFBFD
:102FE00000216B2000F088F8032000F04EF800204C
:102FF00000F046F84FF47A74204600F066F800219D
:10300000382000F079F800216A2000F075F870216E
:10301000232000F071F88021372000F06DF8752032
:1030200000F011F8682801D0012010BD01216B20AB
:1030300000F062F800216C2000F05EF8204600F0FD
:1030400044F8002010BD10B50446FFF775FED020EF
:10305000FFF742FEFFF7B2FE2046FFF73DFEFFF707
:10306000ADFEFFF769FED120FFF736FEFFF7A6FEA3
:103070000020FFF7FDFD0446FFF77EFE204610BD51
:10308000C006010E1C2000F037B8C006010E1B2040
:1030900000F032B80021FF2814D2BC2801D301214E
:1030A00010E0622801D302210CE02A2801D3032179
:1030B00008E0142801D3042104E00A2801D30521E3
:1030C00000E006211A2000F017B810B504464FF4AE
:1030D0007A70844201D9044602E0042C00D2042410
:1030E000B0FBF4F0401EC1B2192000F005F86008F2
:1030F000BDE81040FFF7CEBF70B50C460546FFF7A0
:103100001BFED020FFF7E8FDFFF758FE50B9284618
:10311000FFF7E2FDFFF752FE2046FFF7DDFDFFF768
:103120004DFE18B1FFF728FE012070BDFFF724FE09
:10313000002070BD104810B50E49016005214160A6
:1031400000214FF400328160C0E903125201426154
:103150000122027641768176C17601774277FEF7C9
:1031600039F8002805D0BDE81040462103A001F041
:103170003ABB10BD006400404C0000202E2E2F539F
:1031800072632F63616E2E6300000000104810B55B
:103190000E4901600521416000214FF40032816039
:1031A000C0E9031252014261012202764176817622
:1031B000C17601774277FEF70DF8002805D0BDE80B
:1031C00010405C2103A001F00EBB10BD0068004060
:1031D000740000202E2E2F5372632F63616E2E63B6
:1031E00000000000094808B5016841F48001016051
:1031F0000068002200F48000009011463A20FEF79B
:1032000085FCBDE808403A20FEF773BC3038024028
:103210002DE9F041434886B00024016841F04001A7
:103220000160016801F040010591016841F0100161
:103230000160016801F010010591016841F002018F
:103240000160016801F002010591016841F0080187
:103250000160016801F008010591016841F0010178
:103260000160016801F001010591016841F08001F0
:10327000016000682C4E00F080004FF4005505906E
:10328000002229463046FEF75DFBDFF8A0800022D1
:1032900030214046FEF756FB254F002240F63C41C8
:1032A0003846FEF74FFB00950125CDE901546946EC
:1032B00030460394FEF760FA30200090CDE90154C7
:1032C000694640460394FEF757FA4FF44070009069
:1032D0000226CDE9016469461648CDE90345FEF7AB
:1032E0004BFA3C200090CDE90154694638460394DE
:1032F000FEF742FA4FF44060CDE90005CDE9024601
:1033000069463846FEF738FA4FF4C0400090CDE9E0
:10331000016469464046CDE90345FEF72DFA06B043
:10332000BDE8F08130380240001802400010024031
:10333000001C0240000002401FB511480F494FF623
:10334000FF720160592141600021C0E90212016150
:10335000FEF713FF18B1B5210AA001F044FA4FF4AB
:103360008050009069460648FEF775FF002803D09C
:10337000BB2104A001F037FA1FBD00000018004077
:10338000500100202E2E2F5372632F74696D2E630F
:103390000000000010B525488EB023490160592176
:1033A0000024C0E9011440F2CF71C0E90314FEF714
:1033B000E4FE18B143211EA001F015FA4FF480502D
:1033C000079007A91948FEF746FF18B1492118A030
:1033D00001F009FA1548FFF7FCF818B14E2114A0C6
:1033E00001F001FA0B940BA910480C94FEF79DFE16
:1033F00018B155210EA001F0F6F9602000904FF4AD
:10340000FA70CDE901040022694608480494FFF7E8
:1034100078F818B15E2106A001F0E5F90348FFF73E
:1034200047F80EB010BD0000000800409C000020CE
:103430002E2E2F5372632F74696D2E6300000000CF
:1034400010B522488EB020490024C0E900148460E1
:10345000C4600461FEF791FE18B172211CA001F056
:10346000C2F94FF48050079007A91848FEF7F3FE01
:1034700018B1782116A001F0B6F91448FFF7A9F8A1
:1034800018B17D2112A001F0AEF90B940BA90F48E1
:103490000C94FEF74AFE18B184210DA001F0A3F9A7
:1034A0006020CDE90004029408226946074804948C
:1034B000FFF727F818B18D2105A001F094F9034812
:1034C000FEF7F6FF0EB010BD000C0040D800002043
:1034D0002E2E2F5372632F74696D2E63000000002F
:1034E0001CB510480E49002401605921C0E901149F
:1034F00040F2E731C160FEF740FE18B19E210AA0FC
:1035000001F071F90094694606480194FEF70DFE3A
:10351000002803D0A52104A001F065F91CBD00001E
:1035200000100040140100202E2E2F5372632F74C0
:10353000696D2E63000000000D4810B50B49016055
:103540004FF416514160002181600C22C160C0E936
:1035500004128161C161FFF715F9002805D0BDE8AB
:103560001040452103A001F03EB910BD004C0040C1
:103570008C0100202E2E2F5372632F75736172748D
:103580002E6300000D4810B50B4901600C494160E5
:10359000002181600C22C160C0E9041281610A46E9
:1035A000C161FEF75FFA002805D0BDE81040582140
:1035B00004A001F018B910BD00100140CC0100209A
:1035C000A08601002E2E2F5372632F7573617274C3
:1035D0002E6300000E4810B50C4901604FF4E13134
:1035E0004160002181600C22C160C0E90412816148
:1035F0000A46C161FEF736FA002805D0BDE8104042
:103600006B2104A001F0EFB810BD000000140140D0
:103610000C0200202E2E2F5372632F75736172746B
:103620002E630000FEE77047D0ED000A90ED010A1E
:1036300090F83C10D0ED062A30EEC00A90ED072A33
:10364000D0ED081AD0ED040AD1B1C0ED050A90ED15
:10365000031A80ED041A30EE413A80ED030A63EE5E
:10366000222A40EE022AB0EE002A01EE420A30EE93
:10367000200A40EE212A90ED0D0A32EE800A2DE05C
:10368000C0ED030A80ED040A90ED021A31EE001A33
:1036900080ED021A90ED0C3AB4EEC31AF1EE10FA76
:1036A00006DCB1EE433AB4EEC31AF1EE10FA01D2E1
:1036B00080ED023A22EE801A30EE600A80ED091A9F
:1036C000D0ED022A20EE210A22EE222A80ED0A2ADB
:1036D00071EE020A80ED0B0A30EE800A80ED0D0AD1
:1036E000F0EE400A90ED0E0AF4EEC00AF1EE10FA88
:1036F00006DCB1EE400AF4EEC00AF1EE10FA01D297
:1037000080ED0D0A7047000000F1180282EC030AF8
:103710009FED050A80ED020AC0ED0C1A80ED0E2A1D
:1037200080F83C1070470000000000007047000067
:10373000124800B5B0F9021000EE101A1049B8EEA8
:10374000C00A81ED010A90ED020A084681ED000AE7
:10375000FFF76AFF0B48B0F9021000EE101A084993
:10376000B8EEC00A403181ED010A90ED020A084628
:1037700081ED000A5DF804EBFFF756BFD803002087
:103780001C080020EC03002030B40D4B40F2FF1465
:103790001C6000249C60DC6008241C61094B040A46
:1037A0001C705870080A9870D970100A18715A71F4
:1037B0001B1F30BC1A1D02490348FDF7A4BA0000C4
:1037C000AC020020180000207400002070470000A8
:1037D0002DE9F04FFF4D2DED068B83B0A879012820
:1037E00049D041F28830FC492881A1F1BE0BD1EDCE
:1037F000030ABBF80C20C82312FB03F200EE102AC8
:10380000B8EEC00A30EE800A81ED030A1431BBF82D
:103810000A20D1ED030A12FB03F200EE102AB8EEE3
:10382000C00A30EEC00A81ED030A9BF808309FED14
:10383000EB8BE848017982784479521AC17846784E
:103840000078611A801B5418A4EB0009561A04442E
:10385000A6EB00086742891A0E1A584690F810A085
:103860009FEDE09ADFEDE09A00F14604022B05D0CF
:10387000032B7BD021E14FF4FA70B4E72889FCF7E1
:1038800065FDCDE9000141EC1A0B4846FCF74DFD02
:1038900053EC182BFCF7D7FC53EC1A2BFCF7D3FC9A
:1038A000FCF761FD00B200EE100ACB4DB8EEC00A85
:1038B000A83D85ED020ADDE9000141EC1A0B404606
:1038C000FCF733FD53EC182BFCF7BDFC53EC1A2B23
:1038D000FCF7B9FCFCF747FD00B200EE100AB8EEA9
:1038E000C00A85ED050ADDE9000141EC1A0B3846F6
:1038F000FCF71BFD53EC182BFCF7A5FC53EC1A2B23
:10390000FCF7A1FCFCF72FFD00B200EE100AB8EEA8
:10391000C00A85ED080ADDE9000141EC1A0B3046CA
:10392000FCF703FD53EC182BFCF78DFC53EC1A2B22
:10393000FCF789FCFCF717FD00B200EE100ABAF1A3
:10394000010FB8EEC00A85ED0B0A12D0C4ED049A3F
:10395000C4ED099AC4ED0E9AC4ED139A9BF81110A8
:10396000A24801290ED040F2DC5100E00DE00160D8
:103970005EE184ED049A84ED099A84ED0E9A84ED5B
:10398000139AEBE74FF4FA71EFE79FED990A85ED93
:10399000040A2889FCF7DAFC834641EC1A0B384606
:1039A0000091FCF7C2FC53EC182BFCF74CFC53ECD9
:1039B0001A2BFCF748FCFCF7D6FC00B200EE100A0C
:1039C000854F3046B8EEC00AA83F87ED020A00993D
:1039D00041EC1ABBFCF7A9FC53EC182BFCF733FCA9
:1039E00053EC1A2BFCF72FFCFCF7BDFC00B200EEE9
:1039F000100A4846B8EEC00A87ED050A009941EC66
:103A00001ABBFCF792FC53EC182BFCF71CFC53EC94
:103A10001A2BFCF718FCFCF7A6FC00B200EE100A0B
:103A20004046B8EEC00A87ED080A009941EC1ABB7F
:103A3000FCF77BFC53EC182BFCF705FC53EC1A2B22
:103A4000FCF701FCFCF78FFC00B200EE100AA7F1B6
:103A500016066FF02701B8EEC00A87ED0B0AF08852
:103A600010FB01F000EE100A06F1FA01614FB8EE0A
:103A7000C00ABAF1010F81ED020A00EE100AA1F1AD
:103A80001400B8EEC00A80ED020A08D1002210210D
:103A90003846FDF757FF9FED580A85ED040A307C44
:103AA00018B99FED560A85ED040A707C012804D1EF
:103AB000012210213846FDF745FF4748BE38007AFD
:103AC00001287DD1A9462889FCF740FC41EC1A0B5E
:103AD00000918246A87829796A78471A6879E97846
:103AE000461A297807EB060B8D1A0BEB05004042AE
:103AF000FCF71BFC53EC182BFCF7A5FB53EC1A2B23
:103B0000FCF7A1FBFCF72FFC00B200EE100ADFF877
:103B1000C880F01BB8EEC00AA8F1A808401B88EDC9
:103B2000020A009941EC1AABFCF7FFFB53EC182B8F
:103B3000FCF789FB53EC1A2BFCF785FBFCF713FC15
:103B400000B200EE100AABEB0500B8EEC00A88ED3B
:103B5000050A009941EC1AABFCF7E7FB53EC182B74
:103B6000FCF771FB53EC1A2BFCF76DFBFCF7FBFB2E
:103B700000B200EE100AB81B401BB8EEC00A88ED78
:103B8000080A009941EC1AABFCF7CFFB53EC182B59
:103B9000FCF759FB53EC1A2BFCF755FBFCF7E3FB46
:103BA00000B200EE100AA8F11600B8EEC00A88EDC7
:103BB0000B0A017C012928D199F80620012A00E08E
:103BC00036E003D184ED099A84ED0E9A99F8071036
:103BD000012915E020000020B003002000000000B3
:103BE0000000084000BA5B490080BB453408004033
:103BF00000B88847001C024000007A4500606A4710
:103C000003D1C4ED099AC4ED0E9A407C01280FD16E
:103C100099F80610012903D184ED049A84ED139AD2
:103C200099F80700012803D1C4ED049AC4ED139A52
:103C300003B0BDEC068BBDE8F04FFCF79BBD10B5A3
:103C4000FDF78CFEBDE81040FEF769BA30B5274895
:103C500093B00025016841F080510160006800F0D8
:103C6000805011902248016841F440410160006891
:103C7000022400F4404011900120009000040190C3
:103C80008001CDE9064006200890B420CDE9090462
:103C900004200B906846FEF793F800B1FEE7FDF7AD
:103CA00067FF00B1FEE70CA90F2081E831004FF457
:103CB000A0500F904FF48050109005210CA8FDF7F4
:103CC0008FFF00B1FEE7FEF723F84FF47A71B0FBE7
:103CD000F1F0FEF710FA0420FEF700FA0022114678
:103CE000501EFDF713FF13B030BD000040380240F6
:103CF000007000401048016841F4700101600F48F5
:103D0000016841F0010101600C4A00210832116094
:103D100002680B4B1A400260031D0A4A1A600268CF
:103D200022F48022026005480C30016002495806E6
:103D3000803908607047000088ED00E000380240DC
:103D4000FFFFF6FE1030002410B50348FEF7FDFA21
:103D5000BDE8104000F05AB914010020F0B5026827
:103D6000234B244D244E254F254C4FF0804C984238
:103D700009D0604507D0A84205D0B04203D0B84270
:103D800001D0A04204D122F0700E4A6842EA0E022D
:103D900098421BD0604519D0A84217D0B04215D028
:103DA000B84213D0A04211D0164DA8420ED0164DE5
:103DB000A8420BD0154DA84208D0154DA84205D0F9
:103DC000144DA84202D0144DA84203D122F44075EC
:103DD000CA682A4302608A68C2620A68826298429C
:103DE00001D0A04201D10969016301214161F0BD07
:103DF000000001400004004000080040000C0040AA
:103E000000040140004001400044014000480140DE
:103E100000180040001C00400020004010B50123A5
:103E2000046A8B409C430462036A8A401343036222
:103E300010BD10B5846842EA032224F47F440A438B
:103E40002243826010BD826822F070020A4342F071
:103E5000070181607047000030B5026A22F001025C
:103E60000262026A436884690D6824F07304254382
:103E700022F002048A6822430B4CA04202D00B4C71
:103E8000A0420BD122F00804CA6823F440732243F5
:103E90004C6922F004021C438B6923434360856113
:103EA00049684163026230BD0000014000040140E6
:103EB00030B5026A22F010020262026A4368846925
:103EC0000D6824F4E64444EA05248D6822F02002BB
:103ED00042EA05120D4DA84202D00D4DA8420ED166
:103EE000CD6822F0800242EA05124D6923F4406356
:103EF00043EA85038D6922F0400243EA850343606B
:103F0000846149688163026230BD000000000140A5
:103F10000004014030B5026A22F480720262036A32
:103F20004268C46923F4007324F073050C682C43C1
:103F30008D6843EA05230D4DA84202D00C4DA842DE
:103F40000ED1CD6823F4006343EA05234D6922F4C2
:103F5000405242EA05128D6923F4806342EA051259
:103F60004260C4614968C163036230BD0000014022
:103F70000004014030B5026A22F480520262046AF1
:103F80004268C3690D6823F4E64343EA05238D685C
:103F900024F4005444EA0534084DA84202D0084DE8
:103FA000A84204D14D6922F4804242EA851242605F
:103FB000C36149680164046230BD00000000014033
:103FC0000004014010B5036A046A24F0010404628D
:103FD000846924F0F00444EA021423F00A020A433C
:103FE0008461026210BD10B5036A23F010030362FE
:103FF0008369046A23F4704343EA023224F0A00385
:1040000043EA01118261016210BD000070B5594C94
:104010002088401C80B20525B0FBF5F1208005FB0F
:10402000110018BB00F096FB534890ED0D0ABDEE51
:10403000C00A10EE100A03B2504890ED0D0ABDEE12
:10404000C00A10EE100A02B24D4890ED0D0ABDEE06
:10405000C00A10EE100A01B24A4890ED0D0ABDEEFA
:10406000C00A10EE100A00B200F050FB2088B0FB2E
:10407000F5F105FB1100012801D1FCF7A7FD20880F
:10408000B0FBF5F105FB1100042823D1FEF732FF48
:104090003D4890ED0D0ABDEEC00A10EE100A03B2C5
:1040A0003A4890ED0D0ABDEEC00A10EE100A02B2B9
:1040B000374890ED0D0ABDEEC00A10EE100A01B2AD
:1040C000344890ED0D0ABDEEC00A10EE100A00B2A1
:1040D000FEF758FF2088B0FBF5F105FB110003281F
:1040E00014D1FCF725FD2C48002190ED0D0ABDEE02
:1040F000C00A10EE100A02B2284890ED0D0ABDEE7B
:10410000C00A10EE100A00B2FCF73EFD2088B0FB9A
:10411000F5F105FB110002281BD1FFF709FB204830
:1041200090ED0D0ABDEEC00A10EE100A02B21D4855
:1041300090ED0D0ABDEEC00A10EE100A01B21A4849
:1041400090ED0D0ABDEEC00A10EE100A00B2FFF7A6
:104150001BFB20880A21B0FBF1F201FB120008B919
:10416000FEF756FE2088B0F57A7F01D3002020802C
:1041700070BD0000380000205C0600201C060020F6
:10418000DC0500209C0500205C0700201C070020A7
:10419000DC0600209C0600201C050020DC07002017
:1041A0005C0500201C0800205C08002070B50E484B
:1041B000FEF760FA0D4C0025256002E02068401CE7
:1041C00020600948FEF750FA2028F7D12560084DF5
:1041D00002E02068401C2060012229460248FEF7C8
:1041E000DDFB0028F5D170BD8C010020040000200B
:1041F0001604002010B5806B0021C185C184FEF734
:1042000023FA10BD70B5846B2068406994F83910AA
:10421000C0F3C0100025212904D118B1E58420463F
:1042200000F046F82068406994F83A10C0F3801016
:10423000222904D118B1E585204600F02BF8E06B67
:1042400040F01000E0632046FEF7FEF970BD10B5A7
:104250000146806B09680968C90513D40021C1852E
:104260000168CA6822F48072CA6001684A6922F053
:1042700001024A6101684A6922F040024A61202134
:1042800080F83A10FEF7AEFB10BD10B5806BFEF75C
:1042900045FC10BD0168CA6822F49072CA600168CA
:1042A0004A6922F001024A61202180F83A107047E1
:1042B0000168CA6822F0C002CA60202180F8391063
:1042C000704710B590F83A10222901D0022010BD95
:1042D0008168B1F5805F11D00169002901681FD0A4
:1042E000496801F07F03816A4A1C82620B70C18DAC
:1042F000491E0904090CC18518D026E00269816AAB
:10430000002A0268526805D0D2B20A80816A491C2C
:104310008162ECE7C2F308020A80816A891CF7E730
:104320004A68816A4B1C83620A70E0E70168CA68C8
:1043300022F49072CA6001684A6922F001024A615F
:10434000202180F83A10FEF74DFB002010BD000040
:104350002DE9F04104460068016921F44052E1680A
:10436000114301612168C86849F20C6290432369D6
:10437000A268E5691A4363692B431A430243CA6082
:104380002168486920F44072A06910434861E169DE
:104390006425B1F5004F9748974A21684FF03208DD
:1043A0003FD0914201D081427CD1FDF7C7FC00EBA8
:1043B000C00101EB001061688900B0FBF1F6FDF768
:1043C000BDFC00EBC00101EB001061688900B0FB8F
:1043D000F1F0B0FBF5F06FF01801484306EB8001F7
:1043E00008EB0110B0FBF5F000F0F006FDF7A6FCBD
:1043F00000EBC00101EB001061688900B0FBF1F037
:10440000B0FBF5F006EB0016FDF798FC00EBC001E1
:1044100001EB001061688900B0FBF1F7FDF78EFC3D
:10442000D2E0914201D081423DD1FDF787FC00EB03
:10443000C00101EB001061684900B0FBF1F0B0FB76
:10444000F5F00601FDF77AFC00EBC00101EB00106E
:1044500061684900B0FBF1F7FDF770FC00EBC001AB
:1044600001EB001061684900B0FBF1F0B0FBF5F022
:104470006FF01801484307EB800108EBC100B0FB67
:10448000F5F000F0F80006EB4006FDF757FC00EBF6
:10449000C00101EB001061684900B0FBF1F7FDF7C6
:1044A0004DFC3CE055E0FDF739FC00EBC00101EBB1
:1044B000001061684900B0FBF1F0B0FBF5F00601B7
:1044C000FDF72CFC00EBC00101EB00106168490016
:1044D000B0FBF1F7FDF722FC00EBC00101EB00108F
:1044E00061684900B0FBF1F0B0FBF5F06FF0180126
:1044F000484307EB800108EBC100B0FBF5F000F08A
:10450000F80006EB4006FDF709FC00EBC00101EBEB
:10451000001061684900B0FBF1F7FDF7FFFB00EB0D
:10452000C00101EB001061684900B0FBF1F0B0FB85
:10453000F5F06FF01801484307EB800108EBC1006C
:10454000B0FBF5F000F00700216830448860BDE85A
:10455000F081FDF7E3FB00EBC00101EB00106168A7
:104560008900B0FBF1F6FDF7D9FB00EBC00101EBD0
:10457000001061688900B0FBF1F0B0FBF5F06FF05E
:104580001801484306EB800108EB0110B0FBF5F081
:1045900000F0F006FDF7C2FB00EBC00101EB0010DC
:1045A00061688900B0FBF1F0B0FBF5F006EB001696
:1045B000FDF7B4FB00EBC00101EB0010616889005E
:1045C000B0FBF1F7FDF7AAFB00EBC00101EB001017
:1045D00061688900B0FBF1F0B0FBF5F06FF01801F5
:1045E000484307EB800108EB0110B0FBF5F000F049
:1045F0000F00A9E7001401400010014090F83910A5
:10460000212901D0022070478168B1F5805F016ADD
:104610000BD04A1C0262026809785160C18C491EA5
:104620000904090CC1840ED017E009880268C1F39F
:104630000801516001690029016A02D0491C016228
:10464000ECE7891CFBE70168CA6822F08002CA60B7
:104650000068C16841F04001C160002070472DE949
:10466000F041984617460E460446069D1DE0681C1C
:104670001BD02DB1FDF76CF9A0EB0800A84214D9AE
:104680002068C16821F4D071C1602068416921F0BF
:1046900001014161202084F8390084F83A000020AB
:1046A00084F838000320BDE8F0812068006836EA0D
:1046B000000004D00020B842D9D00020F3E7012048
:1046C000F9E7000070B50E48FDF7D4FF0D4C00254A
:1046D000256002E02068401C20600948FDF7C4FF07
:1046E0002028F7D1256002E02068401C20600122CC
:1046F00005490348FEF752F90028F5D170BD0000C6
:104700000C020020040000203400002030B40E4CC5
:104710004FF4007525600025A560E560082525613A
:104720000A4C050A25706070080AA070E170100A32
:1047300020716271180AA071E371231F30BC1A1D29
:1047400001490348FCF7DFBAAC0200201800002042
:104750004C000020214A00B5B2F9020000EE100A18
:104760001F48B8EEC00A80ED010A92ED020A80ED02
:10477000000AFEF759FFB2F90E0000EE100A1848C1
:10478000B8EEC00A403080ED010A92ED050A80EDD6
:10479000000AFEF749FFB2F91A0000EE100A1048AD
:1047A000B8EEC00A803080ED010A92ED080A80ED73
:1047B000000AFEF739FFB2F9260000EE100A084899
:1047C000B8EEC00AC03080ED010A92ED0B0A80ED10
:1047D000000A5DF804EBFEF727BF00000803002085
:1047E0009C050020FEE7FEE70907090E002804DB10
:1047F00000F1E02080F80014704700F00F0000F195
:10480000E02080F8141D704702E008C8121F08C19C
:10481000002AFAD170477047002001E001C1121F41
:10482000002AFBD17047000070B54FF0E024002251
:1048300065690949A36909784843A1699942FCD08F
:1048400002D2A3EB010302E0A5EB010633441A44B4
:104850000B468242F1D370BD3F0000202DED028B4C
:1048600088B0C826FDF782F85A4900204870FFF743
:10487000EDF900F0D3F8FEF7CBFCFEF7B3FCFEF742
:1048800059FCFEF787FDFEF72BFEFEF755FEFEF7FF
:1048900079FEFEF79FFEFEF74FFDFEF777FCFEF771
:1048A000CFFD002201213620FDF730F93620FDF73B
:1048B00020F9002211464720FDF728F94720FDF78F
:1048C00018F9FCF769F8FCF7F5F84FF47A70FCF783
:1048D00041FF414F9FED418ADFF80481DFF80491E9
:1048E000DFF804A1DFF804B1414C424D3B461A46C3
:1048F00038461146761EFEF745FB0A20FCF72AFFD4
:1049000088ED038A88ED088A88ED0D8A88ED128A81
:1049100089ED038A84ED038A8AED038A36488BED9C
:10492000038A85ED048A80ED048A002EDED11222EE
:1049300032493348FDF7E6FF3248FDF780FC324E3E
:10494000012204213046FCF7FDFF012210213046F0
:10495000FCF7F8FF012208213046FCF7F3FF0122A3
:1049600020213046FCF7EEFF4FF47A70FCF7F2FEA0
:10497000FEF72CFB2548FDF755FC00212448FDF7E8
:1049800045FE244940F2DC500860012211492248CA
:10499000FEF704F895ED030A20218DED000A95ED50
:1049A000040A68468DED010A95ED020A8DED020AB2
:1049B00094ED040A8DED030A94ED030A8DED040ACB
:1049C00094ED020A8DED050A00F02AF80320FCF7A9
:1049D000C1FEDFE734000020E0FCFFFF0000000024
:1049E0003803002088030020D8030020EC030020B7
:1049F0009C030020B0030020C4030020E00200203C
:104A0000CC01002014010020001C024050010020B5
:104A10009C000020340800400C020020FBF750BD31
:104A20007CB504460DA00D46006800900CA041F234
:104A30008836006801903346022269460948FEF72D
:104A40006EF8AAB2334621460648FEF768F83346A8
:104A5000022201A90348FEF762F87CBD03FC0000B6
:104A6000FC0300008C010020364930B40888C0F3F4
:104A70000A0201F11200A2F5806202804A78D3088E
:104A80008A7843EA4213C3F30A03A3F580634380A1
:104A9000CB78920942EA83030A7943EA8223C3F37B
:104AA0000A03A3F58063838053084A7943EAC2135B
:104AB000C3F30A03A3F58063C38093090372C2F3AF
:104AC00001124272B1F906404481B1F90830002266
:104AD0008381C82C00DD4281B0F90A506FF0C70411
:104AE000A54200DA4281C82B00DD8281B0F90C308A
:104AF000A34200DA82814A89C2810A7B02744A7B1E
:104B00004274CA894282098A81820F4802F00101F7
:104B10008170C2F340010171C2F38001C170C2F320
:104B2000C0014171C2F380110170C2F3C011417024
:104B3000C2F300118171C2F34011C17130BCFEF7A4
:104B400047BE0000E002002020000020000000001E
:104B5000000000000102030406070809000000002D
:104B60000102030400061016000610168C4B000804
:104B7000000000204C00000008480008D84B000846
:104B80004C000020940C00001848000800000000B1
:104B90000000000000000000000000000024F400FD
:104BA0000000000000000000000000000000000005
:104BB00000000000000000000000000000000000F5
:104BC00000000000000000000000000001000000E4
:084BD0001000000000000000CD
:04000005080001AD41
:00000001FF
